{
	"Loops.sol": {
		"Loops": {
			"abi": [
				{
					"inputs": [
						{
							"internalType": "uint256",
							"name": "",
							"type": "uint256"
						}
					],
					"name": "array",
					"outputs": [
						{
							"internalType": "uint256",
							"name": "",
							"type": "uint256"
						}
					],
					"stateMutability": "view",
					"type": "function"
				},
				{
					"inputs": [
						{
							"internalType": "int256",
							"name": "num",
							"type": "int256"
						}
					],
					"name": "check",
					"outputs": [
						{
							"internalType": "string",
							"name": "",
							"type": "string"
						}
					],
					"stateMutability": "nonpayable",
					"type": "function"
				},
				{
					"inputs": [
						{
							"internalType": "int256",
							"name": "num",
							"type": "int256"
						}
					],
					"name": "check2",
					"outputs": [
						{
							"internalType": "bool",
							"name": "",
							"type": "bool"
						}
					],
					"stateMutability": "nonpayable",
					"type": "function"
				},
				{
					"inputs": [],
					"name": "loop",
					"outputs": [],
					"stateMutability": "nonpayable",
					"type": "function"
				},
				{
					"inputs": [],
					"name": "val",
					"outputs": [
						{
							"internalType": "bool",
							"name": "",
							"type": "bool"
						}
					],
					"stateMutability": "view",
					"type": "function"
				},
				{
					"inputs": [],
					"name": "value",
					"outputs": [
						{
							"internalType": "string",
							"name": "",
							"type": "string"
						}
					],
					"stateMutability": "view",
					"type": "function"
				}
			],
			"devdoc": {
				"kind": "dev",
				"methods": {},
				"version": 1
			},
			"evm": {
				"assembly": "    /* \"Loops.sol\":159:1672  contract Loops{... */\n  mstore(0x40, 0x80)\n  callvalue\n  dup1\n  iszero\n  tag_1\n  jumpi\n  revert(0x00, 0x00)\ntag_1:\n  pop\n  dataSize(sub_0)\n  dup1\n  dataOffset(sub_0)\n  0x00\n  codecopy\n  0x00\n  return\nstop\n\nsub_0: assembly {\n        /* \"Loops.sol\":159:1672  contract Loops{... */\n      mstore(0x40, 0x80)\n      callvalue\n      dup1\n      iszero\n      tag_1\n      jumpi\n      revert(0x00, 0x00)\n    tag_1:\n      pop\n      jumpi(tag_2, lt(calldatasize, 0x04))\n      shr(0xe0, calldataload(0x00))\n      dup1\n      0x36cdcbc1\n      eq\n      tag_3\n      jumpi\n      dup1\n      0x38d94193\n      eq\n      tag_4\n      jumpi\n      dup1\n      0x3c6bb436\n      eq\n      tag_5\n      jumpi\n      dup1\n      0x3fa4f245\n      eq\n      tag_6\n      jumpi\n      dup1\n      0x9943d669\n      eq\n      tag_7\n      jumpi\n      dup1\n      0xa92100cb\n      eq\n      tag_8\n      jumpi\n    tag_2:\n      revert(0x00, 0x00)\n        /* \"Loops.sol\":1339:1496  function check2(int num) public returns (bool)... */\n    tag_3:\n      tag_9\n      0x04\n      dup1\n      calldatasize\n      sub\n      dup2\n      add\n      swap1\n      tag_10\n      swap2\n      swap1\n      tag_11\n      jump\t// in\n    tag_10:\n      tag_12\n      jump\t// in\n    tag_9:\n      mload(0x40)\n      tag_13\n      swap2\n      swap1\n      tag_14\n      jump\t// in\n    tag_13:\n      mload(0x40)\n      dup1\n      swap2\n      sub\n      swap1\n      return\n        /* \"Loops.sol\":179:200  uint [5] public array */\n    tag_4:\n      tag_15\n      0x04\n      dup1\n      calldatasize\n      sub\n      dup2\n      add\n      swap1\n      tag_16\n      swap2\n      swap1\n      tag_17\n      jump\t// in\n    tag_16:\n      tag_18\n      jump\t// in\n    tag_15:\n      mload(0x40)\n      tag_19\n      swap2\n      swap1\n      tag_20\n      jump\t// in\n    tag_19:\n      mload(0x40)\n      dup1\n      swap2\n      sub\n      swap1\n      return\n        /* \"Loops.sol\":1293:1308  bool public val */\n    tag_5:\n      tag_21\n      tag_22\n      jump\t// in\n    tag_21:\n      mload(0x40)\n      tag_23\n      swap2\n      swap1\n      tag_14\n      jump\t// in\n    tag_23:\n      mload(0x40)\n      dup1\n      swap2\n      sub\n      swap1\n      return\n        /* \"Loops.sol\":942:961  string public value */\n    tag_6:\n      tag_24\n      tag_25\n      jump\t// in\n    tag_24:\n      mload(0x40)\n      tag_26\n      swap2\n      swap1\n      tag_27\n      jump\t// in\n    tag_26:\n      mload(0x40)\n      dup1\n      swap2\n      sub\n      swap1\n      return\n        /* \"Loops.sol\":1036:1220  function check(int num) public returns (string memory){... */\n    tag_7:\n      tag_28\n      0x04\n      dup1\n      calldatasize\n      sub\n      dup2\n      add\n      swap1\n      tag_29\n      swap2\n      swap1\n      tag_11\n      jump\t// in\n    tag_29:\n      tag_30\n      jump\t// in\n    tag_28:\n      mload(0x40)\n      tag_31\n      swap2\n      swap1\n      tag_27\n      jump\t// in\n    tag_31:\n      mload(0x40)\n      dup1\n      swap2\n      sub\n      swap1\n      return\n        /* \"Loops.sol\":559:935  function loop() public {... */\n    tag_8:\n      tag_32\n      tag_33\n      jump\t// in\n    tag_32:\n      stop\n        /* \"Loops.sol\":1339:1496  function check2(int num) public returns (bool)... */\n    tag_12:\n        /* \"Loops.sol\":1380:1384  bool */\n      0x00\n        /* \"Loops.sol\":1406:1407  0 */\n      0x00\n        /* \"Loops.sol\":1400:1403  num */\n      dup3\n        /* \"Loops.sol\":1400:1407  num > 0 */\n      sgt\n        /* \"Loops.sol\":1397:1473  if(num > 0)... */\n      iszero\n      tag_35\n      jumpi\n        /* \"Loops.sol\":1428:1432  true */\n      0x01\n        /* \"Loops.sol\":1424:1427  val */\n      0x07\n      0x00\n        /* \"Loops.sol\":1424:1432  val=true */\n      0x0100\n      exp\n      dup2\n      sload\n      dup2\n      0xff\n      mul\n      not\n      and\n      swap1\n      dup4\n      iszero\n      iszero\n      mul\n      or\n      swap1\n      sstore\n      pop\n        /* \"Loops.sol\":1397:1473  if(num > 0)... */\n      jump(tag_36)\n    tag_35:\n        /* \"Loops.sol\":1460:1465  false */\n      0x00\n        /* \"Loops.sol\":1456:1459  val */\n      0x07\n      0x00\n        /* \"Loops.sol\":1456:1465  val=false */\n      0x0100\n      exp\n      dup2\n      sload\n      dup2\n      0xff\n      mul\n      not\n      and\n      swap1\n      dup4\n      iszero\n      iszero\n      mul\n      or\n      swap1\n      sstore\n      pop\n        /* \"Loops.sol\":1397:1473  if(num > 0)... */\n    tag_36:\n        /* \"Loops.sol\":1486:1489  val */\n      0x07\n      0x00\n      swap1\n      sload\n      swap1\n      0x0100\n      exp\n      swap1\n      div\n      0xff\n      and\n        /* \"Loops.sol\":1479:1489  return val */\n      swap1\n      pop\n        /* \"Loops.sol\":1339:1496  function check2(int num) public returns (bool)... */\n      swap2\n      swap1\n      pop\n      jump\t// out\n        /* \"Loops.sol\":179:200  uint [5] public array */\n    tag_18:\n      0x00\n      dup2\n      0x05\n      dup2\n      lt\n      tag_37\n      jumpi\n      0x00\n      dup1\n      revert\n    tag_37:\n      add\n      0x00\n      swap2\n      pop\n      swap1\n      pop\n      sload\n      dup2\n      jump\t// out\n        /* \"Loops.sol\":1293:1308  bool public val */\n    tag_22:\n      0x07\n      0x00\n      swap1\n      sload\n      swap1\n      0x0100\n      exp\n      swap1\n      div\n      0xff\n      and\n      dup2\n      jump\t// out\n        /* \"Loops.sol\":942:961  string public value */\n    tag_25:\n      0x06\n      dup1\n      sload\n      tag_39\n      swap1\n      tag_40\n      jump\t// in\n    tag_39:\n      dup1\n      0x1f\n      add\n      0x20\n      dup1\n      swap2\n      div\n      mul\n      0x20\n      add\n      mload(0x40)\n      swap1\n      dup2\n      add\n      0x40\n      mstore\n      dup1\n      swap3\n      swap2\n      swap1\n      dup2\n      dup2\n      mstore\n      0x20\n      add\n      dup3\n      dup1\n      sload\n      tag_41\n      swap1\n      tag_40\n      jump\t// in\n    tag_41:\n      dup1\n      iszero\n      tag_42\n      jumpi\n      dup1\n      0x1f\n      lt\n      tag_43\n      jumpi\n      0x0100\n      dup1\n      dup4\n      sload\n      div\n      mul\n      dup4\n      mstore\n      swap2\n      0x20\n      add\n      swap2\n      jump(tag_42)\n    tag_43:\n      dup3\n      add\n      swap2\n      swap1\n      0x00\n      mstore\n      keccak256(0x00, 0x20)\n      swap1\n    tag_44:\n      dup2\n      sload\n      dup2\n      mstore\n      swap1\n      0x01\n      add\n      swap1\n      0x20\n      add\n      dup1\n      dup4\n      gt\n      tag_44\n      jumpi\n      dup3\n      swap1\n      sub\n      0x1f\n      and\n      dup3\n      add\n      swap2\n    tag_42:\n      pop\n      pop\n      pop\n      pop\n      pop\n      dup2\n      jump\t// out\n        /* \"Loops.sol\":1036:1220  function check(int num) public returns (string memory){... */\n    tag_30:\n        /* \"Loops.sol\":1076:1089  string memory */\n      0x60\n        /* \"Loops.sol\":1115:1116  0 */\n      0x00\n        /* \"Loops.sol\":1110:1111  2 */\n      0x02\n        /* \"Loops.sol\":1104:1107  num */\n      dup4\n        /* \"Loops.sol\":1104:1111  num % 2 */\n      tag_46\n      swap2\n      swap1\n      tag_47\n      jump\t// in\n    tag_46:\n        /* \"Loops.sol\":1104:1116  num % 2 == 0 */\n      sub\n        /* \"Loops.sol\":1100:1190  if (num % 2 == 0) {... */\n      tag_48\n      jumpi\n        /* \"Loops.sol\":1129:1141  value=\"even\" */\n      mload(0x40)\n      dup1\n      0x40\n      add\n      0x40\n      mstore\n      dup1\n      0x04\n      dup2\n      mstore\n      0x20\n      add\n      0x6576656e00000000000000000000000000000000000000000000000000000000\n      dup2\n      mstore\n      pop\n        /* \"Loops.sol\":1129:1134  value */\n      0x06\n        /* \"Loops.sol\":1129:1141  value=\"even\" */\n      swap1\n      dup2\n      tag_49\n      swap2\n      swap1\n      tag_50\n      jump\t// in\n    tag_49:\n      pop\n        /* \"Loops.sol\":1100:1190  if (num % 2 == 0) {... */\n      jump(tag_51)\n    tag_48:\n        /* \"Loops.sol\":1168:1179  value=\"odd\" */\n      mload(0x40)\n      dup1\n      0x40\n      add\n      0x40\n      mstore\n      dup1\n      0x03\n      dup2\n      mstore\n      0x20\n      add\n      0x6f64640000000000000000000000000000000000000000000000000000000000\n      dup2\n      mstore\n      pop\n        /* \"Loops.sol\":1168:1173  value */\n      0x06\n        /* \"Loops.sol\":1168:1179  value=\"odd\" */\n      swap1\n      dup2\n      tag_52\n      swap2\n      swap1\n      tag_50\n      jump\t// in\n    tag_52:\n      pop\n        /* \"Loops.sol\":1100:1190  if (num % 2 == 0) {... */\n    tag_51:\n        /* \"Loops.sol\":1208:1213  value */\n      0x06\n        /* \"Loops.sol\":1201:1213  return value */\n      dup1\n      sload\n      tag_53\n      swap1\n      tag_40\n      jump\t// in\n    tag_53:\n      dup1\n      0x1f\n      add\n      0x20\n      dup1\n      swap2\n      div\n      mul\n      0x20\n      add\n      mload(0x40)\n      swap1\n      dup2\n      add\n      0x40\n      mstore\n      dup1\n      swap3\n      swap2\n      swap1\n      dup2\n      dup2\n      mstore\n      0x20\n      add\n      dup3\n      dup1\n      sload\n      tag_54\n      swap1\n      tag_40\n      jump\t// in\n    tag_54:\n      dup1\n      iszero\n      tag_55\n      jumpi\n      dup1\n      0x1f\n      lt\n      tag_56\n      jumpi\n      0x0100\n      dup1\n      dup4\n      sload\n      div\n      mul\n      dup4\n      mstore\n      swap2\n      0x20\n      add\n      swap2\n      jump(tag_55)\n    tag_56:\n      dup3\n      add\n      swap2\n      swap1\n      0x00\n      mstore\n      keccak256(0x00, 0x20)\n      swap1\n    tag_57:\n      dup2\n      sload\n      dup2\n      mstore\n      swap1\n      0x01\n      add\n      swap1\n      0x20\n      add\n      dup1\n      dup4\n      gt\n      tag_57\n      jumpi\n      dup3\n      swap1\n      sub\n      0x1f\n      and\n      dup3\n      add\n      swap2\n    tag_55:\n      pop\n      pop\n      pop\n      pop\n      pop\n      swap1\n      pop\n        /* \"Loops.sol\":1036:1220  function check(int num) public returns (string memory){... */\n      swap2\n      swap1\n      pop\n      jump\t// out\n        /* \"Loops.sol\":559:935  function loop() public {... */\n    tag_33:\n        /* \"Loops.sol\":840:929  do{... */\n    tag_59:\n        /* \"Loops.sol\":868:873  count */\n      sload(0x05)\n        /* \"Loops.sol\":853:858  array */\n      0x00\n        /* \"Loops.sol\":859:864  count */\n      sload(0x05)\n        /* \"Loops.sol\":853:865  array[count] */\n      0x05\n      dup2\n      lt\n      tag_62\n      jumpi\n      tag_63\n      tag_64\n      jump\t// in\n    tag_63:\n    tag_62:\n      add\n        /* \"Loops.sol\":853:873  array[count] = count */\n      dup2\n      swap1\n      sstore\n      pop\n        /* \"Loops.sol\":884:889  count */\n      0x05\n      0x00\n        /* \"Loops.sol\":884:892  count ++ */\n      dup2\n      sload\n      dup1\n      swap3\n      swap2\n      swap1\n      tag_66\n      swap1\n      tag_67\n      jump\t// in\n    tag_66:\n      swap2\n      swap1\n      pop\n      sstore\n      pop\n        /* \"Loops.sol\":915:927  array.length */\n      0x05\n        /* \"Loops.sol\":907:912  count */\n      dup1\n      sload\n        /* \"Loops.sol\":907:927  count < array.length */\n      lt\n        /* \"Loops.sol\":840:929  do{... */\n      tag_59\n      jumpi\n        /* \"Loops.sol\":559:935  function loop() public {... */\n      jump\t// out\n        /* \"#utility.yul\":88:205   */\n    tag_69:\n        /* \"#utility.yul\":197:198   */\n      0x00\n        /* \"#utility.yul\":194:195   */\n      0x00\n        /* \"#utility.yul\":187:199   */\n      revert\n        /* \"#utility.yul\":334:410   */\n    tag_71:\n        /* \"#utility.yul\":370:377   */\n      0x00\n        /* \"#utility.yul\":399:404   */\n      dup2\n        /* \"#utility.yul\":388:404   */\n      swap1\n      pop\n        /* \"#utility.yul\":334:410   */\n      swap2\n      swap1\n      pop\n      jump\t// out\n        /* \"#utility.yul\":416:536   */\n    tag_72:\n        /* \"#utility.yul\":488:511   */\n      tag_110\n        /* \"#utility.yul\":505:510   */\n      dup2\n        /* \"#utility.yul\":488:511   */\n      tag_71\n      jump\t// in\n    tag_110:\n        /* \"#utility.yul\":481:486   */\n      dup2\n        /* \"#utility.yul\":478:512   */\n      eq\n        /* \"#utility.yul\":468:530   */\n      tag_111\n      jumpi\n        /* \"#utility.yul\":526:527   */\n      0x00\n        /* \"#utility.yul\":523:524   */\n      0x00\n        /* \"#utility.yul\":516:528   */\n      revert\n        /* \"#utility.yul\":468:530   */\n    tag_111:\n        /* \"#utility.yul\":416:536   */\n      pop\n      jump\t// out\n        /* \"#utility.yul\":542:679   */\n    tag_73:\n        /* \"#utility.yul\":587:592   */\n      0x00\n        /* \"#utility.yul\":625:631   */\n      dup2\n        /* \"#utility.yul\":612:632   */\n      calldataload\n        /* \"#utility.yul\":603:632   */\n      swap1\n      pop\n        /* \"#utility.yul\":641:673   */\n      tag_113\n        /* \"#utility.yul\":667:672   */\n      dup2\n        /* \"#utility.yul\":641:673   */\n      tag_72\n      jump\t// in\n    tag_113:\n        /* \"#utility.yul\":542:679   */\n      swap3\n      swap2\n      pop\n      pop\n      jump\t// out\n        /* \"#utility.yul\":685:1012   */\n    tag_11:\n        /* \"#utility.yul\":743:749   */\n      0x00\n        /* \"#utility.yul\":792:794   */\n      0x20\n        /* \"#utility.yul\":780:789   */\n      dup3\n        /* \"#utility.yul\":771:778   */\n      dup5\n        /* \"#utility.yul\":767:790   */\n      sub\n        /* \"#utility.yul\":763:795   */\n      slt\n        /* \"#utility.yul\":760:879   */\n      iszero\n      tag_115\n      jumpi\n        /* \"#utility.yul\":798:877   */\n      tag_116\n      tag_69\n      jump\t// in\n    tag_116:\n        /* \"#utility.yul\":760:879   */\n    tag_115:\n        /* \"#utility.yul\":918:919   */\n      0x00\n        /* \"#utility.yul\":943:995   */\n      tag_117\n        /* \"#utility.yul\":987:994   */\n      dup5\n        /* \"#utility.yul\":978:984   */\n      dup3\n        /* \"#utility.yul\":967:976   */\n      dup6\n        /* \"#utility.yul\":963:985   */\n      add\n        /* \"#utility.yul\":943:995   */\n      tag_73\n      jump\t// in\n    tag_117:\n        /* \"#utility.yul\":933:995   */\n      swap2\n      pop\n        /* \"#utility.yul\":889:1005   */\n      pop\n        /* \"#utility.yul\":685:1012   */\n      swap3\n      swap2\n      pop\n      pop\n      jump\t// out\n        /* \"#utility.yul\":1018:1108   */\n    tag_74:\n        /* \"#utility.yul\":1052:1059   */\n      0x00\n        /* \"#utility.yul\":1095:1100   */\n      dup2\n        /* \"#utility.yul\":1088:1101   */\n      iszero\n        /* \"#utility.yul\":1081:1102   */\n      iszero\n        /* \"#utility.yul\":1070:1102   */\n      swap1\n      pop\n        /* \"#utility.yul\":1018:1108   */\n      swap2\n      swap1\n      pop\n      jump\t// out\n        /* \"#utility.yul\":1114:1223   */\n    tag_75:\n        /* \"#utility.yul\":1195:1216   */\n      tag_120\n        /* \"#utility.yul\":1210:1215   */\n      dup2\n        /* \"#utility.yul\":1195:1216   */\n      tag_74\n      jump\t// in\n    tag_120:\n        /* \"#utility.yul\":1190:1193   */\n      dup3\n        /* \"#utility.yul\":1183:1217   */\n      mstore\n        /* \"#utility.yul\":1114:1223   */\n      pop\n      pop\n      jump\t// out\n        /* \"#utility.yul\":1229:1439   */\n    tag_14:\n        /* \"#utility.yul\":1316:1320   */\n      0x00\n        /* \"#utility.yul\":1354:1356   */\n      0x20\n        /* \"#utility.yul\":1343:1352   */\n      dup3\n        /* \"#utility.yul\":1339:1357   */\n      add\n        /* \"#utility.yul\":1331:1357   */\n      swap1\n      pop\n        /* \"#utility.yul\":1367:1432   */\n      tag_122\n        /* \"#utility.yul\":1429:1430   */\n      0x00\n        /* \"#utility.yul\":1418:1427   */\n      dup4\n        /* \"#utility.yul\":1414:1431   */\n      add\n        /* \"#utility.yul\":1405:1411   */\n      dup5\n        /* \"#utility.yul\":1367:1432   */\n      tag_75\n      jump\t// in\n    tag_122:\n        /* \"#utility.yul\":1229:1439   */\n      swap3\n      swap2\n      pop\n      pop\n      jump\t// out\n        /* \"#utility.yul\":1445:1522   */\n    tag_76:\n        /* \"#utility.yul\":1482:1489   */\n      0x00\n        /* \"#utility.yul\":1511:1516   */\n      dup2\n        /* \"#utility.yul\":1500:1516   */\n      swap1\n      pop\n        /* \"#utility.yul\":1445:1522   */\n      swap2\n      swap1\n      pop\n      jump\t// out\n        /* \"#utility.yul\":1528:1650   */\n    tag_77:\n        /* \"#utility.yul\":1601:1625   */\n      tag_125\n        /* \"#utility.yul\":1619:1624   */\n      dup2\n        /* \"#utility.yul\":1601:1625   */\n      tag_76\n      jump\t// in\n    tag_125:\n        /* \"#utility.yul\":1594:1599   */\n      dup2\n        /* \"#utility.yul\":1591:1626   */\n      eq\n        /* \"#utility.yul\":1581:1644   */\n      tag_126\n      jumpi\n        /* \"#utility.yul\":1640:1641   */\n      0x00\n        /* \"#utility.yul\":1637:1638   */\n      0x00\n        /* \"#utility.yul\":1630:1642   */\n      revert\n        /* \"#utility.yul\":1581:1644   */\n    tag_126:\n        /* \"#utility.yul\":1528:1650   */\n      pop\n      jump\t// out\n        /* \"#utility.yul\":1656:1795   */\n    tag_78:\n        /* \"#utility.yul\":1702:1707   */\n      0x00\n        /* \"#utility.yul\":1740:1746   */\n      dup2\n        /* \"#utility.yul\":1727:1747   */\n      calldataload\n        /* \"#utility.yul\":1718:1747   */\n      swap1\n      pop\n        /* \"#utility.yul\":1756:1789   */\n      tag_128\n        /* \"#utility.yul\":1783:1788   */\n      dup2\n        /* \"#utility.yul\":1756:1789   */\n      tag_77\n      jump\t// in\n    tag_128:\n        /* \"#utility.yul\":1656:1795   */\n      swap3\n      swap2\n      pop\n      pop\n      jump\t// out\n        /* \"#utility.yul\":1801:2130   */\n    tag_17:\n        /* \"#utility.yul\":1860:1866   */\n      0x00\n        /* \"#utility.yul\":1909:1911   */\n      0x20\n        /* \"#utility.yul\":1897:1906   */\n      dup3\n        /* \"#utility.yul\":1888:1895   */\n      dup5\n        /* \"#utility.yul\":1884:1907   */\n      sub\n        /* \"#utility.yul\":1880:1912   */\n      slt\n        /* \"#utility.yul\":1877:1996   */\n      iszero\n      tag_130\n      jumpi\n        /* \"#utility.yul\":1915:1994   */\n      tag_131\n      tag_69\n      jump\t// in\n    tag_131:\n        /* \"#utility.yul\":1877:1996   */\n    tag_130:\n        /* \"#utility.yul\":2035:2036   */\n      0x00\n        /* \"#utility.yul\":2060:2113   */\n      tag_132\n        /* \"#utility.yul\":2105:2112   */\n      dup5\n        /* \"#utility.yul\":2096:2102   */\n      dup3\n        /* \"#utility.yul\":2085:2094   */\n      dup6\n        /* \"#utility.yul\":2081:2103   */\n      add\n        /* \"#utility.yul\":2060:2113   */\n      tag_78\n      jump\t// in\n    tag_132:\n        /* \"#utility.yul\":2050:2113   */\n      swap2\n      pop\n        /* \"#utility.yul\":2006:2123   */\n      pop\n        /* \"#utility.yul\":1801:2130   */\n      swap3\n      swap2\n      pop\n      pop\n      jump\t// out\n        /* \"#utility.yul\":2136:2254   */\n    tag_79:\n        /* \"#utility.yul\":2223:2247   */\n      tag_134\n        /* \"#utility.yul\":2241:2246   */\n      dup2\n        /* \"#utility.yul\":2223:2247   */\n      tag_76\n      jump\t// in\n    tag_134:\n        /* \"#utility.yul\":2218:2221   */\n      dup3\n        /* \"#utility.yul\":2211:2248   */\n      mstore\n        /* \"#utility.yul\":2136:2254   */\n      pop\n      pop\n      jump\t// out\n        /* \"#utility.yul\":2260:2482   */\n    tag_20:\n        /* \"#utility.yul\":2353:2357   */\n      0x00\n        /* \"#utility.yul\":2391:2393   */\n      0x20\n        /* \"#utility.yul\":2380:2389   */\n      dup3\n        /* \"#utility.yul\":2376:2394   */\n      add\n        /* \"#utility.yul\":2368:2394   */\n      swap1\n      pop\n        /* \"#utility.yul\":2404:2475   */\n      tag_136\n        /* \"#utility.yul\":2472:2473   */\n      0x00\n        /* \"#utility.yul\":2461:2470   */\n      dup4\n        /* \"#utility.yul\":2457:2474   */\n      add\n        /* \"#utility.yul\":2448:2454   */\n      dup5\n        /* \"#utility.yul\":2404:2475   */\n      tag_79\n      jump\t// in\n    tag_136:\n        /* \"#utility.yul\":2260:2482   */\n      swap3\n      swap2\n      pop\n      pop\n      jump\t// out\n        /* \"#utility.yul\":2488:2587   */\n    tag_80:\n        /* \"#utility.yul\":2540:2546   */\n      0x00\n        /* \"#utility.yul\":2574:2579   */\n      dup2\n        /* \"#utility.yul\":2568:2580   */\n      mload\n        /* \"#utility.yul\":2558:2580   */\n      swap1\n      pop\n        /* \"#utility.yul\":2488:2587   */\n      swap2\n      swap1\n      pop\n      jump\t// out\n        /* \"#utility.yul\":2593:2762   */\n    tag_81:\n        /* \"#utility.yul\":2677:2688   */\n      0x00\n        /* \"#utility.yul\":2711:2717   */\n      dup3\n        /* \"#utility.yul\":2706:2709   */\n      dup3\n        /* \"#utility.yul\":2699:2718   */\n      mstore\n        /* \"#utility.yul\":2751:2755   */\n      0x20\n        /* \"#utility.yul\":2746:2749   */\n      dup3\n        /* \"#utility.yul\":2742:2756   */\n      add\n        /* \"#utility.yul\":2727:2756   */\n      swap1\n      pop\n        /* \"#utility.yul\":2593:2762   */\n      swap3\n      swap2\n      pop\n      pop\n      jump\t// out\n        /* \"#utility.yul\":2768:2907   */\n    tag_82:\n        /* \"#utility.yul\":2857:2863   */\n      dup3\n        /* \"#utility.yul\":2852:2855   */\n      dup2\n        /* \"#utility.yul\":2847:2850   */\n      dup4\n        /* \"#utility.yul\":2841:2864   */\n      mcopy\n        /* \"#utility.yul\":2898:2899   */\n      0x00\n        /* \"#utility.yul\":2889:2895   */\n      dup4\n        /* \"#utility.yul\":2884:2887   */\n      dup4\n        /* \"#utility.yul\":2880:2896   */\n      add\n        /* \"#utility.yul\":2873:2900   */\n      mstore\n        /* \"#utility.yul\":2768:2907   */\n      pop\n      pop\n      pop\n      jump\t// out\n        /* \"#utility.yul\":2913:3015   */\n    tag_83:\n        /* \"#utility.yul\":2954:2960   */\n      0x00\n        /* \"#utility.yul\":3005:3007   */\n      0x1f\n        /* \"#utility.yul\":3001:3008   */\n      not\n        /* \"#utility.yul\":2996:2998   */\n      0x1f\n        /* \"#utility.yul\":2989:2994   */\n      dup4\n        /* \"#utility.yul\":2985:2999   */\n      add\n        /* \"#utility.yul\":2981:3009   */\n      and\n        /* \"#utility.yul\":2971:3009   */\n      swap1\n      pop\n        /* \"#utility.yul\":2913:3015   */\n      swap2\n      swap1\n      pop\n      jump\t// out\n        /* \"#utility.yul\":3021:3398   */\n    tag_84:\n        /* \"#utility.yul\":3109:3112   */\n      0x00\n        /* \"#utility.yul\":3137:3176   */\n      tag_142\n        /* \"#utility.yul\":3170:3175   */\n      dup3\n        /* \"#utility.yul\":3137:3176   */\n      tag_80\n      jump\t// in\n    tag_142:\n        /* \"#utility.yul\":3192:3263   */\n      tag_143\n        /* \"#utility.yul\":3256:3262   */\n      dup2\n        /* \"#utility.yul\":3251:3254   */\n      dup6\n        /* \"#utility.yul\":3192:3263   */\n      tag_81\n      jump\t// in\n    tag_143:\n        /* \"#utility.yul\":3185:3263   */\n      swap4\n      pop\n        /* \"#utility.yul\":3272:3337   */\n      tag_144\n        /* \"#utility.yul\":3330:3336   */\n      dup2\n        /* \"#utility.yul\":3325:3328   */\n      dup6\n        /* \"#utility.yul\":3318:3322   */\n      0x20\n        /* \"#utility.yul\":3311:3316   */\n      dup7\n        /* \"#utility.yul\":3307:3323   */\n      add\n        /* \"#utility.yul\":3272:3337   */\n      tag_82\n      jump\t// in\n    tag_144:\n        /* \"#utility.yul\":3362:3391   */\n      tag_145\n        /* \"#utility.yul\":3384:3390   */\n      dup2\n        /* \"#utility.yul\":3362:3391   */\n      tag_83\n      jump\t// in\n    tag_145:\n        /* \"#utility.yul\":3357:3360   */\n      dup5\n        /* \"#utility.yul\":3353:3392   */\n      add\n        /* \"#utility.yul\":3346:3392   */\n      swap2\n      pop\n        /* \"#utility.yul\":3113:3398   */\n      pop\n        /* \"#utility.yul\":3021:3398   */\n      swap3\n      swap2\n      pop\n      pop\n      jump\t// out\n        /* \"#utility.yul\":3404:3717   */\n    tag_27:\n        /* \"#utility.yul\":3517:3521   */\n      0x00\n        /* \"#utility.yul\":3555:3557   */\n      0x20\n        /* \"#utility.yul\":3544:3553   */\n      dup3\n        /* \"#utility.yul\":3540:3558   */\n      add\n        /* \"#utility.yul\":3532:3558   */\n      swap1\n      pop\n        /* \"#utility.yul\":3604:3613   */\n      dup2\n        /* \"#utility.yul\":3598:3602   */\n      dup2\n        /* \"#utility.yul\":3594:3614   */\n      sub\n        /* \"#utility.yul\":3590:3591   */\n      0x00\n        /* \"#utility.yul\":3579:3588   */\n      dup4\n        /* \"#utility.yul\":3575:3592   */\n      add\n        /* \"#utility.yul\":3568:3615   */\n      mstore\n        /* \"#utility.yul\":3632:3710   */\n      tag_147\n        /* \"#utility.yul\":3705:3709   */\n      dup2\n        /* \"#utility.yul\":3696:3702   */\n      dup5\n        /* \"#utility.yul\":3632:3710   */\n      tag_84\n      jump\t// in\n    tag_147:\n        /* \"#utility.yul\":3624:3710   */\n      swap1\n      pop\n        /* \"#utility.yul\":3404:3717   */\n      swap3\n      swap2\n      pop\n      pop\n      jump\t// out\n        /* \"#utility.yul\":3723:3903   */\n    tag_85:\n        /* \"#utility.yul\":3771:3848   */\n      0x4e487b7100000000000000000000000000000000000000000000000000000000\n        /* \"#utility.yul\":3768:3769   */\n      0x00\n        /* \"#utility.yul\":3761:3849   */\n      mstore\n        /* \"#utility.yul\":3868:3872   */\n      0x22\n        /* \"#utility.yul\":3865:3866   */\n      0x04\n        /* \"#utility.yul\":3858:3873   */\n      mstore\n        /* \"#utility.yul\":3892:3896   */\n      0x24\n        /* \"#utility.yul\":3889:3890   */\n      0x00\n        /* \"#utility.yul\":3882:3897   */\n      revert\n        /* \"#utility.yul\":3909:4229   */\n    tag_40:\n        /* \"#utility.yul\":3953:3959   */\n      0x00\n        /* \"#utility.yul\":3990:3991   */\n      0x02\n        /* \"#utility.yul\":3984:3988   */\n      dup3\n        /* \"#utility.yul\":3980:3992   */\n      div\n        /* \"#utility.yul\":3970:3992   */\n      swap1\n      pop\n        /* \"#utility.yul\":4037:4038   */\n      0x01\n        /* \"#utility.yul\":4031:4035   */\n      dup3\n        /* \"#utility.yul\":4027:4039   */\n      and\n        /* \"#utility.yul\":4058:4076   */\n      dup1\n        /* \"#utility.yul\":4048:4129   */\n      tag_150\n      jumpi\n        /* \"#utility.yul\":4114:4118   */\n      0x7f\n        /* \"#utility.yul\":4106:4112   */\n      dup3\n        /* \"#utility.yul\":4102:4119   */\n      and\n        /* \"#utility.yul\":4092:4119   */\n      swap2\n      pop\n        /* \"#utility.yul\":4048:4129   */\n    tag_150:\n        /* \"#utility.yul\":4176:4178   */\n      0x20\n        /* \"#utility.yul\":4168:4174   */\n      dup3\n        /* \"#utility.yul\":4165:4179   */\n      lt\n        /* \"#utility.yul\":4145:4163   */\n      dup2\n        /* \"#utility.yul\":4142:4180   */\n      sub\n        /* \"#utility.yul\":4139:4223   */\n      tag_151\n      jumpi\n        /* \"#utility.yul\":4195:4213   */\n      tag_152\n      tag_85\n      jump\t// in\n    tag_152:\n        /* \"#utility.yul\":4139:4223   */\n    tag_151:\n        /* \"#utility.yul\":3960:4229   */\n      pop\n        /* \"#utility.yul\":3909:4229   */\n      swap2\n      swap1\n      pop\n      jump\t// out\n        /* \"#utility.yul\":4235:4415   */\n    tag_86:\n        /* \"#utility.yul\":4283:4360   */\n      0x4e487b7100000000000000000000000000000000000000000000000000000000\n        /* \"#utility.yul\":4280:4281   */\n      0x00\n        /* \"#utility.yul\":4273:4361   */\n      mstore\n        /* \"#utility.yul\":4380:4384   */\n      0x12\n        /* \"#utility.yul\":4377:4378   */\n      0x04\n        /* \"#utility.yul\":4370:4385   */\n      mstore\n        /* \"#utility.yul\":4404:4408   */\n      0x24\n        /* \"#utility.yul\":4401:4402   */\n      0x00\n        /* \"#utility.yul\":4394:4409   */\n      revert\n        /* \"#utility.yul\":4421:4595   */\n    tag_47:\n        /* \"#utility.yul\":4452:4453   */\n      0x00\n        /* \"#utility.yul\":4469:4488   */\n      tag_155\n        /* \"#utility.yul\":4486:4487   */\n      dup3\n        /* \"#utility.yul\":4469:4488   */\n      tag_71\n      jump\t// in\n    tag_155:\n        /* \"#utility.yul\":4464:4488   */\n      swap2\n      pop\n        /* \"#utility.yul\":4502:4521   */\n      tag_156\n        /* \"#utility.yul\":4519:4520   */\n      dup4\n        /* \"#utility.yul\":4502:4521   */\n      tag_71\n      jump\t// in\n    tag_156:\n        /* \"#utility.yul\":4497:4521   */\n      swap3\n      pop\n        /* \"#utility.yul\":4540:4541   */\n      dup3\n        /* \"#utility.yul\":4530:4565   */\n      tag_157\n      jumpi\n        /* \"#utility.yul\":4545:4563   */\n      tag_158\n      tag_86\n      jump\t// in\n    tag_158:\n        /* \"#utility.yul\":4530:4565   */\n    tag_157:\n        /* \"#utility.yul\":4587:4588   */\n      dup3\n        /* \"#utility.yul\":4584:4585   */\n      dup3\n        /* \"#utility.yul\":4579:4589   */\n      smod\n        /* \"#utility.yul\":4574:4589   */\n      swap1\n      pop\n        /* \"#utility.yul\":4421:4595   */\n      swap3\n      swap2\n      pop\n      pop\n      jump\t// out\n        /* \"#utility.yul\":4601:4781   */\n    tag_87:\n        /* \"#utility.yul\":4649:4726   */\n      0x4e487b7100000000000000000000000000000000000000000000000000000000\n        /* \"#utility.yul\":4646:4647   */\n      0x00\n        /* \"#utility.yul\":4639:4727   */\n      mstore\n        /* \"#utility.yul\":4746:4750   */\n      0x41\n        /* \"#utility.yul\":4743:4744   */\n      0x04\n        /* \"#utility.yul\":4736:4751   */\n      mstore\n        /* \"#utility.yul\":4770:4774   */\n      0x24\n        /* \"#utility.yul\":4767:4768   */\n      0x00\n        /* \"#utility.yul\":4760:4775   */\n      revert\n        /* \"#utility.yul\":4787:4928   */\n    tag_88:\n        /* \"#utility.yul\":4836:4840   */\n      0x00\n        /* \"#utility.yul\":4859:4862   */\n      dup2\n        /* \"#utility.yul\":4851:4862   */\n      swap1\n      pop\n        /* \"#utility.yul\":4882:4885   */\n      dup2\n        /* \"#utility.yul\":4879:4880   */\n      0x00\n        /* \"#utility.yul\":4872:4886   */\n      mstore\n        /* \"#utility.yul\":4916:4920   */\n      0x20\n        /* \"#utility.yul\":4913:4914   */\n      0x00\n        /* \"#utility.yul\":4903:4921   */\n      keccak256\n        /* \"#utility.yul\":4895:4921   */\n      swap1\n      pop\n        /* \"#utility.yul\":4787:4928   */\n      swap2\n      swap1\n      pop\n      jump\t// out\n        /* \"#utility.yul\":4934:5027   */\n    tag_89:\n        /* \"#utility.yul\":4971:4977   */\n      0x00\n        /* \"#utility.yul\":5018:5020   */\n      0x20\n        /* \"#utility.yul\":5013:5015   */\n      0x1f\n        /* \"#utility.yul\":5006:5011   */\n      dup4\n        /* \"#utility.yul\":5002:5016   */\n      add\n        /* \"#utility.yul\":4998:5021   */\n      div\n        /* \"#utility.yul\":4988:5021   */\n      swap1\n      pop\n        /* \"#utility.yul\":4934:5027   */\n      swap2\n      swap1\n      pop\n      jump\t// out\n        /* \"#utility.yul\":5033:5140   */\n    tag_90:\n        /* \"#utility.yul\":5077:5085   */\n      0x00\n        /* \"#utility.yul\":5127:5132   */\n      dup3\n        /* \"#utility.yul\":5121:5125   */\n      dup3\n        /* \"#utility.yul\":5117:5133   */\n      shl\n        /* \"#utility.yul\":5096:5133   */\n      swap1\n      pop\n        /* \"#utility.yul\":5033:5140   */\n      swap3\n      swap2\n      pop\n      pop\n      jump\t// out\n        /* \"#utility.yul\":5146:5539   */\n    tag_91:\n        /* \"#utility.yul\":5215:5221   */\n      0x00\n        /* \"#utility.yul\":5265:5266   */\n      0x08\n        /* \"#utility.yul\":5253:5263   */\n      dup4\n        /* \"#utility.yul\":5249:5267   */\n      mul\n        /* \"#utility.yul\":5288:5385   */\n      tag_164\n        /* \"#utility.yul\":5318:5384   */\n      0xffffffffffffffffffffffffffffffffffffffffffffffffffffffffffffffff\n        /* \"#utility.yul\":5307:5316   */\n      dup3\n        /* \"#utility.yul\":5288:5385   */\n      tag_90\n      jump\t// in\n    tag_164:\n        /* \"#utility.yul\":5406:5445   */\n      tag_165\n        /* \"#utility.yul\":5436:5444   */\n      dup7\n        /* \"#utility.yul\":5425:5434   */\n      dup4\n        /* \"#utility.yul\":5406:5445   */\n      tag_90\n      jump\t// in\n    tag_165:\n        /* \"#utility.yul\":5394:5445   */\n      swap6\n      pop\n        /* \"#utility.yul\":5478:5482   */\n      dup1\n        /* \"#utility.yul\":5474:5483   */\n      not\n        /* \"#utility.yul\":5467:5472   */\n      dup5\n        /* \"#utility.yul\":5463:5484   */\n      and\n        /* \"#utility.yul\":5454:5484   */\n      swap4\n      pop\n        /* \"#utility.yul\":5527:5531   */\n      dup1\n        /* \"#utility.yul\":5517:5525   */\n      dup7\n        /* \"#utility.yul\":5513:5532   */\n      and\n        /* \"#utility.yul\":5506:5511   */\n      dup5\n        /* \"#utility.yul\":5503:5533   */\n      or\n        /* \"#utility.yul\":5493:5533   */\n      swap3\n      pop\n        /* \"#utility.yul\":5222:5539   */\n      pop\n      pop\n        /* \"#utility.yul\":5146:5539   */\n      swap4\n      swap3\n      pop\n      pop\n      pop\n      jump\t// out\n        /* \"#utility.yul\":5545:5605   */\n    tag_92:\n        /* \"#utility.yul\":5573:5576   */\n      0x00\n        /* \"#utility.yul\":5594:5599   */\n      dup2\n        /* \"#utility.yul\":5587:5599   */\n      swap1\n      pop\n        /* \"#utility.yul\":5545:5605   */\n      swap2\n      swap1\n      pop\n      jump\t// out\n        /* \"#utility.yul\":5611:5753   */\n    tag_93:\n        /* \"#utility.yul\":5661:5670   */\n      0x00\n        /* \"#utility.yul\":5694:5747   */\n      tag_168\n        /* \"#utility.yul\":5712:5746   */\n      tag_169\n        /* \"#utility.yul\":5721:5745   */\n      tag_170\n        /* \"#utility.yul\":5739:5744   */\n      dup5\n        /* \"#utility.yul\":5721:5745   */\n      tag_76\n      jump\t// in\n    tag_170:\n        /* \"#utility.yul\":5712:5746   */\n      tag_92\n      jump\t// in\n    tag_169:\n        /* \"#utility.yul\":5694:5747   */\n      tag_76\n      jump\t// in\n    tag_168:\n        /* \"#utility.yul\":5681:5747   */\n      swap1\n      pop\n        /* \"#utility.yul\":5611:5753   */\n      swap2\n      swap1\n      pop\n      jump\t// out\n        /* \"#utility.yul\":5759:5834   */\n    tag_94:\n        /* \"#utility.yul\":5802:5805   */\n      0x00\n        /* \"#utility.yul\":5823:5828   */\n      dup2\n        /* \"#utility.yul\":5816:5828   */\n      swap1\n      pop\n        /* \"#utility.yul\":5759:5834   */\n      swap2\n      swap1\n      pop\n      jump\t// out\n        /* \"#utility.yul\":5840:6109   */\n    tag_95:\n        /* \"#utility.yul\":5950:5989   */\n      tag_173\n        /* \"#utility.yul\":5981:5988   */\n      dup4\n        /* \"#utility.yul\":5950:5989   */\n      tag_93\n      jump\t// in\n    tag_173:\n        /* \"#utility.yul\":6011:6102   */\n      tag_174\n        /* \"#utility.yul\":6060:6101   */\n      tag_175\n        /* \"#utility.yul\":6084:6100   */\n      dup3\n        /* \"#utility.yul\":6060:6101   */\n      tag_94\n      jump\t// in\n    tag_175:\n        /* \"#utility.yul\":6052:6058   */\n      dup5\n        /* \"#utility.yul\":6045:6049   */\n      dup5\n        /* \"#utility.yul\":6039:6050   */\n      sload\n        /* \"#utility.yul\":6011:6102   */\n      tag_91\n      jump\t// in\n    tag_174:\n        /* \"#utility.yul\":6005:6009   */\n      dup3\n        /* \"#utility.yul\":5998:6103   */\n      sstore\n        /* \"#utility.yul\":5916:6109   */\n      pop\n        /* \"#utility.yul\":5840:6109   */\n      pop\n      pop\n      pop\n      jump\t// out\n        /* \"#utility.yul\":6115:6188   */\n    tag_96:\n        /* \"#utility.yul\":6160:6163   */\n      0x00\n        /* \"#utility.yul\":6181:6182   */\n      0x00\n        /* \"#utility.yul\":6174:6182   */\n      swap1\n      pop\n        /* \"#utility.yul\":6115:6188   */\n      swap1\n      jump\t// out\n        /* \"#utility.yul\":6194:6383   */\n    tag_97:\n        /* \"#utility.yul\":6271:6303   */\n      tag_178\n      tag_96\n      jump\t// in\n    tag_178:\n        /* \"#utility.yul\":6312:6377   */\n      tag_179\n        /* \"#utility.yul\":6370:6376   */\n      dup2\n        /* \"#utility.yul\":6362:6368   */\n      dup5\n        /* \"#utility.yul\":6356:6360   */\n      dup5\n        /* \"#utility.yul\":6312:6377   */\n      tag_95\n      jump\t// in\n    tag_179:\n        /* \"#utility.yul\":6247:6383   */\n      pop\n        /* \"#utility.yul\":6194:6383   */\n      pop\n      pop\n      jump\t// out\n        /* \"#utility.yul\":6389:6575   */\n    tag_98:\n        /* \"#utility.yul\":6449:6569   */\n    tag_181:\n        /* \"#utility.yul\":6466:6469   */\n      dup2\n        /* \"#utility.yul\":6459:6464   */\n      dup2\n        /* \"#utility.yul\":6456:6470   */\n      lt\n        /* \"#utility.yul\":6449:6569   */\n      iszero\n      tag_183\n      jumpi\n        /* \"#utility.yul\":6520:6559   */\n      tag_184\n        /* \"#utility.yul\":6557:6558   */\n      0x00\n        /* \"#utility.yul\":6550:6555   */\n      dup3\n        /* \"#utility.yul\":6520:6559   */\n      tag_97\n      jump\t// in\n    tag_184:\n        /* \"#utility.yul\":6493:6494   */\n      0x01\n        /* \"#utility.yul\":6486:6491   */\n      dup2\n        /* \"#utility.yul\":6482:6495   */\n      add\n        /* \"#utility.yul\":6473:6495   */\n      swap1\n      pop\n        /* \"#utility.yul\":6449:6569   */\n      jump(tag_181)\n    tag_183:\n        /* \"#utility.yul\":6389:6575   */\n      pop\n      pop\n      jump\t// out\n        /* \"#utility.yul\":6581:7124   */\n    tag_99:\n        /* \"#utility.yul\":6682:6684   */\n      0x1f\n        /* \"#utility.yul\":6677:6680   */\n      dup3\n        /* \"#utility.yul\":6674:6685   */\n      gt\n        /* \"#utility.yul\":6671:7117   */\n      iszero\n      tag_186\n      jumpi\n        /* \"#utility.yul\":6716:6754   */\n      tag_187\n        /* \"#utility.yul\":6748:6753   */\n      dup2\n        /* \"#utility.yul\":6716:6754   */\n      tag_88\n      jump\t// in\n    tag_187:\n        /* \"#utility.yul\":6800:6829   */\n      tag_188\n        /* \"#utility.yul\":6818:6828   */\n      dup5\n        /* \"#utility.yul\":6800:6829   */\n      tag_89\n      jump\t// in\n    tag_188:\n        /* \"#utility.yul\":6790:6798   */\n      dup2\n        /* \"#utility.yul\":6786:6830   */\n      add\n        /* \"#utility.yul\":6983:6985   */\n      0x20\n        /* \"#utility.yul\":6971:6981   */\n      dup6\n        /* \"#utility.yul\":6968:6986   */\n      lt\n        /* \"#utility.yul\":6965:7014   */\n      iszero\n      tag_189\n      jumpi\n        /* \"#utility.yul\":7004:7012   */\n      dup2\n        /* \"#utility.yul\":6989:7012   */\n      swap1\n      pop\n        /* \"#utility.yul\":6965:7014   */\n    tag_189:\n        /* \"#utility.yul\":7027:7107   */\n      tag_190\n        /* \"#utility.yul\":7083:7105   */\n      tag_191\n        /* \"#utility.yul\":7101:7104   */\n      dup6\n        /* \"#utility.yul\":7083:7105   */\n      tag_89\n      jump\t// in\n    tag_191:\n        /* \"#utility.yul\":7073:7081   */\n      dup4\n        /* \"#utility.yul\":7069:7106   */\n      add\n        /* \"#utility.yul\":7056:7067   */\n      dup3\n        /* \"#utility.yul\":7027:7107   */\n      tag_98\n      jump\t// in\n    tag_190:\n        /* \"#utility.yul\":6686:7117   */\n      pop\n      pop\n        /* \"#utility.yul\":6671:7117   */\n    tag_186:\n        /* \"#utility.yul\":6581:7124   */\n      pop\n      pop\n      pop\n      jump\t// out\n        /* \"#utility.yul\":7130:7247   */\n    tag_100:\n        /* \"#utility.yul\":7184:7192   */\n      0x00\n        /* \"#utility.yul\":7234:7239   */\n      dup3\n        /* \"#utility.yul\":7228:7232   */\n      dup3\n        /* \"#utility.yul\":7224:7240   */\n      shr\n        /* \"#utility.yul\":7203:7240   */\n      swap1\n      pop\n        /* \"#utility.yul\":7130:7247   */\n      swap3\n      swap2\n      pop\n      pop\n      jump\t// out\n        /* \"#utility.yul\":7253:7422   */\n    tag_101:\n        /* \"#utility.yul\":7297:7303   */\n      0x00\n        /* \"#utility.yul\":7330:7381   */\n      tag_194\n        /* \"#utility.yul\":7378:7379   */\n      0x00\n        /* \"#utility.yul\":7374:7380   */\n      not\n        /* \"#utility.yul\":7366:7371   */\n      dup5\n        /* \"#utility.yul\":7363:7364   */\n      0x08\n        /* \"#utility.yul\":7359:7372   */\n      mul\n        /* \"#utility.yul\":7330:7381   */\n      tag_100\n      jump\t// in\n    tag_194:\n        /* \"#utility.yul\":7326:7382   */\n      not\n        /* \"#utility.yul\":7411:7415   */\n      dup1\n        /* \"#utility.yul\":7405:7409   */\n      dup4\n        /* \"#utility.yul\":7401:7416   */\n      and\n        /* \"#utility.yul\":7391:7416   */\n      swap2\n      pop\n        /* \"#utility.yul\":7304:7422   */\n      pop\n        /* \"#utility.yul\":7253:7422   */\n      swap3\n      swap2\n      pop\n      pop\n      jump\t// out\n        /* \"#utility.yul\":7427:7722   */\n    tag_102:\n        /* \"#utility.yul\":7503:7507   */\n      0x00\n        /* \"#utility.yul\":7649:7678   */\n      tag_196\n        /* \"#utility.yul\":7674:7677   */\n      dup4\n        /* \"#utility.yul\":7668:7672   */\n      dup4\n        /* \"#utility.yul\":7649:7678   */\n      tag_101\n      jump\t// in\n    tag_196:\n        /* \"#utility.yul\":7641:7678   */\n      swap2\n      pop\n        /* \"#utility.yul\":7711:7714   */\n      dup3\n        /* \"#utility.yul\":7708:7709   */\n      0x02\n        /* \"#utility.yul\":7704:7715   */\n      mul\n        /* \"#utility.yul\":7698:7702   */\n      dup3\n        /* \"#utility.yul\":7695:7716   */\n      or\n        /* \"#utility.yul\":7687:7716   */\n      swap1\n      pop\n        /* \"#utility.yul\":7427:7722   */\n      swap3\n      swap2\n      pop\n      pop\n      jump\t// out\n        /* \"#utility.yul\":7727:9122   */\n    tag_50:\n        /* \"#utility.yul\":7844:7881   */\n      tag_198\n        /* \"#utility.yul\":7877:7880   */\n      dup3\n        /* \"#utility.yul\":7844:7881   */\n      tag_80\n      jump\t// in\n    tag_198:\n        /* \"#utility.yul\":7946:7964   */\n      0xffffffffffffffff\n        /* \"#utility.yul\":7938:7944   */\n      dup2\n        /* \"#utility.yul\":7935:7965   */\n      gt\n        /* \"#utility.yul\":7932:7988   */\n      iszero\n      tag_199\n      jumpi\n        /* \"#utility.yul\":7968:7986   */\n      tag_200\n      tag_87\n      jump\t// in\n    tag_200:\n        /* \"#utility.yul\":7932:7988   */\n    tag_199:\n        /* \"#utility.yul\":8012:8050   */\n      tag_201\n        /* \"#utility.yul\":8044:8048   */\n      dup3\n        /* \"#utility.yul\":8038:8049   */\n      sload\n        /* \"#utility.yul\":8012:8050   */\n      tag_40\n      jump\t// in\n    tag_201:\n        /* \"#utility.yul\":8097:8164   */\n      tag_202\n        /* \"#utility.yul\":8157:8163   */\n      dup3\n        /* \"#utility.yul\":8149:8155   */\n      dup3\n        /* \"#utility.yul\":8143:8147   */\n      dup6\n        /* \"#utility.yul\":8097:8164   */\n      tag_99\n      jump\t// in\n    tag_202:\n        /* \"#utility.yul\":8191:8192   */\n      0x00\n        /* \"#utility.yul\":8215:8219   */\n      0x20\n        /* \"#utility.yul\":8202:8219   */\n      swap1\n      pop\n        /* \"#utility.yul\":8247:8249   */\n      0x1f\n        /* \"#utility.yul\":8239:8245   */\n      dup4\n        /* \"#utility.yul\":8236:8250   */\n      gt\n        /* \"#utility.yul\":8264:8265   */\n      0x01\n        /* \"#utility.yul\":8259:8877   */\n      dup2\n      eq\n      tag_204\n      jumpi\n        /* \"#utility.yul\":8921:8922   */\n      0x00\n        /* \"#utility.yul\":8938:8944   */\n      dup5\n        /* \"#utility.yul\":8935:9012   */\n      iszero\n      tag_205\n      jumpi\n        /* \"#utility.yul\":8987:8996   */\n      dup3\n        /* \"#utility.yul\":8982:8985   */\n      dup8\n        /* \"#utility.yul\":8978:8997   */\n      add\n        /* \"#utility.yul\":8972:8998   */\n      mload\n        /* \"#utility.yul\":8963:8998   */\n      swap1\n      pop\n        /* \"#utility.yul\":8935:9012   */\n    tag_205:\n        /* \"#utility.yul\":9038:9105   */\n      tag_206\n        /* \"#utility.yul\":9098:9104   */\n      dup6\n        /* \"#utility.yul\":9091:9096   */\n      dup3\n        /* \"#utility.yul\":9038:9105   */\n      tag_102\n      jump\t// in\n    tag_206:\n        /* \"#utility.yul\":9032:9036   */\n      dup7\n        /* \"#utility.yul\":9025:9106   */\n      sstore\n        /* \"#utility.yul\":8894:9116   */\n      pop\n        /* \"#utility.yul\":8229:9116   */\n      jump(tag_203)\n        /* \"#utility.yul\":8259:8877   */\n    tag_204:\n        /* \"#utility.yul\":8311:8315   */\n      0x1f\n        /* \"#utility.yul\":8307:8316   */\n      not\n        /* \"#utility.yul\":8299:8305   */\n      dup5\n        /* \"#utility.yul\":8295:8317   */\n      and\n        /* \"#utility.yul\":8345:8382   */\n      tag_207\n        /* \"#utility.yul\":8377:8381   */\n      dup7\n        /* \"#utility.yul\":8345:8382   */\n      tag_88\n      jump\t// in\n    tag_207:\n        /* \"#utility.yul\":8404:8405   */\n      0x00\n        /* \"#utility.yul\":8418:8626   */\n    tag_208:\n        /* \"#utility.yul\":8432:8439   */\n      dup3\n        /* \"#utility.yul\":8429:8430   */\n      dup2\n        /* \"#utility.yul\":8426:8440   */\n      lt\n        /* \"#utility.yul\":8418:8626   */\n      iszero\n      tag_210\n      jumpi\n        /* \"#utility.yul\":8511:8520   */\n      dup5\n        /* \"#utility.yul\":8506:8509   */\n      dup10\n        /* \"#utility.yul\":8502:8521   */\n      add\n        /* \"#utility.yul\":8496:8522   */\n      mload\n        /* \"#utility.yul\":8488:8494   */\n      dup3\n        /* \"#utility.yul\":8481:8523   */\n      sstore\n        /* \"#utility.yul\":8562:8563   */\n      0x01\n        /* \"#utility.yul\":8554:8560   */\n      dup3\n        /* \"#utility.yul\":8550:8564   */\n      add\n        /* \"#utility.yul\":8540:8564   */\n      swap2\n      pop\n        /* \"#utility.yul\":8609:8611   */\n      0x20\n        /* \"#utility.yul\":8598:8607   */\n      dup6\n        /* \"#utility.yul\":8594:8612   */\n      add\n        /* \"#utility.yul\":8581:8612   */\n      swap5\n      pop\n        /* \"#utility.yul\":8455:8459   */\n      0x20\n        /* \"#utility.yul\":8452:8453   */\n      dup2\n        /* \"#utility.yul\":8448:8460   */\n      add\n        /* \"#utility.yul\":8443:8460   */\n      swap1\n      pop\n        /* \"#utility.yul\":8418:8626   */\n      jump(tag_208)\n    tag_210:\n        /* \"#utility.yul\":8654:8660   */\n      dup7\n        /* \"#utility.yul\":8645:8652   */\n      dup4\n        /* \"#utility.yul\":8642:8661   */\n      lt\n        /* \"#utility.yul\":8639:8818   */\n      iszero\n      tag_211\n      jumpi\n        /* \"#utility.yul\":8712:8721   */\n      dup5\n        /* \"#utility.yul\":8707:8710   */\n      dup10\n        /* \"#utility.yul\":8703:8722   */\n      add\n        /* \"#utility.yul\":8697:8723   */\n      mload\n        /* \"#utility.yul\":8755:8803   */\n      tag_212\n        /* \"#utility.yul\":8797:8801   */\n      0x1f\n        /* \"#utility.yul\":8789:8795   */\n      dup10\n        /* \"#utility.yul\":8785:8802   */\n      and\n        /* \"#utility.yul\":8774:8783   */\n      dup3\n        /* \"#utility.yul\":8755:8803   */\n      tag_101\n      jump\t// in\n    tag_212:\n        /* \"#utility.yul\":8747:8753   */\n      dup4\n        /* \"#utility.yul\":8740:8804   */\n      sstore\n        /* \"#utility.yul\":8662:8818   */\n      pop\n        /* \"#utility.yul\":8639:8818   */\n    tag_211:\n        /* \"#utility.yul\":8864:8865   */\n      0x01\n        /* \"#utility.yul\":8860:8861   */\n      0x02\n        /* \"#utility.yul\":8852:8858   */\n      dup9\n        /* \"#utility.yul\":8848:8862   */\n      mul\n        /* \"#utility.yul\":8844:8866   */\n      add\n        /* \"#utility.yul\":8838:8842   */\n      dup9\n        /* \"#utility.yul\":8831:8867   */\n      sstore\n        /* \"#utility.yul\":8266:8877   */\n      pop\n      pop\n      pop\n        /* \"#utility.yul\":8229:9116   */\n    tag_203:\n      pop\n        /* \"#utility.yul\":7819:9122   */\n      pop\n      pop\n      pop\n        /* \"#utility.yul\":7727:9122   */\n      pop\n      pop\n      jump\t// out\n        /* \"#utility.yul\":9128:9308   */\n    tag_64:\n        /* \"#utility.yul\":9176:9253   */\n      0x4e487b7100000000000000000000000000000000000000000000000000000000\n        /* \"#utility.yul\":9173:9174   */\n      0x00\n        /* \"#utility.yul\":9166:9254   */\n      mstore\n        /* \"#utility.yul\":9273:9277   */\n      0x32\n        /* \"#utility.yul\":9270:9271   */\n      0x04\n        /* \"#utility.yul\":9263:9278   */\n      mstore\n        /* \"#utility.yul\":9297:9301   */\n      0x24\n        /* \"#utility.yul\":9294:9295   */\n      0x00\n        /* \"#utility.yul\":9287:9302   */\n      revert\n        /* \"#utility.yul\":9314:9494   */\n    tag_103:\n        /* \"#utility.yul\":9362:9439   */\n      0x4e487b7100000000000000000000000000000000000000000000000000000000\n        /* \"#utility.yul\":9359:9360   */\n      0x00\n        /* \"#utility.yul\":9352:9440   */\n      mstore\n        /* \"#utility.yul\":9459:9463   */\n      0x11\n        /* \"#utility.yul\":9456:9457   */\n      0x04\n        /* \"#utility.yul\":9449:9464   */\n      mstore\n        /* \"#utility.yul\":9483:9487   */\n      0x24\n        /* \"#utility.yul\":9480:9481   */\n      0x00\n        /* \"#utility.yul\":9473:9488   */\n      revert\n        /* \"#utility.yul\":9500:9733   */\n    tag_67:\n        /* \"#utility.yul\":9539:9542   */\n      0x00\n        /* \"#utility.yul\":9562:9586   */\n      tag_216\n        /* \"#utility.yul\":9580:9585   */\n      dup3\n        /* \"#utility.yul\":9562:9586   */\n      tag_76\n      jump\t// in\n    tag_216:\n        /* \"#utility.yul\":9553:9586   */\n      swap2\n      pop\n        /* \"#utility.yul\":9608:9674   */\n      0xffffffffffffffffffffffffffffffffffffffffffffffffffffffffffffffff\n        /* \"#utility.yul\":9601:9606   */\n      dup3\n        /* \"#utility.yul\":9598:9675   */\n      sub\n        /* \"#utility.yul\":9595:9698   */\n      tag_217\n      jumpi\n        /* \"#utility.yul\":9678:9696   */\n      tag_218\n      tag_103\n      jump\t// in\n    tag_218:\n        /* \"#utility.yul\":9595:9698   */\n    tag_217:\n        /* \"#utility.yul\":9725:9726   */\n      0x01\n        /* \"#utility.yul\":9718:9723   */\n      dup3\n        /* \"#utility.yul\":9714:9727   */\n      add\n        /* \"#utility.yul\":9707:9727   */\n      swap1\n      pop\n        /* \"#utility.yul\":9500:9733   */\n      swap2\n      swap1\n      pop\n      jump\t// out\n\n    auxdata: 0xa2646970667358221220500ca7464da402dd72d903d31430c76816f410cb493c3fcc63246a9a58174e0764736f6c634300081e0033\n}\n",
				"bytecode": {
					"linkReferences": {},
					"object": "6080604052348015600e575f5ffd5b506109958061001c5f395ff3fe608060405234801561000f575f5ffd5b5060043610610060575f3560e01c806336cdcbc11461006457806338d94193146100945780633c6bb436146100c45780633fa4f245146100e25780639943d66914610100578063a92100cb14610130575b5f5ffd5b61007e600480360381019061007991906103f4565b61013a565b60405161008b9190610439565b60405180910390f35b6100ae60048036038101906100a99190610485565b610192565b6040516100bb91906104bf565b60405180910390f35b6100cc6101aa565b6040516100d99190610439565b60405180910390f35b6100ea6101bc565b6040516100f79190610548565b60405180910390f35b61011a600480360381019061011591906103f4565b610248565b6040516101279190610548565b60405180910390f35b61013861037d565b005b5f5f82131561016257600160075f6101000a81548160ff02191690831515021790555061017c565b5f60075f6101000a81548160ff0219169083151502179055505b60075f9054906101000a900460ff169050919050565b5f81600581106101a0575f80fd5b015f915090505481565b60075f9054906101000a900460ff1681565b600680546101c990610595565b80601f01602080910402602001604051908101604052809291908181526020018280546101f590610595565b80156102405780601f1061021757610100808354040283529160200191610240565b820191905f5260205f20905b81548152906001019060200180831161022357829003601f168201915b505050505081565b60605f60028361025891906105f2565b036102a7576040518060400160405280600481526020017f6576656e00000000000000000000000000000000000000000000000000000000815250600690816102a191906107ef565b506102ed565b6040518060400160405280600381526020017f6f64640000000000000000000000000000000000000000000000000000000000815250600690816102eb91906107ef565b505b600680546102fa90610595565b80601f016020809104026020016040519081016040528092919081815260200182805461032690610595565b80156103715780601f1061034857610100808354040283529160200191610371565b820191905f5260205f20905b81548152906001019060200180831161035457829003601f168201915b50505050509050919050565b5b6005545f60055460058110610396576103956108be565b5b018190555060055f8154809291906103ad90610918565b9190505550600580541061037e57565b5f5ffd5b5f819050919050565b6103d3816103c1565b81146103dd575f5ffd5b50565b5f813590506103ee816103ca565b92915050565b5f60208284031215610409576104086103bd565b5b5f610416848285016103e0565b91505092915050565b5f8115159050919050565b6104338161041f565b82525050565b5f60208201905061044c5f83018461042a565b92915050565b5f819050919050565b61046481610452565b811461046e575f5ffd5b50565b5f8135905061047f8161045b565b92915050565b5f6020828403121561049a576104996103bd565b5b5f6104a784828501610471565b91505092915050565b6104b981610452565b82525050565b5f6020820190506104d25f8301846104b0565b92915050565b5f81519050919050565b5f82825260208201905092915050565b8281835e5f83830152505050565b5f601f19601f8301169050919050565b5f61051a826104d8565b61052481856104e2565b93506105348185602086016104f2565b61053d81610500565b840191505092915050565b5f6020820190508181035f8301526105608184610510565b905092915050565b7f4e487b71000000000000000000000000000000000000000000000000000000005f52602260045260245ffd5b5f60028204905060018216806105ac57607f821691505b6020821081036105bf576105be610568565b5b50919050565b7f4e487b71000000000000000000000000000000000000000000000000000000005f52601260045260245ffd5b5f6105fc826103c1565b9150610607836103c1565b925082610617576106166105c5565b5b828207905092915050565b7f4e487b71000000000000000000000000000000000000000000000000000000005f52604160045260245ffd5b5f819050815f5260205f209050919050565b5f6020601f8301049050919050565b5f82821b905092915050565b5f600883026106ab7fffffffffffffffffffffffffffffffffffffffffffffffffffffffffffffffff82610670565b6106b58683610670565b95508019841693508086168417925050509392505050565b5f819050919050565b5f6106f06106eb6106e684610452565b6106cd565b610452565b9050919050565b5f819050919050565b610709836106d6565b61071d610715826106f7565b84845461067c565b825550505050565b5f5f905090565b610734610725565b61073f818484610700565b505050565b5b81811015610762576107575f8261072c565b600181019050610745565b5050565b601f8211156107a7576107788161064f565b61078184610661565b81016020851015610790578190505b6107a461079c85610661565b830182610744565b50505b505050565b5f82821c905092915050565b5f6107c75f19846008026107ac565b1980831691505092915050565b5f6107df83836107b8565b9150826002028217905092915050565b6107f8826104d8565b67ffffffffffffffff81111561081157610810610622565b5b61081b8254610595565b610826828285610766565b5f60209050601f831160018114610857575f8415610845578287015190505b61084f85826107d4565b8655506108b6565b601f1984166108658661064f565b5f5b8281101561088c57848901518255600182019150602085019450602081019050610867565b868310156108a957848901516108a5601f8916826107b8565b8355505b6001600288020188555050505b505050505050565b7f4e487b71000000000000000000000000000000000000000000000000000000005f52603260045260245ffd5b7f4e487b71000000000000000000000000000000000000000000000000000000005f52601160045260245ffd5b5f61092282610452565b91507fffffffffffffffffffffffffffffffffffffffffffffffffffffffffffffffff8203610954576109536108eb565b5b60018201905091905056fea2646970667358221220500ca7464da402dd72d903d31430c76816f410cb493c3fcc63246a9a58174e0764736f6c634300081e0033",
					"opcodes": "PUSH1 0x80 PUSH1 0x40 MSTORE CALLVALUE DUP1 ISZERO PUSH1 0xE JUMPI PUSH0 PUSH0 REVERT JUMPDEST POP PUSH2 0x995 DUP1 PUSH2 0x1C PUSH0 CODECOPY PUSH0 RETURN INVALID PUSH1 0x80 PUSH1 0x40 MSTORE CALLVALUE DUP1 ISZERO PUSH2 0xF JUMPI PUSH0 PUSH0 REVERT JUMPDEST POP PUSH1 0x4 CALLDATASIZE LT PUSH2 0x60 JUMPI PUSH0 CALLDATALOAD PUSH1 0xE0 SHR DUP1 PUSH4 0x36CDCBC1 EQ PUSH2 0x64 JUMPI DUP1 PUSH4 0x38D94193 EQ PUSH2 0x94 JUMPI DUP1 PUSH4 0x3C6BB436 EQ PUSH2 0xC4 JUMPI DUP1 PUSH4 0x3FA4F245 EQ PUSH2 0xE2 JUMPI DUP1 PUSH4 0x9943D669 EQ PUSH2 0x100 JUMPI DUP1 PUSH4 0xA92100CB EQ PUSH2 0x130 JUMPI JUMPDEST PUSH0 PUSH0 REVERT JUMPDEST PUSH2 0x7E PUSH1 0x4 DUP1 CALLDATASIZE SUB DUP2 ADD SWAP1 PUSH2 0x79 SWAP2 SWAP1 PUSH2 0x3F4 JUMP JUMPDEST PUSH2 0x13A JUMP JUMPDEST PUSH1 0x40 MLOAD PUSH2 0x8B SWAP2 SWAP1 PUSH2 0x439 JUMP JUMPDEST PUSH1 0x40 MLOAD DUP1 SWAP2 SUB SWAP1 RETURN JUMPDEST PUSH2 0xAE PUSH1 0x4 DUP1 CALLDATASIZE SUB DUP2 ADD SWAP1 PUSH2 0xA9 SWAP2 SWAP1 PUSH2 0x485 JUMP JUMPDEST PUSH2 0x192 JUMP JUMPDEST PUSH1 0x40 MLOAD PUSH2 0xBB SWAP2 SWAP1 PUSH2 0x4BF JUMP JUMPDEST PUSH1 0x40 MLOAD DUP1 SWAP2 SUB SWAP1 RETURN JUMPDEST PUSH2 0xCC PUSH2 0x1AA JUMP JUMPDEST PUSH1 0x40 MLOAD PUSH2 0xD9 SWAP2 SWAP1 PUSH2 0x439 JUMP JUMPDEST PUSH1 0x40 MLOAD DUP1 SWAP2 SUB SWAP1 RETURN JUMPDEST PUSH2 0xEA PUSH2 0x1BC JUMP JUMPDEST PUSH1 0x40 MLOAD PUSH2 0xF7 SWAP2 SWAP1 PUSH2 0x548 JUMP JUMPDEST PUSH1 0x40 MLOAD DUP1 SWAP2 SUB SWAP1 RETURN JUMPDEST PUSH2 0x11A PUSH1 0x4 DUP1 CALLDATASIZE SUB DUP2 ADD SWAP1 PUSH2 0x115 SWAP2 SWAP1 PUSH2 0x3F4 JUMP JUMPDEST PUSH2 0x248 JUMP JUMPDEST PUSH1 0x40 MLOAD PUSH2 0x127 SWAP2 SWAP1 PUSH2 0x548 JUMP JUMPDEST PUSH1 0x40 MLOAD DUP1 SWAP2 SUB SWAP1 RETURN JUMPDEST PUSH2 0x138 PUSH2 0x37D JUMP JUMPDEST STOP JUMPDEST PUSH0 PUSH0 DUP3 SGT ISZERO PUSH2 0x162 JUMPI PUSH1 0x1 PUSH1 0x7 PUSH0 PUSH2 0x100 EXP DUP2 SLOAD DUP2 PUSH1 0xFF MUL NOT AND SWAP1 DUP4 ISZERO ISZERO MUL OR SWAP1 SSTORE POP PUSH2 0x17C JUMP JUMPDEST PUSH0 PUSH1 0x7 PUSH0 PUSH2 0x100 EXP DUP2 SLOAD DUP2 PUSH1 0xFF MUL NOT AND SWAP1 DUP4 ISZERO ISZERO MUL OR SWAP1 SSTORE POP JUMPDEST PUSH1 0x7 PUSH0 SWAP1 SLOAD SWAP1 PUSH2 0x100 EXP SWAP1 DIV PUSH1 0xFF AND SWAP1 POP SWAP2 SWAP1 POP JUMP JUMPDEST PUSH0 DUP2 PUSH1 0x5 DUP2 LT PUSH2 0x1A0 JUMPI PUSH0 DUP1 REVERT JUMPDEST ADD PUSH0 SWAP2 POP SWAP1 POP SLOAD DUP2 JUMP JUMPDEST PUSH1 0x7 PUSH0 SWAP1 SLOAD SWAP1 PUSH2 0x100 EXP SWAP1 DIV PUSH1 0xFF AND DUP2 JUMP JUMPDEST PUSH1 0x6 DUP1 SLOAD PUSH2 0x1C9 SWAP1 PUSH2 0x595 JUMP JUMPDEST DUP1 PUSH1 0x1F ADD PUSH1 0x20 DUP1 SWAP2 DIV MUL PUSH1 0x20 ADD PUSH1 0x40 MLOAD SWAP1 DUP2 ADD PUSH1 0x40 MSTORE DUP1 SWAP3 SWAP2 SWAP1 DUP2 DUP2 MSTORE PUSH1 0x20 ADD DUP3 DUP1 SLOAD PUSH2 0x1F5 SWAP1 PUSH2 0x595 JUMP JUMPDEST DUP1 ISZERO PUSH2 0x240 JUMPI DUP1 PUSH1 0x1F LT PUSH2 0x217 JUMPI PUSH2 0x100 DUP1 DUP4 SLOAD DIV MUL DUP4 MSTORE SWAP2 PUSH1 0x20 ADD SWAP2 PUSH2 0x240 JUMP JUMPDEST DUP3 ADD SWAP2 SWAP1 PUSH0 MSTORE PUSH1 0x20 PUSH0 KECCAK256 SWAP1 JUMPDEST DUP2 SLOAD DUP2 MSTORE SWAP1 PUSH1 0x1 ADD SWAP1 PUSH1 0x20 ADD DUP1 DUP4 GT PUSH2 0x223 JUMPI DUP3 SWAP1 SUB PUSH1 0x1F AND DUP3 ADD SWAP2 JUMPDEST POP POP POP POP POP DUP2 JUMP JUMPDEST PUSH1 0x60 PUSH0 PUSH1 0x2 DUP4 PUSH2 0x258 SWAP2 SWAP1 PUSH2 0x5F2 JUMP JUMPDEST SUB PUSH2 0x2A7 JUMPI PUSH1 0x40 MLOAD DUP1 PUSH1 0x40 ADD PUSH1 0x40 MSTORE DUP1 PUSH1 0x4 DUP2 MSTORE PUSH1 0x20 ADD PUSH32 0x6576656E00000000000000000000000000000000000000000000000000000000 DUP2 MSTORE POP PUSH1 0x6 SWAP1 DUP2 PUSH2 0x2A1 SWAP2 SWAP1 PUSH2 0x7EF JUMP JUMPDEST POP PUSH2 0x2ED JUMP JUMPDEST PUSH1 0x40 MLOAD DUP1 PUSH1 0x40 ADD PUSH1 0x40 MSTORE DUP1 PUSH1 0x3 DUP2 MSTORE PUSH1 0x20 ADD PUSH32 0x6F64640000000000000000000000000000000000000000000000000000000000 DUP2 MSTORE POP PUSH1 0x6 SWAP1 DUP2 PUSH2 0x2EB SWAP2 SWAP1 PUSH2 0x7EF JUMP JUMPDEST POP JUMPDEST PUSH1 0x6 DUP1 SLOAD PUSH2 0x2FA SWAP1 PUSH2 0x595 JUMP JUMPDEST DUP1 PUSH1 0x1F ADD PUSH1 0x20 DUP1 SWAP2 DIV MUL PUSH1 0x20 ADD PUSH1 0x40 MLOAD SWAP1 DUP2 ADD PUSH1 0x40 MSTORE DUP1 SWAP3 SWAP2 SWAP1 DUP2 DUP2 MSTORE PUSH1 0x20 ADD DUP3 DUP1 SLOAD PUSH2 0x326 SWAP1 PUSH2 0x595 JUMP JUMPDEST DUP1 ISZERO PUSH2 0x371 JUMPI DUP1 PUSH1 0x1F LT PUSH2 0x348 JUMPI PUSH2 0x100 DUP1 DUP4 SLOAD DIV MUL DUP4 MSTORE SWAP2 PUSH1 0x20 ADD SWAP2 PUSH2 0x371 JUMP JUMPDEST DUP3 ADD SWAP2 SWAP1 PUSH0 MSTORE PUSH1 0x20 PUSH0 KECCAK256 SWAP1 JUMPDEST DUP2 SLOAD DUP2 MSTORE SWAP1 PUSH1 0x1 ADD SWAP1 PUSH1 0x20 ADD DUP1 DUP4 GT PUSH2 0x354 JUMPI DUP3 SWAP1 SUB PUSH1 0x1F AND DUP3 ADD SWAP2 JUMPDEST POP POP POP POP POP SWAP1 POP SWAP2 SWAP1 POP JUMP JUMPDEST JUMPDEST PUSH1 0x5 SLOAD PUSH0 PUSH1 0x5 SLOAD PUSH1 0x5 DUP2 LT PUSH2 0x396 JUMPI PUSH2 0x395 PUSH2 0x8BE JUMP JUMPDEST JUMPDEST ADD DUP2 SWAP1 SSTORE POP PUSH1 0x5 PUSH0 DUP2 SLOAD DUP1 SWAP3 SWAP2 SWAP1 PUSH2 0x3AD SWAP1 PUSH2 0x918 JUMP JUMPDEST SWAP2 SWAP1 POP SSTORE POP PUSH1 0x5 DUP1 SLOAD LT PUSH2 0x37E JUMPI JUMP JUMPDEST PUSH0 PUSH0 REVERT JUMPDEST PUSH0 DUP2 SWAP1 POP SWAP2 SWAP1 POP JUMP JUMPDEST PUSH2 0x3D3 DUP2 PUSH2 0x3C1 JUMP JUMPDEST DUP2 EQ PUSH2 0x3DD JUMPI PUSH0 PUSH0 REVERT JUMPDEST POP JUMP JUMPDEST PUSH0 DUP2 CALLDATALOAD SWAP1 POP PUSH2 0x3EE DUP2 PUSH2 0x3CA JUMP JUMPDEST SWAP3 SWAP2 POP POP JUMP JUMPDEST PUSH0 PUSH1 0x20 DUP3 DUP5 SUB SLT ISZERO PUSH2 0x409 JUMPI PUSH2 0x408 PUSH2 0x3BD JUMP JUMPDEST JUMPDEST PUSH0 PUSH2 0x416 DUP5 DUP3 DUP6 ADD PUSH2 0x3E0 JUMP JUMPDEST SWAP2 POP POP SWAP3 SWAP2 POP POP JUMP JUMPDEST PUSH0 DUP2 ISZERO ISZERO SWAP1 POP SWAP2 SWAP1 POP JUMP JUMPDEST PUSH2 0x433 DUP2 PUSH2 0x41F JUMP JUMPDEST DUP3 MSTORE POP POP JUMP JUMPDEST PUSH0 PUSH1 0x20 DUP3 ADD SWAP1 POP PUSH2 0x44C PUSH0 DUP4 ADD DUP5 PUSH2 0x42A JUMP JUMPDEST SWAP3 SWAP2 POP POP JUMP JUMPDEST PUSH0 DUP2 SWAP1 POP SWAP2 SWAP1 POP JUMP JUMPDEST PUSH2 0x464 DUP2 PUSH2 0x452 JUMP JUMPDEST DUP2 EQ PUSH2 0x46E JUMPI PUSH0 PUSH0 REVERT JUMPDEST POP JUMP JUMPDEST PUSH0 DUP2 CALLDATALOAD SWAP1 POP PUSH2 0x47F DUP2 PUSH2 0x45B JUMP JUMPDEST SWAP3 SWAP2 POP POP JUMP JUMPDEST PUSH0 PUSH1 0x20 DUP3 DUP5 SUB SLT ISZERO PUSH2 0x49A JUMPI PUSH2 0x499 PUSH2 0x3BD JUMP JUMPDEST JUMPDEST PUSH0 PUSH2 0x4A7 DUP5 DUP3 DUP6 ADD PUSH2 0x471 JUMP JUMPDEST SWAP2 POP POP SWAP3 SWAP2 POP POP JUMP JUMPDEST PUSH2 0x4B9 DUP2 PUSH2 0x452 JUMP JUMPDEST DUP3 MSTORE POP POP JUMP JUMPDEST PUSH0 PUSH1 0x20 DUP3 ADD SWAP1 POP PUSH2 0x4D2 PUSH0 DUP4 ADD DUP5 PUSH2 0x4B0 JUMP JUMPDEST SWAP3 SWAP2 POP POP JUMP JUMPDEST PUSH0 DUP2 MLOAD SWAP1 POP SWAP2 SWAP1 POP JUMP JUMPDEST PUSH0 DUP3 DUP3 MSTORE PUSH1 0x20 DUP3 ADD SWAP1 POP SWAP3 SWAP2 POP POP JUMP JUMPDEST DUP3 DUP2 DUP4 MCOPY PUSH0 DUP4 DUP4 ADD MSTORE POP POP POP JUMP JUMPDEST PUSH0 PUSH1 0x1F NOT PUSH1 0x1F DUP4 ADD AND SWAP1 POP SWAP2 SWAP1 POP JUMP JUMPDEST PUSH0 PUSH2 0x51A DUP3 PUSH2 0x4D8 JUMP JUMPDEST PUSH2 0x524 DUP2 DUP6 PUSH2 0x4E2 JUMP JUMPDEST SWAP4 POP PUSH2 0x534 DUP2 DUP6 PUSH1 0x20 DUP7 ADD PUSH2 0x4F2 JUMP JUMPDEST PUSH2 0x53D DUP2 PUSH2 0x500 JUMP JUMPDEST DUP5 ADD SWAP2 POP POP SWAP3 SWAP2 POP POP JUMP JUMPDEST PUSH0 PUSH1 0x20 DUP3 ADD SWAP1 POP DUP2 DUP2 SUB PUSH0 DUP4 ADD MSTORE PUSH2 0x560 DUP2 DUP5 PUSH2 0x510 JUMP JUMPDEST SWAP1 POP SWAP3 SWAP2 POP POP JUMP JUMPDEST PUSH32 0x4E487B7100000000000000000000000000000000000000000000000000000000 PUSH0 MSTORE PUSH1 0x22 PUSH1 0x4 MSTORE PUSH1 0x24 PUSH0 REVERT JUMPDEST PUSH0 PUSH1 0x2 DUP3 DIV SWAP1 POP PUSH1 0x1 DUP3 AND DUP1 PUSH2 0x5AC JUMPI PUSH1 0x7F DUP3 AND SWAP2 POP JUMPDEST PUSH1 0x20 DUP3 LT DUP2 SUB PUSH2 0x5BF JUMPI PUSH2 0x5BE PUSH2 0x568 JUMP JUMPDEST JUMPDEST POP SWAP2 SWAP1 POP JUMP JUMPDEST PUSH32 0x4E487B7100000000000000000000000000000000000000000000000000000000 PUSH0 MSTORE PUSH1 0x12 PUSH1 0x4 MSTORE PUSH1 0x24 PUSH0 REVERT JUMPDEST PUSH0 PUSH2 0x5FC DUP3 PUSH2 0x3C1 JUMP JUMPDEST SWAP2 POP PUSH2 0x607 DUP4 PUSH2 0x3C1 JUMP JUMPDEST SWAP3 POP DUP3 PUSH2 0x617 JUMPI PUSH2 0x616 PUSH2 0x5C5 JUMP JUMPDEST JUMPDEST DUP3 DUP3 SMOD SWAP1 POP SWAP3 SWAP2 POP POP JUMP JUMPDEST PUSH32 0x4E487B7100000000000000000000000000000000000000000000000000000000 PUSH0 MSTORE PUSH1 0x41 PUSH1 0x4 MSTORE PUSH1 0x24 PUSH0 REVERT JUMPDEST PUSH0 DUP2 SWAP1 POP DUP2 PUSH0 MSTORE PUSH1 0x20 PUSH0 KECCAK256 SWAP1 POP SWAP2 SWAP1 POP JUMP JUMPDEST PUSH0 PUSH1 0x20 PUSH1 0x1F DUP4 ADD DIV SWAP1 POP SWAP2 SWAP1 POP JUMP JUMPDEST PUSH0 DUP3 DUP3 SHL SWAP1 POP SWAP3 SWAP2 POP POP JUMP JUMPDEST PUSH0 PUSH1 0x8 DUP4 MUL PUSH2 0x6AB PUSH32 0xFFFFFFFFFFFFFFFFFFFFFFFFFFFFFFFFFFFFFFFFFFFFFFFFFFFFFFFFFFFFFFFF DUP3 PUSH2 0x670 JUMP JUMPDEST PUSH2 0x6B5 DUP7 DUP4 PUSH2 0x670 JUMP JUMPDEST SWAP6 POP DUP1 NOT DUP5 AND SWAP4 POP DUP1 DUP7 AND DUP5 OR SWAP3 POP POP POP SWAP4 SWAP3 POP POP POP JUMP JUMPDEST PUSH0 DUP2 SWAP1 POP SWAP2 SWAP1 POP JUMP JUMPDEST PUSH0 PUSH2 0x6F0 PUSH2 0x6EB PUSH2 0x6E6 DUP5 PUSH2 0x452 JUMP JUMPDEST PUSH2 0x6CD JUMP JUMPDEST PUSH2 0x452 JUMP JUMPDEST SWAP1 POP SWAP2 SWAP1 POP JUMP JUMPDEST PUSH0 DUP2 SWAP1 POP SWAP2 SWAP1 POP JUMP JUMPDEST PUSH2 0x709 DUP4 PUSH2 0x6D6 JUMP JUMPDEST PUSH2 0x71D PUSH2 0x715 DUP3 PUSH2 0x6F7 JUMP JUMPDEST DUP5 DUP5 SLOAD PUSH2 0x67C JUMP JUMPDEST DUP3 SSTORE POP POP POP POP JUMP JUMPDEST PUSH0 PUSH0 SWAP1 POP SWAP1 JUMP JUMPDEST PUSH2 0x734 PUSH2 0x725 JUMP JUMPDEST PUSH2 0x73F DUP2 DUP5 DUP5 PUSH2 0x700 JUMP JUMPDEST POP POP POP JUMP JUMPDEST JUMPDEST DUP2 DUP2 LT ISZERO PUSH2 0x762 JUMPI PUSH2 0x757 PUSH0 DUP3 PUSH2 0x72C JUMP JUMPDEST PUSH1 0x1 DUP2 ADD SWAP1 POP PUSH2 0x745 JUMP JUMPDEST POP POP JUMP JUMPDEST PUSH1 0x1F DUP3 GT ISZERO PUSH2 0x7A7 JUMPI PUSH2 0x778 DUP2 PUSH2 0x64F JUMP JUMPDEST PUSH2 0x781 DUP5 PUSH2 0x661 JUMP JUMPDEST DUP2 ADD PUSH1 0x20 DUP6 LT ISZERO PUSH2 0x790 JUMPI DUP2 SWAP1 POP JUMPDEST PUSH2 0x7A4 PUSH2 0x79C DUP6 PUSH2 0x661 JUMP JUMPDEST DUP4 ADD DUP3 PUSH2 0x744 JUMP JUMPDEST POP POP JUMPDEST POP POP POP JUMP JUMPDEST PUSH0 DUP3 DUP3 SHR SWAP1 POP SWAP3 SWAP2 POP POP JUMP JUMPDEST PUSH0 PUSH2 0x7C7 PUSH0 NOT DUP5 PUSH1 0x8 MUL PUSH2 0x7AC JUMP JUMPDEST NOT DUP1 DUP4 AND SWAP2 POP POP SWAP3 SWAP2 POP POP JUMP JUMPDEST PUSH0 PUSH2 0x7DF DUP4 DUP4 PUSH2 0x7B8 JUMP JUMPDEST SWAP2 POP DUP3 PUSH1 0x2 MUL DUP3 OR SWAP1 POP SWAP3 SWAP2 POP POP JUMP JUMPDEST PUSH2 0x7F8 DUP3 PUSH2 0x4D8 JUMP JUMPDEST PUSH8 0xFFFFFFFFFFFFFFFF DUP2 GT ISZERO PUSH2 0x811 JUMPI PUSH2 0x810 PUSH2 0x622 JUMP JUMPDEST JUMPDEST PUSH2 0x81B DUP3 SLOAD PUSH2 0x595 JUMP JUMPDEST PUSH2 0x826 DUP3 DUP3 DUP6 PUSH2 0x766 JUMP JUMPDEST PUSH0 PUSH1 0x20 SWAP1 POP PUSH1 0x1F DUP4 GT PUSH1 0x1 DUP2 EQ PUSH2 0x857 JUMPI PUSH0 DUP5 ISZERO PUSH2 0x845 JUMPI DUP3 DUP8 ADD MLOAD SWAP1 POP JUMPDEST PUSH2 0x84F DUP6 DUP3 PUSH2 0x7D4 JUMP JUMPDEST DUP7 SSTORE POP PUSH2 0x8B6 JUMP JUMPDEST PUSH1 0x1F NOT DUP5 AND PUSH2 0x865 DUP7 PUSH2 0x64F JUMP JUMPDEST PUSH0 JUMPDEST DUP3 DUP2 LT ISZERO PUSH2 0x88C JUMPI DUP5 DUP10 ADD MLOAD DUP3 SSTORE PUSH1 0x1 DUP3 ADD SWAP2 POP PUSH1 0x20 DUP6 ADD SWAP5 POP PUSH1 0x20 DUP2 ADD SWAP1 POP PUSH2 0x867 JUMP JUMPDEST DUP7 DUP4 LT ISZERO PUSH2 0x8A9 JUMPI DUP5 DUP10 ADD MLOAD PUSH2 0x8A5 PUSH1 0x1F DUP10 AND DUP3 PUSH2 0x7B8 JUMP JUMPDEST DUP4 SSTORE POP JUMPDEST PUSH1 0x1 PUSH1 0x2 DUP9 MUL ADD DUP9 SSTORE POP POP POP JUMPDEST POP POP POP POP POP POP JUMP JUMPDEST PUSH32 0x4E487B7100000000000000000000000000000000000000000000000000000000 PUSH0 MSTORE PUSH1 0x32 PUSH1 0x4 MSTORE PUSH1 0x24 PUSH0 REVERT JUMPDEST PUSH32 0x4E487B7100000000000000000000000000000000000000000000000000000000 PUSH0 MSTORE PUSH1 0x11 PUSH1 0x4 MSTORE PUSH1 0x24 PUSH0 REVERT JUMPDEST PUSH0 PUSH2 0x922 DUP3 PUSH2 0x452 JUMP JUMPDEST SWAP2 POP PUSH32 0xFFFFFFFFFFFFFFFFFFFFFFFFFFFFFFFFFFFFFFFFFFFFFFFFFFFFFFFFFFFFFFFF DUP3 SUB PUSH2 0x954 JUMPI PUSH2 0x953 PUSH2 0x8EB JUMP JUMPDEST JUMPDEST PUSH1 0x1 DUP3 ADD SWAP1 POP SWAP2 SWAP1 POP JUMP INVALID LOG2 PUSH5 0x6970667358 0x22 SLT KECCAK256 POP 0xC 0xA7 CHAINID 0x4D LOG4 MUL 0xDD PUSH19 0xD903D31430C76816F410CB493C3FCC63246A9A PC OR 0x4E SMOD PUSH5 0x736F6C6343 STOP ADDMOD 0x1E STOP CALLER "
				},
				"gasEstimates": {
					"creation": {
						"codeDepositCost": "490600",
						"executionCost": "522",
						"totalCost": "491122"
					},
					"external": {
						"array(uint256)": "infinite",
						"check(int256)": "infinite",
						"check2(int256)": "27014",
						"loop()": "infinite",
						"val()": "2488",
						"value()": "infinite"
					}
				},
				"methodIdentifiers": {
					"array(uint256)": "38d94193",
					"check(int256)": "9943d669",
					"check2(int256)": "36cdcbc1",
					"loop()": "a92100cb",
					"val()": "3c6bb436",
					"value()": "3fa4f245"
				}
			},
			"storageLayout": {
				"storage": [
					{
						"astId": 5,
						"contract": "Loops.sol:Loops",
						"label": "array",
						"offset": 0,
						"slot": "0",
						"type": "t_array(t_uint256)5_storage"
					},
					{
						"astId": 7,
						"contract": "Loops.sol:Loops",
						"label": "count",
						"offset": 0,
						"slot": "5",
						"type": "t_uint256"
					},
					{
						"astId": 28,
						"contract": "Loops.sol:Loops",
						"label": "value",
						"offset": 0,
						"slot": "6",
						"type": "t_string_storage"
					},
					{
						"astId": 56,
						"contract": "Loops.sol:Loops",
						"label": "val",
						"offset": 0,
						"slot": "7",
						"type": "t_bool"
					}
				],
				"types": {
					"t_array(t_uint256)5_storage": {
						"base": "t_uint256",
						"encoding": "inplace",
						"label": "uint256[5]",
						"numberOfBytes": "160"
					},
					"t_bool": {
						"encoding": "inplace",
						"label": "bool",
						"numberOfBytes": "1"
					},
					"t_string_storage": {
						"encoding": "bytes",
						"label": "string",
						"numberOfBytes": "32"
					},
					"t_uint256": {
						"encoding": "inplace",
						"label": "uint256",
						"numberOfBytes": "32"
					}
				}
			},
			"userdoc": {
				"kind": "user",
				"methods": {},
				"version": 1
			}
		}
	}
}