{
	"Functions.sol": {
		"Functions": {
			"abi": [
				{
					"inputs": [],
					"name": "getAge",
					"outputs": [
						{
							"internalType": "uint256",
							"name": "",
							"type": "uint256"
						}
					],
					"stateMutability": "view",
					"type": "function"
				},
				{
					"inputs": [],
					"name": "getName",
					"outputs": [
						{
							"internalType": "string",
							"name": "",
							"type": "string"
						}
					],
					"stateMutability": "view",
					"type": "function"
				},
				{
					"inputs": [],
					"name": "sayName",
					"outputs": [
						{
							"internalType": "string",
							"name": "",
							"type": "string"
						}
					],
					"stateMutability": "pure",
					"type": "function"
				},
				{
					"inputs": [
						{
							"internalType": "string",
							"name": "newname",
							"type": "string"
						}
					],
					"name": "setName",
					"outputs": [],
					"stateMutability": "nonpayable",
					"type": "function"
				}
			],
			"devdoc": {
				"kind": "dev",
				"methods": {},
				"version": 1
			},
			"evm": {
				"assembly": "    /* \"Functions.sol\":134:2028  contract Functions{\r... */\n  mstore(0x40, 0x80)\n    /* \"Functions.sol\":159:182  string name = \"Kashish\" */\n  mload(0x40)\n  dup1\n  0x40\n  add\n  0x40\n  mstore\n  dup1\n  0x07\n  dup2\n  mstore\n  0x20\n  add\n  0x4b61736869736800000000000000000000000000000000000000000000000000\n  dup2\n  mstore\n  pop\n  0x00\n  swap1\n  dup1\n  mload\n  swap1\n  0x20\n  add\n  swap1\n  tag_1\n  swap3\n  swap2\n  swap1\n  tag_2\n  jump\t// in\ntag_1:\n  pop\n    /* \"Functions.sol\":340:342  20 */\n  0x14\n    /* \"Functions.sol\":329:342  uint age = 20 */\n  0x01\n  sstore\n    /* \"Functions.sol\":134:2028  contract Functions{\r... */\n  callvalue\n  dup1\n  iszero\n  tag_3\n  jumpi\n  0x00\n  dup1\n  revert\ntag_3:\n  pop\n  jump(tag_4)\ntag_2:\n  dup3\n  dup1\n  sload\n  tag_5\n  swap1\n  tag_6\n  jump\t// in\ntag_5:\n  swap1\n  0x00\n  mstore\n  keccak256(0x00, 0x20)\n  swap1\n  0x1f\n  add\n  0x20\n  swap1\n  div\n  dup2\n  add\n  swap3\n  dup3\n  tag_8\n  jumpi\n  0x00\n  dup6\n  sstore\n  jump(tag_7)\ntag_8:\n  dup3\n  0x1f\n  lt\n  tag_9\n  jumpi\n  dup1\n  mload\n  not(0xff)\n  and\n  dup4\n  dup1\n  add\n  or\n  dup6\n  sstore\n  jump(tag_7)\ntag_9:\n  dup3\n  dup1\n  add\n  0x01\n  add\n  dup6\n  sstore\n  dup3\n  iszero\n  tag_7\n  jumpi\n  swap2\n  dup3\n  add\ntag_10:\n  dup3\n  dup2\n  gt\n  iszero\n  tag_11\n  jumpi\n  dup3\n  mload\n  dup3\n  sstore\n  swap2\n  0x20\n  add\n  swap2\n  swap1\n  0x01\n  add\n  swap1\n  jump(tag_10)\ntag_11:\ntag_7:\n  pop\n  swap1\n  pop\n  tag_12\n  swap2\n  swap1\n  tag_13\n  jump\t// in\ntag_12:\n  pop\n  swap1\n  jump\t// out\ntag_13:\ntag_14:\n  dup1\n  dup3\n  gt\n  iszero\n  tag_15\n  jumpi\n  0x00\n  dup2\n  0x00\n  swap1\n  sstore\n  pop\n  0x01\n  add\n  jump(tag_14)\ntag_15:\n  pop\n  swap1\n  jump\t// out\n    /* \"#utility.yul\":7:327   */\ntag_6:\n  0x00\n    /* \"#utility.yul\":88:89   */\n  0x02\n    /* \"#utility.yul\":82:86   */\n  dup3\n    /* \"#utility.yul\":78:90   */\n  div\n    /* \"#utility.yul\":68:90   */\n  swap1\n  pop\n    /* \"#utility.yul\":135:136   */\n  0x01\n    /* \"#utility.yul\":129:133   */\n  dup3\n    /* \"#utility.yul\":125:137   */\n  and\n    /* \"#utility.yul\":156:174   */\n  dup1\n    /* \"#utility.yul\":146:148   */\n  tag_18\n  jumpi\n    /* \"#utility.yul\":212:216   */\n  0x7f\n    /* \"#utility.yul\":204:210   */\n  dup3\n    /* \"#utility.yul\":200:217   */\n  and\n    /* \"#utility.yul\":190:217   */\n  swap2\n  pop\n    /* \"#utility.yul\":146:148   */\ntag_18:\n    /* \"#utility.yul\":274:276   */\n  0x20\n    /* \"#utility.yul\":266:272   */\n  dup3\n    /* \"#utility.yul\":263:277   */\n  lt\n    /* \"#utility.yul\":243:261   */\n  dup2\n    /* \"#utility.yul\":240:278   */\n  eq\n    /* \"#utility.yul\":237:239   */\n  iszero\n  tag_19\n  jumpi\n    /* \"#utility.yul\":293:311   */\n  tag_20\n  tag_21\n  jump\t// in\ntag_20:\n    /* \"#utility.yul\":237:239   */\ntag_19:\n    /* \"#utility.yul\":58:327   */\n  pop\n  swap2\n  swap1\n  pop\n  jump\t// out\n    /* \"#utility.yul\":333:513   */\ntag_21:\n    /* \"#utility.yul\":381:458   */\n  0x4e487b7100000000000000000000000000000000000000000000000000000000\n    /* \"#utility.yul\":378:379   */\n  0x00\n    /* \"#utility.yul\":371:459   */\n  mstore\n    /* \"#utility.yul\":478:482   */\n  0x22\n    /* \"#utility.yul\":475:476   */\n  0x04\n    /* \"#utility.yul\":468:483   */\n  mstore\n    /* \"#utility.yul\":502:506   */\n  0x24\n    /* \"#utility.yul\":499:500   */\n  0x00\n    /* \"#utility.yul\":492:507   */\n  revert\n    /* \"Functions.sol\":134:2028  contract Functions{\r... */\ntag_4:\n  dataSize(sub_0)\n  dup1\n  dataOffset(sub_0)\n  0x00\n  codecopy\n  0x00\n  return\nstop\n\nsub_0: assembly {\n        /* \"Functions.sol\":134:2028  contract Functions{\r... */\n      mstore(0x40, 0x80)\n      callvalue\n      dup1\n      iszero\n      tag_1\n      jumpi\n      0x00\n      dup1\n      revert\n    tag_1:\n      pop\n      jumpi(tag_2, lt(calldatasize, 0x04))\n      shr(0xe0, calldataload(0x00))\n      dup1\n      0x17d7de7c\n      eq\n      tag_3\n      jumpi\n      dup1\n      0x456e64cb\n      eq\n      tag_4\n      jumpi\n      dup1\n      0x967e6e65\n      eq\n      tag_5\n      jumpi\n      dup1\n      0xc47f0027\n      eq\n      tag_6\n      jumpi\n    tag_2:\n      0x00\n      dup1\n      revert\n        /* \"Functions.sol\":571:740  function getName() public view returns (string memory) {  // view -> just to see the value of state variable -> you don't want to modify it\r... */\n    tag_3:\n      tag_7\n      tag_8\n      jump\t// in\n    tag_7:\n      mload(0x40)\n      tag_9\n      swap2\n      swap1\n      tag_10\n      jump\t// in\n    tag_9:\n      mload(0x40)\n      dup1\n      swap2\n      sub\n      swap1\n      return\n        /* \"Functions.sol\":1790:2021  function sayName() public pure returns (string memory){\r... */\n    tag_4:\n      tag_11\n      tag_12\n      jump\t// in\n    tag_11:\n      mload(0x40)\n      tag_13\n      swap2\n      swap1\n      tag_10\n      jump\t// in\n    tag_13:\n      mload(0x40)\n      dup1\n      swap2\n      sub\n      swap1\n      return\n        /* \"Functions.sol\":1600:1782  function getAge() public view returns (uint){\r... */\n    tag_5:\n      tag_14\n      tag_15\n      jump\t// in\n    tag_14:\n      mload(0x40)\n      tag_16\n      swap2\n      swap1\n      tag_17\n      jump\t// in\n    tag_16:\n      mload(0x40)\n      dup1\n      swap2\n      sub\n      swap1\n      return\n        /* \"Functions.sol\":764:842  function setName(string memory newname) public {\r... */\n    tag_6:\n      tag_18\n      0x04\n      dup1\n      calldatasize\n      sub\n      dup2\n      add\n      swap1\n      tag_19\n      swap2\n      swap1\n      tag_20\n      jump\t// in\n    tag_19:\n      tag_21\n      jump\t// in\n    tag_18:\n      stop\n        /* \"Functions.sol\":571:740  function getName() public view returns (string memory) {  // view -> just to see the value of state variable -> you don't want to modify it\r... */\n    tag_8:\n        /* \"Functions.sol\":611:624  string memory */\n      0x60\n        /* \"Functions.sol\":727:731  name */\n      0x00\n        /* \"Functions.sol\":720:731  return name */\n      dup1\n      sload\n      tag_23\n      swap1\n      tag_24\n      jump\t// in\n    tag_23:\n      dup1\n      0x1f\n      add\n      0x20\n      dup1\n      swap2\n      div\n      mul\n      0x20\n      add\n      mload(0x40)\n      swap1\n      dup2\n      add\n      0x40\n      mstore\n      dup1\n      swap3\n      swap2\n      swap1\n      dup2\n      dup2\n      mstore\n      0x20\n      add\n      dup3\n      dup1\n      sload\n      tag_25\n      swap1\n      tag_24\n      jump\t// in\n    tag_25:\n      dup1\n      iszero\n      tag_26\n      jumpi\n      dup1\n      0x1f\n      lt\n      tag_27\n      jumpi\n      0x0100\n      dup1\n      dup4\n      sload\n      div\n      mul\n      dup4\n      mstore\n      swap2\n      0x20\n      add\n      swap2\n      jump(tag_26)\n    tag_27:\n      dup3\n      add\n      swap2\n      swap1\n      0x00\n      mstore\n      keccak256(0x00, 0x20)\n      swap1\n    tag_28:\n      dup2\n      sload\n      dup2\n      mstore\n      swap1\n      0x01\n      add\n      swap1\n      0x20\n      add\n      dup1\n      dup4\n      gt\n      tag_28\n      jumpi\n      dup3\n      swap1\n      sub\n      0x1f\n      and\n      dup3\n      add\n      swap2\n    tag_26:\n      pop\n      pop\n      pop\n      pop\n      pop\n      swap1\n      pop\n        /* \"Functions.sol\":571:740  function getName() public view returns (string memory) {  // view -> just to see the value of state variable -> you don't want to modify it\r... */\n      swap1\n      jump\t// out\n        /* \"Functions.sol\":1790:2021  function sayName() public pure returns (string memory){\r... */\n    tag_12:\n        /* \"Functions.sol\":1830:1843  string memory */\n      0x60\n        /* \"Functions.sol\":1855:1874  string memory name2 */\n      0x00\n        /* \"Functions.sol\":1855:1881  string memory name2=\"riya\" */\n      mload(0x40)\n      dup1\n      0x40\n      add\n      0x40\n      mstore\n      dup1\n      0x04\n      dup2\n      mstore\n      0x20\n      add\n      0x7269796100000000000000000000000000000000000000000000000000000000\n      dup2\n      mstore\n      pop\n      swap1\n      pop\n        /* \"Functions.sol\":1941:1946  name2 */\n      dup1\n        /* \"Functions.sol\":1934:1946  return name2 */\n      swap2\n      pop\n      pop\n        /* \"Functions.sol\":1790:2021  function sayName() public pure returns (string memory){\r... */\n      swap1\n      jump\t// out\n        /* \"Functions.sol\":1600:1782  function getAge() public view returns (uint){\r... */\n    tag_15:\n        /* \"Functions.sol\":1639:1643  uint */\n      0x00\n        /* \"Functions.sol\":1655:1677  string memory nickname */\n      dup1\n        /* \"Functions.sol\":1655:1685  string memory nickname=\"priya\" */\n      mload(0x40)\n      dup1\n      0x40\n      add\n      0x40\n      mstore\n      dup1\n      0x05\n      dup2\n      mstore\n      0x20\n      add\n      0x7072697961000000000000000000000000000000000000000000000000000000\n      dup2\n      mstore\n      pop\n      swap1\n      pop\n        /* \"Functions.sol\":1698:1713  nickname=\"riya\" */\n      mload(0x40)\n      dup1\n      0x40\n      add\n      0x40\n      mstore\n      dup1\n      0x04\n      dup2\n      mstore\n      0x20\n      add\n      0x7269796100000000000000000000000000000000000000000000000000000000\n      dup2\n      mstore\n      pop\n      swap1\n      pop\n        /* \"Functions.sol\":1771:1774  age */\n      sload(0x01)\n        /* \"Functions.sol\":1764:1774  return age */\n      swap2\n      pop\n      pop\n        /* \"Functions.sol\":1600:1782  function getAge() public view returns (uint){\r... */\n      swap1\n      jump\t// out\n        /* \"Functions.sol\":764:842  function setName(string memory newname) public {\r... */\n    tag_21:\n        /* \"Functions.sol\":827:834  newname */\n      dup1\n        /* \"Functions.sol\":822:826  name */\n      0x00\n        /* \"Functions.sol\":822:834  name=newname */\n      swap1\n      dup1\n      mload\n      swap1\n      0x20\n      add\n      swap1\n      tag_32\n      swap3\n      swap2\n      swap1\n      tag_33\n      jump\t// in\n    tag_32:\n      pop\n        /* \"Functions.sol\":764:842  function setName(string memory newname) public {\r... */\n      pop\n      jump\t// out\n    tag_33:\n      dup3\n      dup1\n      sload\n      tag_34\n      swap1\n      tag_24\n      jump\t// in\n    tag_34:\n      swap1\n      0x00\n      mstore\n      keccak256(0x00, 0x20)\n      swap1\n      0x1f\n      add\n      0x20\n      swap1\n      div\n      dup2\n      add\n      swap3\n      dup3\n      tag_36\n      jumpi\n      0x00\n      dup6\n      sstore\n      jump(tag_35)\n    tag_36:\n      dup3\n      0x1f\n      lt\n      tag_37\n      jumpi\n      dup1\n      mload\n      not(0xff)\n      and\n      dup4\n      dup1\n      add\n      or\n      dup6\n      sstore\n      jump(tag_35)\n    tag_37:\n      dup3\n      dup1\n      add\n      0x01\n      add\n      dup6\n      sstore\n      dup3\n      iszero\n      tag_35\n      jumpi\n      swap2\n      dup3\n      add\n    tag_38:\n      dup3\n      dup2\n      gt\n      iszero\n      tag_39\n      jumpi\n      dup3\n      mload\n      dup3\n      sstore\n      swap2\n      0x20\n      add\n      swap2\n      swap1\n      0x01\n      add\n      swap1\n      jump(tag_38)\n    tag_39:\n    tag_35:\n      pop\n      swap1\n      pop\n      tag_40\n      swap2\n      swap1\n      tag_41\n      jump\t// in\n    tag_40:\n      pop\n      swap1\n      jump\t// out\n    tag_41:\n    tag_42:\n      dup1\n      dup3\n      gt\n      iszero\n      tag_43\n      jumpi\n      0x00\n      dup2\n      0x00\n      swap1\n      sstore\n      pop\n      0x01\n      add\n      jump(tag_42)\n    tag_43:\n      pop\n      swap1\n      jump\t// out\n        /* \"#utility.yul\":7:351   */\n    tag_45:\n      0x00\n        /* \"#utility.yul\":110:175   */\n      tag_47\n        /* \"#utility.yul\":125:174   */\n      tag_48\n        /* \"#utility.yul\":167:173   */\n      dup5\n        /* \"#utility.yul\":125:174   */\n      tag_49\n      jump\t// in\n    tag_48:\n        /* \"#utility.yul\":110:175   */\n      tag_50\n      jump\t// in\n    tag_47:\n        /* \"#utility.yul\":101:175   */\n      swap1\n      pop\n        /* \"#utility.yul\":198:204   */\n      dup3\n        /* \"#utility.yul\":191:196   */\n      dup2\n        /* \"#utility.yul\":184:205   */\n      mstore\n        /* \"#utility.yul\":236:240   */\n      0x20\n        /* \"#utility.yul\":229:234   */\n      dup2\n        /* \"#utility.yul\":225:241   */\n      add\n        /* \"#utility.yul\":274:277   */\n      dup5\n        /* \"#utility.yul\":265:271   */\n      dup5\n        /* \"#utility.yul\":260:263   */\n      dup5\n        /* \"#utility.yul\":256:272   */\n      add\n        /* \"#utility.yul\":253:278   */\n      gt\n        /* \"#utility.yul\":250:252   */\n      iszero\n      tag_51\n      jumpi\n        /* \"#utility.yul\":291:292   */\n      0x00\n        /* \"#utility.yul\":288:289   */\n      dup1\n        /* \"#utility.yul\":281:293   */\n      revert\n        /* \"#utility.yul\":250:252   */\n    tag_51:\n        /* \"#utility.yul\":304:345   */\n      tag_52\n        /* \"#utility.yul\":338:344   */\n      dup5\n        /* \"#utility.yul\":333:336   */\n      dup3\n        /* \"#utility.yul\":328:331   */\n      dup6\n        /* \"#utility.yul\":304:345   */\n      tag_53\n      jump\t// in\n    tag_52:\n        /* \"#utility.yul\":91:351   */\n      pop\n      swap4\n      swap3\n      pop\n      pop\n      pop\n      jump\t// out\n        /* \"#utility.yul\":371:644   */\n    tag_54:\n      0x00\n        /* \"#utility.yul\":476:479   */\n      dup3\n        /* \"#utility.yul\":469:473   */\n      0x1f\n        /* \"#utility.yul\":461:467   */\n      dup4\n        /* \"#utility.yul\":457:474   */\n      add\n        /* \"#utility.yul\":453:480   */\n      slt\n        /* \"#utility.yul\":443:445   */\n      tag_56\n      jumpi\n        /* \"#utility.yul\":494:495   */\n      0x00\n        /* \"#utility.yul\":491:492   */\n      dup1\n        /* \"#utility.yul\":484:496   */\n      revert\n        /* \"#utility.yul\":443:445   */\n    tag_56:\n        /* \"#utility.yul\":534:540   */\n      dup2\n        /* \"#utility.yul\":521:541   */\n      calldataload\n        /* \"#utility.yul\":559:638   */\n      tag_57\n        /* \"#utility.yul\":634:637   */\n      dup5\n        /* \"#utility.yul\":626:632   */\n      dup3\n        /* \"#utility.yul\":619:623   */\n      0x20\n        /* \"#utility.yul\":611:617   */\n      dup7\n        /* \"#utility.yul\":607:624   */\n      add\n        /* \"#utility.yul\":559:638   */\n      tag_45\n      jump\t// in\n    tag_57:\n        /* \"#utility.yul\":550:638   */\n      swap2\n      pop\n        /* \"#utility.yul\":433:644   */\n      pop\n      swap3\n      swap2\n      pop\n      pop\n      jump\t// out\n        /* \"#utility.yul\":650:1025   */\n    tag_20:\n      0x00\n        /* \"#utility.yul\":768:770   */\n      0x20\n        /* \"#utility.yul\":756:765   */\n      dup3\n        /* \"#utility.yul\":747:754   */\n      dup5\n        /* \"#utility.yul\":743:766   */\n      sub\n        /* \"#utility.yul\":739:771   */\n      slt\n        /* \"#utility.yul\":736:738   */\n      iszero\n      tag_59\n      jumpi\n        /* \"#utility.yul\":784:785   */\n      0x00\n        /* \"#utility.yul\":781:782   */\n      dup1\n        /* \"#utility.yul\":774:786   */\n      revert\n        /* \"#utility.yul\":736:738   */\n    tag_59:\n        /* \"#utility.yul\":855:856   */\n      0x00\n        /* \"#utility.yul\":844:853   */\n      dup3\n        /* \"#utility.yul\":840:857   */\n      add\n        /* \"#utility.yul\":827:858   */\n      calldataload\n        /* \"#utility.yul\":885:903   */\n      0xffffffffffffffff\n        /* \"#utility.yul\":877:883   */\n      dup2\n        /* \"#utility.yul\":874:904   */\n      gt\n        /* \"#utility.yul\":871:873   */\n      iszero\n      tag_60\n      jumpi\n        /* \"#utility.yul\":917:918   */\n      0x00\n        /* \"#utility.yul\":914:915   */\n      dup1\n        /* \"#utility.yul\":907:919   */\n      revert\n        /* \"#utility.yul\":871:873   */\n    tag_60:\n        /* \"#utility.yul\":945:1008   */\n      tag_61\n        /* \"#utility.yul\":1000:1007   */\n      dup5\n        /* \"#utility.yul\":991:997   */\n      dup3\n        /* \"#utility.yul\":980:989   */\n      dup6\n        /* \"#utility.yul\":976:998   */\n      add\n        /* \"#utility.yul\":945:1008   */\n      tag_54\n      jump\t// in\n    tag_61:\n        /* \"#utility.yul\":935:1008   */\n      swap2\n      pop\n        /* \"#utility.yul\":798:1018   */\n      pop\n        /* \"#utility.yul\":726:1025   */\n      swap3\n      swap2\n      pop\n      pop\n      jump\t// out\n        /* \"#utility.yul\":1031:1395   */\n    tag_62:\n      0x00\n        /* \"#utility.yul\":1147:1186   */\n      tag_64\n        /* \"#utility.yul\":1180:1185   */\n      dup3\n        /* \"#utility.yul\":1147:1186   */\n      tag_65\n      jump\t// in\n    tag_64:\n        /* \"#utility.yul\":1202:1273   */\n      tag_66\n        /* \"#utility.yul\":1266:1272   */\n      dup2\n        /* \"#utility.yul\":1261:1264   */\n      dup6\n        /* \"#utility.yul\":1202:1273   */\n      tag_67\n      jump\t// in\n    tag_66:\n        /* \"#utility.yul\":1195:1273   */\n      swap4\n      pop\n        /* \"#utility.yul\":1282:1334   */\n      tag_68\n        /* \"#utility.yul\":1327:1333   */\n      dup2\n        /* \"#utility.yul\":1322:1325   */\n      dup6\n        /* \"#utility.yul\":1315:1319   */\n      0x20\n        /* \"#utility.yul\":1308:1313   */\n      dup7\n        /* \"#utility.yul\":1304:1320   */\n      add\n        /* \"#utility.yul\":1282:1334   */\n      tag_69\n      jump\t// in\n    tag_68:\n        /* \"#utility.yul\":1359:1388   */\n      tag_70\n        /* \"#utility.yul\":1381:1387   */\n      dup2\n        /* \"#utility.yul\":1359:1388   */\n      tag_71\n      jump\t// in\n    tag_70:\n        /* \"#utility.yul\":1354:1357   */\n      dup5\n        /* \"#utility.yul\":1350:1389   */\n      add\n        /* \"#utility.yul\":1343:1389   */\n      swap2\n      pop\n        /* \"#utility.yul\":1123:1395   */\n      pop\n      swap3\n      swap2\n      pop\n      pop\n      jump\t// out\n        /* \"#utility.yul\":1401:1519   */\n    tag_72:\n        /* \"#utility.yul\":1488:1512   */\n      tag_74\n        /* \"#utility.yul\":1506:1511   */\n      dup2\n        /* \"#utility.yul\":1488:1512   */\n      tag_75\n      jump\t// in\n    tag_74:\n        /* \"#utility.yul\":1483:1486   */\n      dup3\n        /* \"#utility.yul\":1476:1513   */\n      mstore\n        /* \"#utility.yul\":1466:1519   */\n      pop\n      pop\n      jump\t// out\n        /* \"#utility.yul\":1525:1838   */\n    tag_10:\n      0x00\n        /* \"#utility.yul\":1676:1678   */\n      0x20\n        /* \"#utility.yul\":1665:1674   */\n      dup3\n        /* \"#utility.yul\":1661:1679   */\n      add\n        /* \"#utility.yul\":1653:1679   */\n      swap1\n      pop\n        /* \"#utility.yul\":1725:1734   */\n      dup2\n        /* \"#utility.yul\":1719:1723   */\n      dup2\n        /* \"#utility.yul\":1715:1735   */\n      sub\n        /* \"#utility.yul\":1711:1712   */\n      0x00\n        /* \"#utility.yul\":1700:1709   */\n      dup4\n        /* \"#utility.yul\":1696:1713   */\n      add\n        /* \"#utility.yul\":1689:1736   */\n      mstore\n        /* \"#utility.yul\":1753:1831   */\n      tag_77\n        /* \"#utility.yul\":1826:1830   */\n      dup2\n        /* \"#utility.yul\":1817:1823   */\n      dup5\n        /* \"#utility.yul\":1753:1831   */\n      tag_62\n      jump\t// in\n    tag_77:\n        /* \"#utility.yul\":1745:1831   */\n      swap1\n      pop\n        /* \"#utility.yul\":1643:1838   */\n      swap3\n      swap2\n      pop\n      pop\n      jump\t// out\n        /* \"#utility.yul\":1844:2066   */\n    tag_17:\n      0x00\n        /* \"#utility.yul\":1975:1977   */\n      0x20\n        /* \"#utility.yul\":1964:1973   */\n      dup3\n        /* \"#utility.yul\":1960:1978   */\n      add\n        /* \"#utility.yul\":1952:1978   */\n      swap1\n      pop\n        /* \"#utility.yul\":1988:2059   */\n      tag_79\n        /* \"#utility.yul\":2056:2057   */\n      0x00\n        /* \"#utility.yul\":2045:2054   */\n      dup4\n        /* \"#utility.yul\":2041:2058   */\n      add\n        /* \"#utility.yul\":2032:2038   */\n      dup5\n        /* \"#utility.yul\":1988:2059   */\n      tag_72\n      jump\t// in\n    tag_79:\n        /* \"#utility.yul\":1942:2066   */\n      swap3\n      swap2\n      pop\n      pop\n      jump\t// out\n        /* \"#utility.yul\":2072:2355   */\n    tag_50:\n      0x00\n        /* \"#utility.yul\":2138:2140   */\n      0x40\n        /* \"#utility.yul\":2132:2141   */\n      mload\n        /* \"#utility.yul\":2122:2141   */\n      swap1\n      pop\n        /* \"#utility.yul\":2180:2184   */\n      dup2\n        /* \"#utility.yul\":2172:2178   */\n      dup2\n        /* \"#utility.yul\":2168:2185   */\n      add\n        /* \"#utility.yul\":2287:2293   */\n      dup2\n        /* \"#utility.yul\":2275:2285   */\n      dup2\n        /* \"#utility.yul\":2272:2294   */\n      lt\n        /* \"#utility.yul\":2251:2269   */\n      0xffffffffffffffff\n        /* \"#utility.yul\":2239:2249   */\n      dup3\n        /* \"#utility.yul\":2236:2270   */\n      gt\n        /* \"#utility.yul\":2233:2295   */\n      or\n        /* \"#utility.yul\":2230:2232   */\n      iszero\n      tag_81\n      jumpi\n        /* \"#utility.yul\":2298:2316   */\n      tag_82\n      tag_83\n      jump\t// in\n    tag_82:\n        /* \"#utility.yul\":2230:2232   */\n    tag_81:\n        /* \"#utility.yul\":2338:2348   */\n      dup1\n        /* \"#utility.yul\":2334:2336   */\n      0x40\n        /* \"#utility.yul\":2327:2349   */\n      mstore\n        /* \"#utility.yul\":2112:2355   */\n      pop\n      swap2\n      swap1\n      pop\n      jump\t// out\n        /* \"#utility.yul\":2361:2693   */\n    tag_49:\n      0x00\n        /* \"#utility.yul\":2513:2531   */\n      0xffffffffffffffff\n        /* \"#utility.yul\":2505:2511   */\n      dup3\n        /* \"#utility.yul\":2502:2532   */\n      gt\n        /* \"#utility.yul\":2499:2501   */\n      iszero\n      tag_85\n      jumpi\n        /* \"#utility.yul\":2535:2553   */\n      tag_86\n      tag_83\n      jump\t// in\n    tag_86:\n        /* \"#utility.yul\":2499:2501   */\n    tag_85:\n        /* \"#utility.yul\":2620:2624   */\n      0x1f\n        /* \"#utility.yul\":2616:2625   */\n      not\n        /* \"#utility.yul\":2609:2613   */\n      0x1f\n        /* \"#utility.yul\":2601:2607   */\n      dup4\n        /* \"#utility.yul\":2597:2614   */\n      add\n        /* \"#utility.yul\":2593:2626   */\n      and\n        /* \"#utility.yul\":2585:2626   */\n      swap1\n      pop\n        /* \"#utility.yul\":2681:2685   */\n      0x20\n        /* \"#utility.yul\":2675:2679   */\n      dup2\n        /* \"#utility.yul\":2671:2686   */\n      add\n        /* \"#utility.yul\":2663:2686   */\n      swap1\n      pop\n        /* \"#utility.yul\":2428:2693   */\n      swap2\n      swap1\n      pop\n      jump\t// out\n        /* \"#utility.yul\":2699:2798   */\n    tag_65:\n      0x00\n        /* \"#utility.yul\":2785:2790   */\n      dup2\n        /* \"#utility.yul\":2779:2791   */\n      mload\n        /* \"#utility.yul\":2769:2791   */\n      swap1\n      pop\n        /* \"#utility.yul\":2758:2798   */\n      swap2\n      swap1\n      pop\n      jump\t// out\n        /* \"#utility.yul\":2804:2973   */\n    tag_67:\n      0x00\n        /* \"#utility.yul\":2922:2928   */\n      dup3\n        /* \"#utility.yul\":2917:2920   */\n      dup3\n        /* \"#utility.yul\":2910:2929   */\n      mstore\n        /* \"#utility.yul\":2962:2966   */\n      0x20\n        /* \"#utility.yul\":2957:2960   */\n      dup3\n        /* \"#utility.yul\":2953:2967   */\n      add\n        /* \"#utility.yul\":2938:2967   */\n      swap1\n      pop\n        /* \"#utility.yul\":2900:2973   */\n      swap3\n      swap2\n      pop\n      pop\n      jump\t// out\n        /* \"#utility.yul\":2979:3056   */\n    tag_75:\n      0x00\n        /* \"#utility.yul\":3045:3050   */\n      dup2\n        /* \"#utility.yul\":3034:3050   */\n      swap1\n      pop\n        /* \"#utility.yul\":3024:3056   */\n      swap2\n      swap1\n      pop\n      jump\t// out\n        /* \"#utility.yul\":3062:3216   */\n    tag_53:\n        /* \"#utility.yul\":3146:3152   */\n      dup3\n        /* \"#utility.yul\":3141:3144   */\n      dup2\n        /* \"#utility.yul\":3136:3139   */\n      dup4\n        /* \"#utility.yul\":3123:3153   */\n      calldatacopy\n        /* \"#utility.yul\":3208:3209   */\n      0x00\n        /* \"#utility.yul\":3199:3205   */\n      dup4\n        /* \"#utility.yul\":3194:3197   */\n      dup4\n        /* \"#utility.yul\":3190:3206   */\n      add\n        /* \"#utility.yul\":3183:3210   */\n      mstore\n        /* \"#utility.yul\":3113:3216   */\n      pop\n      pop\n      pop\n      jump\t// out\n        /* \"#utility.yul\":3222:3529   */\n    tag_69:\n        /* \"#utility.yul\":3290:3291   */\n      0x00\n        /* \"#utility.yul\":3300:3413   */\n    tag_92:\n        /* \"#utility.yul\":3314:3320   */\n      dup4\n        /* \"#utility.yul\":3311:3312   */\n      dup2\n        /* \"#utility.yul\":3308:3321   */\n      lt\n        /* \"#utility.yul\":3300:3413   */\n      iszero\n      tag_94\n      jumpi\n        /* \"#utility.yul\":3399:3400   */\n      dup1\n        /* \"#utility.yul\":3394:3397   */\n      dup3\n        /* \"#utility.yul\":3390:3401   */\n      add\n        /* \"#utility.yul\":3384:3402   */\n      mload\n        /* \"#utility.yul\":3380:3381   */\n      dup2\n        /* \"#utility.yul\":3375:3378   */\n      dup5\n        /* \"#utility.yul\":3371:3382   */\n      add\n        /* \"#utility.yul\":3364:3403   */\n      mstore\n        /* \"#utility.yul\":3336:3338   */\n      0x20\n        /* \"#utility.yul\":3333:3334   */\n      dup2\n        /* \"#utility.yul\":3329:3339   */\n      add\n        /* \"#utility.yul\":3324:3339   */\n      swap1\n      pop\n        /* \"#utility.yul\":3300:3413   */\n      jump(tag_92)\n    tag_94:\n        /* \"#utility.yul\":3431:3437   */\n      dup4\n        /* \"#utility.yul\":3428:3429   */\n      dup2\n        /* \"#utility.yul\":3425:3438   */\n      gt\n        /* \"#utility.yul\":3422:3424   */\n      iszero\n      tag_95\n      jumpi\n        /* \"#utility.yul\":3511:3512   */\n      0x00\n        /* \"#utility.yul\":3502:3508   */\n      dup5\n        /* \"#utility.yul\":3497:3500   */\n      dup5\n        /* \"#utility.yul\":3493:3509   */\n      add\n        /* \"#utility.yul\":3486:3513   */\n      mstore\n        /* \"#utility.yul\":3422:3424   */\n    tag_95:\n        /* \"#utility.yul\":3271:3529   */\n      pop\n      pop\n      pop\n      pop\n      jump\t// out\n        /* \"#utility.yul\":3535:3855   */\n    tag_24:\n      0x00\n        /* \"#utility.yul\":3616:3617   */\n      0x02\n        /* \"#utility.yul\":3610:3614   */\n      dup3\n        /* \"#utility.yul\":3606:3618   */\n      div\n        /* \"#utility.yul\":3596:3618   */\n      swap1\n      pop\n        /* \"#utility.yul\":3663:3664   */\n      0x01\n        /* \"#utility.yul\":3657:3661   */\n      dup3\n        /* \"#utility.yul\":3653:3665   */\n      and\n        /* \"#utility.yul\":3684:3702   */\n      dup1\n        /* \"#utility.yul\":3674:3676   */\n      tag_97\n      jumpi\n        /* \"#utility.yul\":3740:3744   */\n      0x7f\n        /* \"#utility.yul\":3732:3738   */\n      dup3\n        /* \"#utility.yul\":3728:3745   */\n      and\n        /* \"#utility.yul\":3718:3745   */\n      swap2\n      pop\n        /* \"#utility.yul\":3674:3676   */\n    tag_97:\n        /* \"#utility.yul\":3802:3804   */\n      0x20\n        /* \"#utility.yul\":3794:3800   */\n      dup3\n        /* \"#utility.yul\":3791:3805   */\n      lt\n        /* \"#utility.yul\":3771:3789   */\n      dup2\n        /* \"#utility.yul\":3768:3806   */\n      eq\n        /* \"#utility.yul\":3765:3767   */\n      iszero\n      tag_98\n      jumpi\n        /* \"#utility.yul\":3821:3839   */\n      tag_99\n      tag_100\n      jump\t// in\n    tag_99:\n        /* \"#utility.yul\":3765:3767   */\n    tag_98:\n        /* \"#utility.yul\":3586:3855   */\n      pop\n      swap2\n      swap1\n      pop\n      jump\t// out\n        /* \"#utility.yul\":3861:4041   */\n    tag_100:\n        /* \"#utility.yul\":3909:3986   */\n      0x4e487b7100000000000000000000000000000000000000000000000000000000\n        /* \"#utility.yul\":3906:3907   */\n      0x00\n        /* \"#utility.yul\":3899:3987   */\n      mstore\n        /* \"#utility.yul\":4006:4010   */\n      0x22\n        /* \"#utility.yul\":4003:4004   */\n      0x04\n        /* \"#utility.yul\":3996:4011   */\n      mstore\n        /* \"#utility.yul\":4030:4034   */\n      0x24\n        /* \"#utility.yul\":4027:4028   */\n      0x00\n        /* \"#utility.yul\":4020:4035   */\n      revert\n        /* \"#utility.yul\":4047:4227   */\n    tag_83:\n        /* \"#utility.yul\":4095:4172   */\n      0x4e487b7100000000000000000000000000000000000000000000000000000000\n        /* \"#utility.yul\":4092:4093   */\n      0x00\n        /* \"#utility.yul\":4085:4173   */\n      mstore\n        /* \"#utility.yul\":4192:4196   */\n      0x41\n        /* \"#utility.yul\":4189:4190   */\n      0x04\n        /* \"#utility.yul\":4182:4197   */\n      mstore\n        /* \"#utility.yul\":4216:4220   */\n      0x24\n        /* \"#utility.yul\":4213:4214   */\n      0x00\n        /* \"#utility.yul\":4206:4221   */\n      revert\n        /* \"#utility.yul\":4233:4335   */\n    tag_71:\n      0x00\n        /* \"#utility.yul\":4325:4327   */\n      0x1f\n        /* \"#utility.yul\":4321:4328   */\n      not\n        /* \"#utility.yul\":4316:4318   */\n      0x1f\n        /* \"#utility.yul\":4309:4314   */\n      dup4\n        /* \"#utility.yul\":4305:4319   */\n      add\n        /* \"#utility.yul\":4301:4329   */\n      and\n        /* \"#utility.yul\":4291:4329   */\n      swap1\n      pop\n        /* \"#utility.yul\":4281:4335   */\n      swap2\n      swap1\n      pop\n      jump\t// out\n\n    auxdata: 0xa2646970667358221220c0c6b80bd2b3069c44c1ac1a519b6a8cb3a688e99a2efb335cea16a1697b898564736f6c63430008000033\n}\n",
				"bytecode": {
					"linkReferences": {},
					"object": "60806040526040518060400160405280600781526020017f4b617368697368000000000000000000000000000000000000000000000000008152506000908051906020019061004f929190610067565b50601460015534801561006157600080fd5b5061016b565b8280546100739061010a565b90600052602060002090601f01602090048101928261009557600085556100dc565b82601f106100ae57805160ff19168380011785556100dc565b828001600101855582156100dc579182015b828111156100db5782518255916020019190600101906100c0565b5b5090506100e991906100ed565b5090565b5b808211156101065760008160009055506001016100ee565b5090565b6000600282049050600182168061012257607f821691505b602082108114156101365761013561013c565b5b50919050565b7f4e487b7100000000000000000000000000000000000000000000000000000000600052602260045260246000fd5b6105a38061017a6000396000f3fe608060405234801561001057600080fd5b506004361061004c5760003560e01c806317d7de7c14610051578063456e64cb1461006f578063967e6e651461008d578063c47f0027146100ab575b600080fd5b6100596100c7565b60405161006691906103c6565b60405180910390f35b610077610159565b60405161008491906103c6565b60405180910390f35b61009561019c565b6040516100a291906103e8565b60405180910390f35b6100c560048036038101906100c0919061033d565b610218565b005b6060600080546100d6906104cc565b80601f0160208091040260200160405190810160405280929190818152602001828054610102906104cc565b801561014f5780601f106101245761010080835404028352916020019161014f565b820191906000526020600020905b81548152906001019060200180831161013257829003601f168201915b5050505050905090565b606060006040518060400160405280600481526020017f726979610000000000000000000000000000000000000000000000000000000081525090508091505090565b6000806040518060400160405280600581526020017f707269796100000000000000000000000000000000000000000000000000000081525090506040518060400160405280600481526020017f7269796100000000000000000000000000000000000000000000000000000000815250905060015491505090565b806000908051906020019061022e929190610232565b5050565b82805461023e906104cc565b90600052602060002090601f01602090048101928261026057600085556102a7565b82601f1061027957805160ff19168380011785556102a7565b828001600101855582156102a7579182015b828111156102a657825182559160200191906001019061028b565b5b5090506102b491906102b8565b5090565b5b808211156102d15760008160009055506001016102b9565b5090565b60006102e86102e384610434565b610403565b90508281526020810184848401111561030057600080fd5b61030b84828561048a565b509392505050565b600082601f83011261032457600080fd5b81356103348482602086016102d5565b91505092915050565b60006020828403121561034f57600080fd5b600082013567ffffffffffffffff81111561036957600080fd5b61037584828501610313565b91505092915050565b600061038982610464565b610393818561046f565b93506103a3818560208601610499565b6103ac8161055c565b840191505092915050565b6103c081610480565b82525050565b600060208201905081810360008301526103e0818461037e565b905092915050565b60006020820190506103fd60008301846103b7565b92915050565b6000604051905081810181811067ffffffffffffffff8211171561042a5761042961052d565b5b8060405250919050565b600067ffffffffffffffff82111561044f5761044e61052d565b5b601f19601f8301169050602081019050919050565b600081519050919050565b600082825260208201905092915050565b6000819050919050565b82818337600083830152505050565b60005b838110156104b757808201518184015260208101905061049c565b838111156104c6576000848401525b50505050565b600060028204905060018216806104e457607f821691505b602082108114156104f8576104f76104fe565b5b50919050565b7f4e487b7100000000000000000000000000000000000000000000000000000000600052602260045260246000fd5b7f4e487b7100000000000000000000000000000000000000000000000000000000600052604160045260246000fd5b6000601f19601f830116905091905056fea2646970667358221220c0c6b80bd2b3069c44c1ac1a519b6a8cb3a688e99a2efb335cea16a1697b898564736f6c63430008000033",
					"opcodes": "PUSH1 0x80 PUSH1 0x40 MSTORE PUSH1 0x40 MLOAD DUP1 PUSH1 0x40 ADD PUSH1 0x40 MSTORE DUP1 PUSH1 0x7 DUP2 MSTORE PUSH1 0x20 ADD PUSH32 0x4B61736869736800000000000000000000000000000000000000000000000000 DUP2 MSTORE POP PUSH1 0x0 SWAP1 DUP1 MLOAD SWAP1 PUSH1 0x20 ADD SWAP1 PUSH2 0x4F SWAP3 SWAP2 SWAP1 PUSH2 0x67 JUMP JUMPDEST POP PUSH1 0x14 PUSH1 0x1 SSTORE CALLVALUE DUP1 ISZERO PUSH2 0x61 JUMPI PUSH1 0x0 DUP1 REVERT JUMPDEST POP PUSH2 0x16B JUMP JUMPDEST DUP3 DUP1 SLOAD PUSH2 0x73 SWAP1 PUSH2 0x10A JUMP JUMPDEST SWAP1 PUSH1 0x0 MSTORE PUSH1 0x20 PUSH1 0x0 KECCAK256 SWAP1 PUSH1 0x1F ADD PUSH1 0x20 SWAP1 DIV DUP2 ADD SWAP3 DUP3 PUSH2 0x95 JUMPI PUSH1 0x0 DUP6 SSTORE PUSH2 0xDC JUMP JUMPDEST DUP3 PUSH1 0x1F LT PUSH2 0xAE JUMPI DUP1 MLOAD PUSH1 0xFF NOT AND DUP4 DUP1 ADD OR DUP6 SSTORE PUSH2 0xDC JUMP JUMPDEST DUP3 DUP1 ADD PUSH1 0x1 ADD DUP6 SSTORE DUP3 ISZERO PUSH2 0xDC JUMPI SWAP2 DUP3 ADD JUMPDEST DUP3 DUP2 GT ISZERO PUSH2 0xDB JUMPI DUP3 MLOAD DUP3 SSTORE SWAP2 PUSH1 0x20 ADD SWAP2 SWAP1 PUSH1 0x1 ADD SWAP1 PUSH2 0xC0 JUMP JUMPDEST JUMPDEST POP SWAP1 POP PUSH2 0xE9 SWAP2 SWAP1 PUSH2 0xED JUMP JUMPDEST POP SWAP1 JUMP JUMPDEST JUMPDEST DUP1 DUP3 GT ISZERO PUSH2 0x106 JUMPI PUSH1 0x0 DUP2 PUSH1 0x0 SWAP1 SSTORE POP PUSH1 0x1 ADD PUSH2 0xEE JUMP JUMPDEST POP SWAP1 JUMP JUMPDEST PUSH1 0x0 PUSH1 0x2 DUP3 DIV SWAP1 POP PUSH1 0x1 DUP3 AND DUP1 PUSH2 0x122 JUMPI PUSH1 0x7F DUP3 AND SWAP2 POP JUMPDEST PUSH1 0x20 DUP3 LT DUP2 EQ ISZERO PUSH2 0x136 JUMPI PUSH2 0x135 PUSH2 0x13C JUMP JUMPDEST JUMPDEST POP SWAP2 SWAP1 POP JUMP JUMPDEST PUSH32 0x4E487B7100000000000000000000000000000000000000000000000000000000 PUSH1 0x0 MSTORE PUSH1 0x22 PUSH1 0x4 MSTORE PUSH1 0x24 PUSH1 0x0 REVERT JUMPDEST PUSH2 0x5A3 DUP1 PUSH2 0x17A PUSH1 0x0 CODECOPY PUSH1 0x0 RETURN INVALID PUSH1 0x80 PUSH1 0x40 MSTORE CALLVALUE DUP1 ISZERO PUSH2 0x10 JUMPI PUSH1 0x0 DUP1 REVERT JUMPDEST POP PUSH1 0x4 CALLDATASIZE LT PUSH2 0x4C JUMPI PUSH1 0x0 CALLDATALOAD PUSH1 0xE0 SHR DUP1 PUSH4 0x17D7DE7C EQ PUSH2 0x51 JUMPI DUP1 PUSH4 0x456E64CB EQ PUSH2 0x6F JUMPI DUP1 PUSH4 0x967E6E65 EQ PUSH2 0x8D JUMPI DUP1 PUSH4 0xC47F0027 EQ PUSH2 0xAB JUMPI JUMPDEST PUSH1 0x0 DUP1 REVERT JUMPDEST PUSH2 0x59 PUSH2 0xC7 JUMP JUMPDEST PUSH1 0x40 MLOAD PUSH2 0x66 SWAP2 SWAP1 PUSH2 0x3C6 JUMP JUMPDEST PUSH1 0x40 MLOAD DUP1 SWAP2 SUB SWAP1 RETURN JUMPDEST PUSH2 0x77 PUSH2 0x159 JUMP JUMPDEST PUSH1 0x40 MLOAD PUSH2 0x84 SWAP2 SWAP1 PUSH2 0x3C6 JUMP JUMPDEST PUSH1 0x40 MLOAD DUP1 SWAP2 SUB SWAP1 RETURN JUMPDEST PUSH2 0x95 PUSH2 0x19C JUMP JUMPDEST PUSH1 0x40 MLOAD PUSH2 0xA2 SWAP2 SWAP1 PUSH2 0x3E8 JUMP JUMPDEST PUSH1 0x40 MLOAD DUP1 SWAP2 SUB SWAP1 RETURN JUMPDEST PUSH2 0xC5 PUSH1 0x4 DUP1 CALLDATASIZE SUB DUP2 ADD SWAP1 PUSH2 0xC0 SWAP2 SWAP1 PUSH2 0x33D JUMP JUMPDEST PUSH2 0x218 JUMP JUMPDEST STOP JUMPDEST PUSH1 0x60 PUSH1 0x0 DUP1 SLOAD PUSH2 0xD6 SWAP1 PUSH2 0x4CC JUMP JUMPDEST DUP1 PUSH1 0x1F ADD PUSH1 0x20 DUP1 SWAP2 DIV MUL PUSH1 0x20 ADD PUSH1 0x40 MLOAD SWAP1 DUP2 ADD PUSH1 0x40 MSTORE DUP1 SWAP3 SWAP2 SWAP1 DUP2 DUP2 MSTORE PUSH1 0x20 ADD DUP3 DUP1 SLOAD PUSH2 0x102 SWAP1 PUSH2 0x4CC JUMP JUMPDEST DUP1 ISZERO PUSH2 0x14F JUMPI DUP1 PUSH1 0x1F LT PUSH2 0x124 JUMPI PUSH2 0x100 DUP1 DUP4 SLOAD DIV MUL DUP4 MSTORE SWAP2 PUSH1 0x20 ADD SWAP2 PUSH2 0x14F JUMP JUMPDEST DUP3 ADD SWAP2 SWAP1 PUSH1 0x0 MSTORE PUSH1 0x20 PUSH1 0x0 KECCAK256 SWAP1 JUMPDEST DUP2 SLOAD DUP2 MSTORE SWAP1 PUSH1 0x1 ADD SWAP1 PUSH1 0x20 ADD DUP1 DUP4 GT PUSH2 0x132 JUMPI DUP3 SWAP1 SUB PUSH1 0x1F AND DUP3 ADD SWAP2 JUMPDEST POP POP POP POP POP SWAP1 POP SWAP1 JUMP JUMPDEST PUSH1 0x60 PUSH1 0x0 PUSH1 0x40 MLOAD DUP1 PUSH1 0x40 ADD PUSH1 0x40 MSTORE DUP1 PUSH1 0x4 DUP2 MSTORE PUSH1 0x20 ADD PUSH32 0x7269796100000000000000000000000000000000000000000000000000000000 DUP2 MSTORE POP SWAP1 POP DUP1 SWAP2 POP POP SWAP1 JUMP JUMPDEST PUSH1 0x0 DUP1 PUSH1 0x40 MLOAD DUP1 PUSH1 0x40 ADD PUSH1 0x40 MSTORE DUP1 PUSH1 0x5 DUP2 MSTORE PUSH1 0x20 ADD PUSH32 0x7072697961000000000000000000000000000000000000000000000000000000 DUP2 MSTORE POP SWAP1 POP PUSH1 0x40 MLOAD DUP1 PUSH1 0x40 ADD PUSH1 0x40 MSTORE DUP1 PUSH1 0x4 DUP2 MSTORE PUSH1 0x20 ADD PUSH32 0x7269796100000000000000000000000000000000000000000000000000000000 DUP2 MSTORE POP SWAP1 POP PUSH1 0x1 SLOAD SWAP2 POP POP SWAP1 JUMP JUMPDEST DUP1 PUSH1 0x0 SWAP1 DUP1 MLOAD SWAP1 PUSH1 0x20 ADD SWAP1 PUSH2 0x22E SWAP3 SWAP2 SWAP1 PUSH2 0x232 JUMP JUMPDEST POP POP JUMP JUMPDEST DUP3 DUP1 SLOAD PUSH2 0x23E SWAP1 PUSH2 0x4CC JUMP JUMPDEST SWAP1 PUSH1 0x0 MSTORE PUSH1 0x20 PUSH1 0x0 KECCAK256 SWAP1 PUSH1 0x1F ADD PUSH1 0x20 SWAP1 DIV DUP2 ADD SWAP3 DUP3 PUSH2 0x260 JUMPI PUSH1 0x0 DUP6 SSTORE PUSH2 0x2A7 JUMP JUMPDEST DUP3 PUSH1 0x1F LT PUSH2 0x279 JUMPI DUP1 MLOAD PUSH1 0xFF NOT AND DUP4 DUP1 ADD OR DUP6 SSTORE PUSH2 0x2A7 JUMP JUMPDEST DUP3 DUP1 ADD PUSH1 0x1 ADD DUP6 SSTORE DUP3 ISZERO PUSH2 0x2A7 JUMPI SWAP2 DUP3 ADD JUMPDEST DUP3 DUP2 GT ISZERO PUSH2 0x2A6 JUMPI DUP3 MLOAD DUP3 SSTORE SWAP2 PUSH1 0x20 ADD SWAP2 SWAP1 PUSH1 0x1 ADD SWAP1 PUSH2 0x28B JUMP JUMPDEST JUMPDEST POP SWAP1 POP PUSH2 0x2B4 SWAP2 SWAP1 PUSH2 0x2B8 JUMP JUMPDEST POP SWAP1 JUMP JUMPDEST JUMPDEST DUP1 DUP3 GT ISZERO PUSH2 0x2D1 JUMPI PUSH1 0x0 DUP2 PUSH1 0x0 SWAP1 SSTORE POP PUSH1 0x1 ADD PUSH2 0x2B9 JUMP JUMPDEST POP SWAP1 JUMP JUMPDEST PUSH1 0x0 PUSH2 0x2E8 PUSH2 0x2E3 DUP5 PUSH2 0x434 JUMP JUMPDEST PUSH2 0x403 JUMP JUMPDEST SWAP1 POP DUP3 DUP2 MSTORE PUSH1 0x20 DUP2 ADD DUP5 DUP5 DUP5 ADD GT ISZERO PUSH2 0x300 JUMPI PUSH1 0x0 DUP1 REVERT JUMPDEST PUSH2 0x30B DUP5 DUP3 DUP6 PUSH2 0x48A JUMP JUMPDEST POP SWAP4 SWAP3 POP POP POP JUMP JUMPDEST PUSH1 0x0 DUP3 PUSH1 0x1F DUP4 ADD SLT PUSH2 0x324 JUMPI PUSH1 0x0 DUP1 REVERT JUMPDEST DUP2 CALLDATALOAD PUSH2 0x334 DUP5 DUP3 PUSH1 0x20 DUP7 ADD PUSH2 0x2D5 JUMP JUMPDEST SWAP2 POP POP SWAP3 SWAP2 POP POP JUMP JUMPDEST PUSH1 0x0 PUSH1 0x20 DUP3 DUP5 SUB SLT ISZERO PUSH2 0x34F JUMPI PUSH1 0x0 DUP1 REVERT JUMPDEST PUSH1 0x0 DUP3 ADD CALLDATALOAD PUSH8 0xFFFFFFFFFFFFFFFF DUP2 GT ISZERO PUSH2 0x369 JUMPI PUSH1 0x0 DUP1 REVERT JUMPDEST PUSH2 0x375 DUP5 DUP3 DUP6 ADD PUSH2 0x313 JUMP JUMPDEST SWAP2 POP POP SWAP3 SWAP2 POP POP JUMP JUMPDEST PUSH1 0x0 PUSH2 0x389 DUP3 PUSH2 0x464 JUMP JUMPDEST PUSH2 0x393 DUP2 DUP6 PUSH2 0x46F JUMP JUMPDEST SWAP4 POP PUSH2 0x3A3 DUP2 DUP6 PUSH1 0x20 DUP7 ADD PUSH2 0x499 JUMP JUMPDEST PUSH2 0x3AC DUP2 PUSH2 0x55C JUMP JUMPDEST DUP5 ADD SWAP2 POP POP SWAP3 SWAP2 POP POP JUMP JUMPDEST PUSH2 0x3C0 DUP2 PUSH2 0x480 JUMP JUMPDEST DUP3 MSTORE POP POP JUMP JUMPDEST PUSH1 0x0 PUSH1 0x20 DUP3 ADD SWAP1 POP DUP2 DUP2 SUB PUSH1 0x0 DUP4 ADD MSTORE PUSH2 0x3E0 DUP2 DUP5 PUSH2 0x37E JUMP JUMPDEST SWAP1 POP SWAP3 SWAP2 POP POP JUMP JUMPDEST PUSH1 0x0 PUSH1 0x20 DUP3 ADD SWAP1 POP PUSH2 0x3FD PUSH1 0x0 DUP4 ADD DUP5 PUSH2 0x3B7 JUMP JUMPDEST SWAP3 SWAP2 POP POP JUMP JUMPDEST PUSH1 0x0 PUSH1 0x40 MLOAD SWAP1 POP DUP2 DUP2 ADD DUP2 DUP2 LT PUSH8 0xFFFFFFFFFFFFFFFF DUP3 GT OR ISZERO PUSH2 0x42A JUMPI PUSH2 0x429 PUSH2 0x52D JUMP JUMPDEST JUMPDEST DUP1 PUSH1 0x40 MSTORE POP SWAP2 SWAP1 POP JUMP JUMPDEST PUSH1 0x0 PUSH8 0xFFFFFFFFFFFFFFFF DUP3 GT ISZERO PUSH2 0x44F JUMPI PUSH2 0x44E PUSH2 0x52D JUMP JUMPDEST JUMPDEST PUSH1 0x1F NOT PUSH1 0x1F DUP4 ADD AND SWAP1 POP PUSH1 0x20 DUP2 ADD SWAP1 POP SWAP2 SWAP1 POP JUMP JUMPDEST PUSH1 0x0 DUP2 MLOAD SWAP1 POP SWAP2 SWAP1 POP JUMP JUMPDEST PUSH1 0x0 DUP3 DUP3 MSTORE PUSH1 0x20 DUP3 ADD SWAP1 POP SWAP3 SWAP2 POP POP JUMP JUMPDEST PUSH1 0x0 DUP2 SWAP1 POP SWAP2 SWAP1 POP JUMP JUMPDEST DUP3 DUP2 DUP4 CALLDATACOPY PUSH1 0x0 DUP4 DUP4 ADD MSTORE POP POP POP JUMP JUMPDEST PUSH1 0x0 JUMPDEST DUP4 DUP2 LT ISZERO PUSH2 0x4B7 JUMPI DUP1 DUP3 ADD MLOAD DUP2 DUP5 ADD MSTORE PUSH1 0x20 DUP2 ADD SWAP1 POP PUSH2 0x49C JUMP JUMPDEST DUP4 DUP2 GT ISZERO PUSH2 0x4C6 JUMPI PUSH1 0x0 DUP5 DUP5 ADD MSTORE JUMPDEST POP POP POP POP JUMP JUMPDEST PUSH1 0x0 PUSH1 0x2 DUP3 DIV SWAP1 POP PUSH1 0x1 DUP3 AND DUP1 PUSH2 0x4E4 JUMPI PUSH1 0x7F DUP3 AND SWAP2 POP JUMPDEST PUSH1 0x20 DUP3 LT DUP2 EQ ISZERO PUSH2 0x4F8 JUMPI PUSH2 0x4F7 PUSH2 0x4FE JUMP JUMPDEST JUMPDEST POP SWAP2 SWAP1 POP JUMP JUMPDEST PUSH32 0x4E487B7100000000000000000000000000000000000000000000000000000000 PUSH1 0x0 MSTORE PUSH1 0x22 PUSH1 0x4 MSTORE PUSH1 0x24 PUSH1 0x0 REVERT JUMPDEST PUSH32 0x4E487B7100000000000000000000000000000000000000000000000000000000 PUSH1 0x0 MSTORE PUSH1 0x41 PUSH1 0x4 MSTORE PUSH1 0x24 PUSH1 0x0 REVERT JUMPDEST PUSH1 0x0 PUSH1 0x1F NOT PUSH1 0x1F DUP4 ADD AND SWAP1 POP SWAP2 SWAP1 POP JUMP INVALID LOG2 PUSH5 0x6970667358 0x22 SLT KECCAK256 0xC0 0xC6 0xB8 SIGNEXTEND 0xD2 0xB3 MOD SWAP13 DIFFICULTY 0xC1 0xAC BYTE MLOAD SWAP12 PUSH11 0x8CB3A688E99A2EFB335CEA AND LOG1 PUSH10 0x7B898564736F6C634300 ADDMOD STOP STOP CALLER "
				},
				"gasEstimates": {
					"creation": {
						"codeDepositCost": "288600",
						"executionCost": "infinite",
						"totalCost": "infinite"
					},
					"external": {
						"getAge()": "1286",
						"getName()": "infinite",
						"sayName()": "infinite",
						"setName(string)": "infinite"
					}
				},
				"methodIdentifiers": {
					"getAge()": "967e6e65",
					"getName()": "17d7de7c",
					"sayName()": "456e64cb",
					"setName(string)": "c47f0027"
				}
			},
			"storageLayout": {
				"storage": [
					{
						"astId": 4,
						"contract": "Functions.sol:Functions",
						"label": "name",
						"offset": 0,
						"slot": "0",
						"type": "t_string_storage"
					},
					{
						"astId": 7,
						"contract": "Functions.sol:Functions",
						"label": "age",
						"offset": 0,
						"slot": "1",
						"type": "t_uint256"
					}
				],
				"types": {
					"t_string_storage": {
						"encoding": "bytes",
						"label": "string",
						"numberOfBytes": "32"
					},
					"t_uint256": {
						"encoding": "inplace",
						"label": "uint256",
						"numberOfBytes": "32"
					}
				}
			},
			"userdoc": {
				"kind": "user",
				"methods": {},
				"version": 1
			}
		}
	}
}