{
	"Arrays.sol": {
		"Arrays": {
			"abi": [
				{
					"inputs": [
						{
							"internalType": "uint256",
							"name": "",
							"type": "uint256"
						}
					],
					"name": "arr",
					"outputs": [
						{
							"internalType": "uint256",
							"name": "",
							"type": "uint256"
						}
					],
					"stateMutability": "view",
					"type": "function"
				},
				{
					"inputs": [],
					"name": "b1",
					"outputs": [
						{
							"internalType": "bytes3",
							"name": "",
							"type": "bytes3"
						}
					],
					"stateMutability": "view",
					"type": "function"
				},
				{
					"inputs": [],
					"name": "b2",
					"outputs": [
						{
							"internalType": "bytes4",
							"name": "",
							"type": "bytes4"
						}
					],
					"stateMutability": "view",
					"type": "function"
				},
				{
					"inputs": [],
					"name": "b3",
					"outputs": [
						{
							"internalType": "bytes",
							"name": "",
							"type": "bytes"
						}
					],
					"stateMutability": "view",
					"type": "function"
				},
				{
					"inputs": [
						{
							"internalType": "uint256",
							"name": "i",
							"type": "uint256"
						}
					],
					"name": "getElement",
					"outputs": [
						{
							"internalType": "bytes1",
							"name": "",
							"type": "bytes1"
						}
					],
					"stateMutability": "view",
					"type": "function"
				},
				{
					"inputs": [],
					"name": "getLength",
					"outputs": [
						{
							"internalType": "uint256",
							"name": "",
							"type": "uint256"
						}
					],
					"stateMutability": "view",
					"type": "function"
				},
				{
					"inputs": [],
					"name": "getLength2",
					"outputs": [
						{
							"internalType": "uint256",
							"name": "",
							"type": "uint256"
						}
					],
					"stateMutability": "view",
					"type": "function"
				},
				{
					"inputs": [],
					"name": "length",
					"outputs": [
						{
							"internalType": "uint256",
							"name": "",
							"type": "uint256"
						}
					],
					"stateMutability": "view",
					"type": "function"
				},
				{
					"inputs": [
						{
							"internalType": "uint256",
							"name": "",
							"type": "uint256"
						}
					],
					"name": "numbers",
					"outputs": [
						{
							"internalType": "uint256",
							"name": "",
							"type": "uint256"
						}
					],
					"stateMutability": "view",
					"type": "function"
				},
				{
					"inputs": [],
					"name": "popElement",
					"outputs": [],
					"stateMutability": "nonpayable",
					"type": "function"
				},
				{
					"inputs": [],
					"name": "pushElement",
					"outputs": [],
					"stateMutability": "nonpayable",
					"type": "function"
				},
				{
					"inputs": [
						{
							"internalType": "uint256",
							"name": "element",
							"type": "uint256"
						}
					],
					"name": "pushElement",
					"outputs": [],
					"stateMutability": "nonpayable",
					"type": "function"
				},
				{
					"inputs": [],
					"name": "setter",
					"outputs": [],
					"stateMutability": "nonpayable",
					"type": "function"
				},
				{
					"inputs": [
						{
							"internalType": "uint256",
							"name": "index",
							"type": "uint256"
						},
						{
							"internalType": "uint256",
							"name": "value",
							"type": "uint256"
						}
					],
					"name": "setter",
					"outputs": [],
					"stateMutability": "nonpayable",
					"type": "function"
				}
			],
			"devdoc": {
				"kind": "dev",
				"methods": {},
				"version": 1
			},
			"evm": {
				"assembly": "    /* \"Arrays.sol\":134:2426  contract Arrays{... */\n  mstore(0x40, 0x80)\n    /* \"Arrays.sol\":235:269  uint[4] public numbers = [1,2,3,4] */\n  mload(0x40)\n  dup1\n  0x80\n  add\n  0x40\n  mstore\n  dup1\n    /* \"Arrays.sol\":261:262  1 */\n  0x01\n    /* \"Arrays.sol\":235:269  uint[4] public numbers = [1,2,3,4] */\n  0xff\n  and\n  dup2\n  mstore\n  0x20\n  add\n    /* \"Arrays.sol\":263:264  2 */\n  0x02\n    /* \"Arrays.sol\":235:269  uint[4] public numbers = [1,2,3,4] */\n  0xff\n  and\n  dup2\n  mstore\n  0x20\n  add\n    /* \"Arrays.sol\":265:266  3 */\n  0x03\n    /* \"Arrays.sol\":235:269  uint[4] public numbers = [1,2,3,4] */\n  0xff\n  and\n  dup2\n  mstore\n  0x20\n  add\n    /* \"Arrays.sol\":267:268  4 */\n  0x04\n    /* \"Arrays.sol\":235:269  uint[4] public numbers = [1,2,3,4] */\n  0xff\n  and\n  dup2\n  mstore\n  pop\n  0x00\n  swap1\n  0x04\n  tag_1\n  swap3\n  swap2\n  swap1\n  tag_2\n  jump\t// in\ntag_1:\n  pop\n    /* \"Arrays.sol\":2001:2024  bytes public b3 = 'abc' */\n  mload(0x40)\n  dup1\n  0x40\n  add\n  0x40\n  mstore\n  dup1\n  0x03\n  dup2\n  mstore\n  0x20\n  add\n  0x6162630000000000000000000000000000000000000000000000000000000000\n  dup2\n  mstore\n  pop\n  0x06\n  swap1\n  dup2\n  tag_3\n  swap2\n  swap1\n  tag_4\n  jump\t// in\ntag_3:\n  pop\n    /* \"Arrays.sol\":134:2426  contract Arrays{... */\n  callvalue\n  dup1\n  iszero\n  tag_5\n  jumpi\n  revert(0x00, 0x00)\ntag_5:\n  pop\n  jump(tag_6)\ntag_2:\n  dup3\n  0x04\n  dup2\n  add\n  swap3\n  dup3\n  iszero\n  tag_7\n  jumpi\n  swap2\n  0x20\n  mul\n  dup3\n  add\ntag_8:\n  dup3\n  dup2\n  gt\n  iszero\n  tag_9\n  jumpi\n  dup3\n  mload\n  dup3\n  swap1\n  0xff\n  and\n  swap1\n  sstore\n  swap2\n  0x20\n  add\n  swap2\n  swap1\n  0x01\n  add\n  swap1\n  jump(tag_8)\ntag_9:\ntag_7:\n  pop\n  swap1\n  pop\n  tag_10\n  swap2\n  swap1\n  tag_11\n  jump\t// in\ntag_10:\n  pop\n  swap1\n  jump\t// out\ntag_11:\ntag_12:\n  dup1\n  dup3\n  gt\n  iszero\n  tag_13\n  jumpi\n  0x00\n  dup2\n  0x00\n  swap1\n  sstore\n  pop\n  0x01\n  add\n  jump(tag_12)\ntag_13:\n  pop\n  swap1\n  jump\t// out\n    /* \"#utility.yul\":7:106   */\ntag_14:\n    /* \"#utility.yul\":59:65   */\n  0x00\n    /* \"#utility.yul\":93:98   */\n  dup2\n    /* \"#utility.yul\":87:99   */\n  mload\n    /* \"#utility.yul\":77:99   */\n  swap1\n  pop\n    /* \"#utility.yul\":7:106   */\n  swap2\n  swap1\n  pop\n  jump\t// out\n    /* \"#utility.yul\":112:292   */\ntag_15:\n    /* \"#utility.yul\":160:237   */\n  0x4e487b7100000000000000000000000000000000000000000000000000000000\n    /* \"#utility.yul\":157:158   */\n  0x00\n    /* \"#utility.yul\":150:238   */\n  mstore\n    /* \"#utility.yul\":257:261   */\n  0x41\n    /* \"#utility.yul\":254:255   */\n  0x04\n    /* \"#utility.yul\":247:262   */\n  mstore\n    /* \"#utility.yul\":281:285   */\n  0x24\n    /* \"#utility.yul\":278:279   */\n  0x00\n    /* \"#utility.yul\":271:286   */\n  revert\n    /* \"#utility.yul\":298:478   */\ntag_16:\n    /* \"#utility.yul\":346:423   */\n  0x4e487b7100000000000000000000000000000000000000000000000000000000\n    /* \"#utility.yul\":343:344   */\n  0x00\n    /* \"#utility.yul\":336:424   */\n  mstore\n    /* \"#utility.yul\":443:447   */\n  0x22\n    /* \"#utility.yul\":440:441   */\n  0x04\n    /* \"#utility.yul\":433:448   */\n  mstore\n    /* \"#utility.yul\":467:471   */\n  0x24\n    /* \"#utility.yul\":464:465   */\n  0x00\n    /* \"#utility.yul\":457:472   */\n  revert\n    /* \"#utility.yul\":484:804   */\ntag_17:\n    /* \"#utility.yul\":528:534   */\n  0x00\n    /* \"#utility.yul\":565:566   */\n  0x02\n    /* \"#utility.yul\":559:563   */\n  dup3\n    /* \"#utility.yul\":555:567   */\n  div\n    /* \"#utility.yul\":545:567   */\n  swap1\n  pop\n    /* \"#utility.yul\":612:613   */\n  0x01\n    /* \"#utility.yul\":606:610   */\n  dup3\n    /* \"#utility.yul\":602:614   */\n  and\n    /* \"#utility.yul\":633:651   */\n  dup1\n    /* \"#utility.yul\":623:704   */\n  tag_39\n  jumpi\n    /* \"#utility.yul\":689:693   */\n  0x7f\n    /* \"#utility.yul\":681:687   */\n  dup3\n    /* \"#utility.yul\":677:694   */\n  and\n    /* \"#utility.yul\":667:694   */\n  swap2\n  pop\n    /* \"#utility.yul\":623:704   */\ntag_39:\n    /* \"#utility.yul\":751:753   */\n  0x20\n    /* \"#utility.yul\":743:749   */\n  dup3\n    /* \"#utility.yul\":740:754   */\n  lt\n    /* \"#utility.yul\":720:738   */\n  dup2\n    /* \"#utility.yul\":717:755   */\n  sub\n    /* \"#utility.yul\":714:798   */\n  tag_40\n  jumpi\n    /* \"#utility.yul\":770:788   */\n  tag_41\n  tag_16\n  jump\t// in\ntag_41:\n    /* \"#utility.yul\":714:798   */\ntag_40:\n    /* \"#utility.yul\":535:804   */\n  pop\n    /* \"#utility.yul\":484:804   */\n  swap2\n  swap1\n  pop\n  jump\t// out\n    /* \"#utility.yul\":810:950   */\ntag_18:\n    /* \"#utility.yul\":858:862   */\n  0x00\n    /* \"#utility.yul\":881:884   */\n  dup2\n    /* \"#utility.yul\":873:884   */\n  swap1\n  pop\n    /* \"#utility.yul\":904:907   */\n  dup2\n    /* \"#utility.yul\":901:902   */\n  0x00\n    /* \"#utility.yul\":894:908   */\n  mstore\n    /* \"#utility.yul\":938:942   */\n  0x20\n    /* \"#utility.yul\":935:936   */\n  0x00\n    /* \"#utility.yul\":925:943   */\n  keccak256\n    /* \"#utility.yul\":917:943   */\n  swap1\n  pop\n    /* \"#utility.yul\":810:950   */\n  swap2\n  swap1\n  pop\n  jump\t// out\n    /* \"#utility.yul\":956:1049   */\ntag_19:\n    /* \"#utility.yul\":993:999   */\n  0x00\n    /* \"#utility.yul\":1040:1042   */\n  0x20\n    /* \"#utility.yul\":1035:1037   */\n  0x1f\n    /* \"#utility.yul\":1028:1033   */\n  dup4\n    /* \"#utility.yul\":1024:1038   */\n  add\n    /* \"#utility.yul\":1020:1043   */\n  div\n    /* \"#utility.yul\":1010:1043   */\n  swap1\n  pop\n    /* \"#utility.yul\":956:1049   */\n  swap2\n  swap1\n  pop\n  jump\t// out\n    /* \"#utility.yul\":1055:1162   */\ntag_20:\n    /* \"#utility.yul\":1099:1107   */\n  0x00\n    /* \"#utility.yul\":1149:1154   */\n  dup3\n    /* \"#utility.yul\":1143:1147   */\n  dup3\n    /* \"#utility.yul\":1139:1155   */\n  shl\n    /* \"#utility.yul\":1118:1155   */\n  swap1\n  pop\n    /* \"#utility.yul\":1055:1162   */\n  swap3\n  swap2\n  pop\n  pop\n  jump\t// out\n    /* \"#utility.yul\":1168:1561   */\ntag_21:\n    /* \"#utility.yul\":1237:1243   */\n  0x00\n    /* \"#utility.yul\":1287:1288   */\n  0x08\n    /* \"#utility.yul\":1275:1285   */\n  dup4\n    /* \"#utility.yul\":1271:1289   */\n  mul\n    /* \"#utility.yul\":1310:1407   */\n  tag_46\n    /* \"#utility.yul\":1340:1406   */\n  0xffffffffffffffffffffffffffffffffffffffffffffffffffffffffffffffff\n    /* \"#utility.yul\":1329:1338   */\n  dup3\n    /* \"#utility.yul\":1310:1407   */\n  tag_20\n  jump\t// in\ntag_46:\n    /* \"#utility.yul\":1428:1467   */\n  tag_47\n    /* \"#utility.yul\":1458:1466   */\n  dup7\n    /* \"#utility.yul\":1447:1456   */\n  dup4\n    /* \"#utility.yul\":1428:1467   */\n  tag_20\n  jump\t// in\ntag_47:\n    /* \"#utility.yul\":1416:1467   */\n  swap6\n  pop\n    /* \"#utility.yul\":1500:1504   */\n  dup1\n    /* \"#utility.yul\":1496:1505   */\n  not\n    /* \"#utility.yul\":1489:1494   */\n  dup5\n    /* \"#utility.yul\":1485:1506   */\n  and\n    /* \"#utility.yul\":1476:1506   */\n  swap4\n  pop\n    /* \"#utility.yul\":1549:1553   */\n  dup1\n    /* \"#utility.yul\":1539:1547   */\n  dup7\n    /* \"#utility.yul\":1535:1554   */\n  and\n    /* \"#utility.yul\":1528:1533   */\n  dup5\n    /* \"#utility.yul\":1525:1555   */\n  or\n    /* \"#utility.yul\":1515:1555   */\n  swap3\n  pop\n    /* \"#utility.yul\":1244:1561   */\n  pop\n  pop\n    /* \"#utility.yul\":1168:1561   */\n  swap4\n  swap3\n  pop\n  pop\n  pop\n  jump\t// out\n    /* \"#utility.yul\":1567:1644   */\ntag_22:\n    /* \"#utility.yul\":1604:1611   */\n  0x00\n    /* \"#utility.yul\":1633:1638   */\n  dup2\n    /* \"#utility.yul\":1622:1638   */\n  swap1\n  pop\n    /* \"#utility.yul\":1567:1644   */\n  swap2\n  swap1\n  pop\n  jump\t// out\n    /* \"#utility.yul\":1650:1710   */\ntag_23:\n    /* \"#utility.yul\":1678:1681   */\n  0x00\n    /* \"#utility.yul\":1699:1704   */\n  dup2\n    /* \"#utility.yul\":1692:1704   */\n  swap1\n  pop\n    /* \"#utility.yul\":1650:1710   */\n  swap2\n  swap1\n  pop\n  jump\t// out\n    /* \"#utility.yul\":1716:1858   */\ntag_24:\n    /* \"#utility.yul\":1766:1775   */\n  0x00\n    /* \"#utility.yul\":1799:1852   */\n  tag_51\n    /* \"#utility.yul\":1817:1851   */\n  tag_52\n    /* \"#utility.yul\":1826:1850   */\n  tag_53\n    /* \"#utility.yul\":1844:1849   */\n  dup5\n    /* \"#utility.yul\":1826:1850   */\n  tag_22\n  jump\t// in\ntag_53:\n    /* \"#utility.yul\":1817:1851   */\n  tag_23\n  jump\t// in\ntag_52:\n    /* \"#utility.yul\":1799:1852   */\n  tag_22\n  jump\t// in\ntag_51:\n    /* \"#utility.yul\":1786:1852   */\n  swap1\n  pop\n    /* \"#utility.yul\":1716:1858   */\n  swap2\n  swap1\n  pop\n  jump\t// out\n    /* \"#utility.yul\":1864:1939   */\ntag_25:\n    /* \"#utility.yul\":1907:1910   */\n  0x00\n    /* \"#utility.yul\":1928:1933   */\n  dup2\n    /* \"#utility.yul\":1921:1933   */\n  swap1\n  pop\n    /* \"#utility.yul\":1864:1939   */\n  swap2\n  swap1\n  pop\n  jump\t// out\n    /* \"#utility.yul\":1945:2214   */\ntag_26:\n    /* \"#utility.yul\":2055:2094   */\n  tag_56\n    /* \"#utility.yul\":2086:2093   */\n  dup4\n    /* \"#utility.yul\":2055:2094   */\n  tag_24\n  jump\t// in\ntag_56:\n    /* \"#utility.yul\":2116:2207   */\n  tag_57\n    /* \"#utility.yul\":2165:2206   */\n  tag_58\n    /* \"#utility.yul\":2189:2205   */\n  dup3\n    /* \"#utility.yul\":2165:2206   */\n  tag_25\n  jump\t// in\ntag_58:\n    /* \"#utility.yul\":2157:2163   */\n  dup5\n    /* \"#utility.yul\":2150:2154   */\n  dup5\n    /* \"#utility.yul\":2144:2155   */\n  sload\n    /* \"#utility.yul\":2116:2207   */\n  tag_21\n  jump\t// in\ntag_57:\n    /* \"#utility.yul\":2110:2114   */\n  dup3\n    /* \"#utility.yul\":2103:2208   */\n  sstore\n    /* \"#utility.yul\":2021:2214   */\n  pop\n    /* \"#utility.yul\":1945:2214   */\n  pop\n  pop\n  pop\n  jump\t// out\n    /* \"#utility.yul\":2220:2293   */\ntag_27:\n    /* \"#utility.yul\":2265:2268   */\n  0x00\n    /* \"#utility.yul\":2286:2287   */\n  0x00\n    /* \"#utility.yul\":2279:2287   */\n  swap1\n  pop\n    /* \"#utility.yul\":2220:2293   */\n  swap1\n  jump\t// out\n    /* \"#utility.yul\":2299:2488   */\ntag_28:\n    /* \"#utility.yul\":2376:2408   */\n  tag_61\n  tag_27\n  jump\t// in\ntag_61:\n    /* \"#utility.yul\":2417:2482   */\n  tag_62\n    /* \"#utility.yul\":2475:2481   */\n  dup2\n    /* \"#utility.yul\":2467:2473   */\n  dup5\n    /* \"#utility.yul\":2461:2465   */\n  dup5\n    /* \"#utility.yul\":2417:2482   */\n  tag_26\n  jump\t// in\ntag_62:\n    /* \"#utility.yul\":2352:2488   */\n  pop\n    /* \"#utility.yul\":2299:2488   */\n  pop\n  pop\n  jump\t// out\n    /* \"#utility.yul\":2494:2680   */\ntag_29:\n    /* \"#utility.yul\":2554:2674   */\ntag_64:\n    /* \"#utility.yul\":2571:2574   */\n  dup2\n    /* \"#utility.yul\":2564:2569   */\n  dup2\n    /* \"#utility.yul\":2561:2575   */\n  lt\n    /* \"#utility.yul\":2554:2674   */\n  iszero\n  tag_66\n  jumpi\n    /* \"#utility.yul\":2625:2664   */\n  tag_67\n    /* \"#utility.yul\":2662:2663   */\n  0x00\n    /* \"#utility.yul\":2655:2660   */\n  dup3\n    /* \"#utility.yul\":2625:2664   */\n  tag_28\n  jump\t// in\ntag_67:\n    /* \"#utility.yul\":2598:2599   */\n  0x01\n    /* \"#utility.yul\":2591:2596   */\n  dup2\n    /* \"#utility.yul\":2587:2600   */\n  add\n    /* \"#utility.yul\":2578:2600   */\n  swap1\n  pop\n    /* \"#utility.yul\":2554:2674   */\n  jump(tag_64)\ntag_66:\n    /* \"#utility.yul\":2494:2680   */\n  pop\n  pop\n  jump\t// out\n    /* \"#utility.yul\":2686:3227   */\ntag_30:\n    /* \"#utility.yul\":2786:2788   */\n  0x1f\n    /* \"#utility.yul\":2781:2784   */\n  dup3\n    /* \"#utility.yul\":2778:2789   */\n  gt\n    /* \"#utility.yul\":2775:3220   */\n  iszero\n  tag_69\n  jumpi\n    /* \"#utility.yul\":2820:2857   */\n  tag_70\n    /* \"#utility.yul\":2851:2856   */\n  dup2\n    /* \"#utility.yul\":2820:2857   */\n  tag_18\n  jump\t// in\ntag_70:\n    /* \"#utility.yul\":2903:2932   */\n  tag_71\n    /* \"#utility.yul\":2921:2931   */\n  dup5\n    /* \"#utility.yul\":2903:2932   */\n  tag_19\n  jump\t// in\ntag_71:\n    /* \"#utility.yul\":2893:2901   */\n  dup2\n    /* \"#utility.yul\":2889:2933   */\n  add\n    /* \"#utility.yul\":3086:3088   */\n  0x20\n    /* \"#utility.yul\":3074:3084   */\n  dup6\n    /* \"#utility.yul\":3071:3089   */\n  lt\n    /* \"#utility.yul\":3068:3117   */\n  iszero\n  tag_72\n  jumpi\n    /* \"#utility.yul\":3107:3115   */\n  dup2\n    /* \"#utility.yul\":3092:3115   */\n  swap1\n  pop\n    /* \"#utility.yul\":3068:3117   */\ntag_72:\n    /* \"#utility.yul\":3130:3210   */\n  tag_73\n    /* \"#utility.yul\":3186:3208   */\n  tag_74\n    /* \"#utility.yul\":3204:3207   */\n  dup6\n    /* \"#utility.yul\":3186:3208   */\n  tag_19\n  jump\t// in\ntag_74:\n    /* \"#utility.yul\":3176:3184   */\n  dup4\n    /* \"#utility.yul\":3172:3209   */\n  add\n    /* \"#utility.yul\":3159:3170   */\n  dup3\n    /* \"#utility.yul\":3130:3210   */\n  tag_29\n  jump\t// in\ntag_73:\n    /* \"#utility.yul\":2790:3220   */\n  pop\n  pop\n    /* \"#utility.yul\":2775:3220   */\ntag_69:\n    /* \"#utility.yul\":2686:3227   */\n  pop\n  pop\n  pop\n  jump\t// out\n    /* \"#utility.yul\":3233:3350   */\ntag_31:\n    /* \"#utility.yul\":3287:3295   */\n  0x00\n    /* \"#utility.yul\":3337:3342   */\n  dup3\n    /* \"#utility.yul\":3331:3335   */\n  dup3\n    /* \"#utility.yul\":3327:3343   */\n  shr\n    /* \"#utility.yul\":3306:3343   */\n  swap1\n  pop\n    /* \"#utility.yul\":3233:3350   */\n  swap3\n  swap2\n  pop\n  pop\n  jump\t// out\n    /* \"#utility.yul\":3356:3525   */\ntag_32:\n    /* \"#utility.yul\":3400:3406   */\n  0x00\n    /* \"#utility.yul\":3433:3484   */\n  tag_77\n    /* \"#utility.yul\":3481:3482   */\n  0x00\n    /* \"#utility.yul\":3477:3483   */\n  not\n    /* \"#utility.yul\":3469:3474   */\n  dup5\n    /* \"#utility.yul\":3466:3467   */\n  0x08\n    /* \"#utility.yul\":3462:3475   */\n  mul\n    /* \"#utility.yul\":3433:3484   */\n  tag_31\n  jump\t// in\ntag_77:\n    /* \"#utility.yul\":3429:3485   */\n  not\n    /* \"#utility.yul\":3514:3518   */\n  dup1\n    /* \"#utility.yul\":3508:3512   */\n  dup4\n    /* \"#utility.yul\":3504:3519   */\n  and\n    /* \"#utility.yul\":3494:3519   */\n  swap2\n  pop\n    /* \"#utility.yul\":3407:3525   */\n  pop\n    /* \"#utility.yul\":3356:3525   */\n  swap3\n  swap2\n  pop\n  pop\n  jump\t// out\n    /* \"#utility.yul\":3530:3825   */\ntag_33:\n    /* \"#utility.yul\":3606:3610   */\n  0x00\n    /* \"#utility.yul\":3752:3781   */\n  tag_79\n    /* \"#utility.yul\":3777:3780   */\n  dup4\n    /* \"#utility.yul\":3771:3775   */\n  dup4\n    /* \"#utility.yul\":3752:3781   */\n  tag_32\n  jump\t// in\ntag_79:\n    /* \"#utility.yul\":3744:3781   */\n  swap2\n  pop\n    /* \"#utility.yul\":3814:3817   */\n  dup3\n    /* \"#utility.yul\":3811:3812   */\n  0x02\n    /* \"#utility.yul\":3807:3818   */\n  mul\n    /* \"#utility.yul\":3801:3805   */\n  dup3\n    /* \"#utility.yul\":3798:3819   */\n  or\n    /* \"#utility.yul\":3790:3819   */\n  swap1\n  pop\n    /* \"#utility.yul\":3530:3825   */\n  swap3\n  swap2\n  pop\n  pop\n  jump\t// out\n    /* \"#utility.yul\":3830:5222   */\ntag_4:\n    /* \"#utility.yul\":3946:3983   */\n  tag_81\n    /* \"#utility.yul\":3979:3982   */\n  dup3\n    /* \"#utility.yul\":3946:3983   */\n  tag_14\n  jump\t// in\ntag_81:\n    /* \"#utility.yul\":4048:4066   */\n  0xffffffffffffffff\n    /* \"#utility.yul\":4040:4046   */\n  dup2\n    /* \"#utility.yul\":4037:4067   */\n  gt\n    /* \"#utility.yul\":4034:4090   */\n  iszero\n  tag_82\n  jumpi\n    /* \"#utility.yul\":4070:4088   */\n  tag_83\n  tag_15\n  jump\t// in\ntag_83:\n    /* \"#utility.yul\":4034:4090   */\ntag_82:\n    /* \"#utility.yul\":4114:4152   */\n  tag_84\n    /* \"#utility.yul\":4146:4150   */\n  dup3\n    /* \"#utility.yul\":4140:4151   */\n  sload\n    /* \"#utility.yul\":4114:4152   */\n  tag_17\n  jump\t// in\ntag_84:\n    /* \"#utility.yul\":4199:4265   */\n  tag_85\n    /* \"#utility.yul\":4258:4264   */\n  dup3\n    /* \"#utility.yul\":4250:4256   */\n  dup3\n    /* \"#utility.yul\":4244:4248   */\n  dup6\n    /* \"#utility.yul\":4199:4265   */\n  tag_30\n  jump\t// in\ntag_85:\n    /* \"#utility.yul\":4292:4293   */\n  0x00\n    /* \"#utility.yul\":4316:4320   */\n  0x20\n    /* \"#utility.yul\":4303:4320   */\n  swap1\n  pop\n    /* \"#utility.yul\":4348:4350   */\n  0x1f\n    /* \"#utility.yul\":4340:4346   */\n  dup4\n    /* \"#utility.yul\":4337:4351   */\n  gt\n    /* \"#utility.yul\":4365:4366   */\n  0x01\n    /* \"#utility.yul\":4360:4977   */\n  dup2\n  eq\n  tag_87\n  jumpi\n    /* \"#utility.yul\":5021:5022   */\n  0x00\n    /* \"#utility.yul\":5038:5044   */\n  dup5\n    /* \"#utility.yul\":5035:5112   */\n  iszero\n  tag_88\n  jumpi\n    /* \"#utility.yul\":5087:5096   */\n  dup3\n    /* \"#utility.yul\":5082:5085   */\n  dup8\n    /* \"#utility.yul\":5078:5097   */\n  add\n    /* \"#utility.yul\":5072:5098   */\n  mload\n    /* \"#utility.yul\":5063:5098   */\n  swap1\n  pop\n    /* \"#utility.yul\":5035:5112   */\ntag_88:\n    /* \"#utility.yul\":5138:5205   */\n  tag_89\n    /* \"#utility.yul\":5198:5204   */\n  dup6\n    /* \"#utility.yul\":5191:5196   */\n  dup3\n    /* \"#utility.yul\":5138:5205   */\n  tag_33\n  jump\t// in\ntag_89:\n    /* \"#utility.yul\":5132:5136   */\n  dup7\n    /* \"#utility.yul\":5125:5206   */\n  sstore\n    /* \"#utility.yul\":4994:5216   */\n  pop\n    /* \"#utility.yul\":4330:5216   */\n  jump(tag_86)\n    /* \"#utility.yul\":4360:4977   */\ntag_87:\n    /* \"#utility.yul\":4412:4416   */\n  0x1f\n    /* \"#utility.yul\":4408:4417   */\n  not\n    /* \"#utility.yul\":4400:4406   */\n  dup5\n    /* \"#utility.yul\":4396:4418   */\n  and\n    /* \"#utility.yul\":4446:4482   */\n  tag_90\n    /* \"#utility.yul\":4477:4481   */\n  dup7\n    /* \"#utility.yul\":4446:4482   */\n  tag_18\n  jump\t// in\ntag_90:\n    /* \"#utility.yul\":4504:4505   */\n  0x00\n    /* \"#utility.yul\":4518:4726   */\ntag_91:\n    /* \"#utility.yul\":4532:4539   */\n  dup3\n    /* \"#utility.yul\":4529:4530   */\n  dup2\n    /* \"#utility.yul\":4526:4540   */\n  lt\n    /* \"#utility.yul\":4518:4726   */\n  iszero\n  tag_93\n  jumpi\n    /* \"#utility.yul\":4611:4620   */\n  dup5\n    /* \"#utility.yul\":4606:4609   */\n  dup10\n    /* \"#utility.yul\":4602:4621   */\n  add\n    /* \"#utility.yul\":4596:4622   */\n  mload\n    /* \"#utility.yul\":4588:4594   */\n  dup3\n    /* \"#utility.yul\":4581:4623   */\n  sstore\n    /* \"#utility.yul\":4662:4663   */\n  0x01\n    /* \"#utility.yul\":4654:4660   */\n  dup3\n    /* \"#utility.yul\":4650:4664   */\n  add\n    /* \"#utility.yul\":4640:4664   */\n  swap2\n  pop\n    /* \"#utility.yul\":4709:4711   */\n  0x20\n    /* \"#utility.yul\":4698:4707   */\n  dup6\n    /* \"#utility.yul\":4694:4712   */\n  add\n    /* \"#utility.yul\":4681:4712   */\n  swap5\n  pop\n    /* \"#utility.yul\":4555:4559   */\n  0x20\n    /* \"#utility.yul\":4552:4553   */\n  dup2\n    /* \"#utility.yul\":4548:4560   */\n  add\n    /* \"#utility.yul\":4543:4560   */\n  swap1\n  pop\n    /* \"#utility.yul\":4518:4726   */\n  jump(tag_91)\ntag_93:\n    /* \"#utility.yul\":4754:4760   */\n  dup7\n    /* \"#utility.yul\":4745:4752   */\n  dup4\n    /* \"#utility.yul\":4742:4761   */\n  lt\n    /* \"#utility.yul\":4739:4918   */\n  iszero\n  tag_94\n  jumpi\n    /* \"#utility.yul\":4812:4821   */\n  dup5\n    /* \"#utility.yul\":4807:4810   */\n  dup10\n    /* \"#utility.yul\":4803:4822   */\n  add\n    /* \"#utility.yul\":4797:4823   */\n  mload\n    /* \"#utility.yul\":4855:4903   */\n  tag_95\n    /* \"#utility.yul\":4897:4901   */\n  0x1f\n    /* \"#utility.yul\":4889:4895   */\n  dup10\n    /* \"#utility.yul\":4885:4902   */\n  and\n    /* \"#utility.yul\":4874:4883   */\n  dup3\n    /* \"#utility.yul\":4855:4903   */\n  tag_32\n  jump\t// in\ntag_95:\n    /* \"#utility.yul\":4847:4853   */\n  dup4\n    /* \"#utility.yul\":4840:4904   */\n  sstore\n    /* \"#utility.yul\":4762:4918   */\n  pop\n    /* \"#utility.yul\":4739:4918   */\ntag_94:\n    /* \"#utility.yul\":4964:4965   */\n  0x01\n    /* \"#utility.yul\":4960:4961   */\n  0x02\n    /* \"#utility.yul\":4952:4958   */\n  dup9\n    /* \"#utility.yul\":4948:4962   */\n  mul\n    /* \"#utility.yul\":4944:4966   */\n  add\n    /* \"#utility.yul\":4938:4942   */\n  dup9\n    /* \"#utility.yul\":4931:4967   */\n  sstore\n    /* \"#utility.yul\":4367:4977   */\n  pop\n  pop\n  pop\n    /* \"#utility.yul\":4330:5216   */\ntag_86:\n  pop\n    /* \"#utility.yul\":3921:5222   */\n  pop\n  pop\n  pop\n    /* \"#utility.yul\":3830:5222   */\n  pop\n  pop\n  jump\t// out\n    /* \"Arrays.sol\":134:2426  contract Arrays{... */\ntag_6:\n  dataSize(sub_0)\n  dup1\n  dataOffset(sub_0)\n  0x00\n  codecopy\n  0x00\n  return\nstop\n\nsub_0: assembly {\n        /* \"Arrays.sol\":134:2426  contract Arrays{... */\n      mstore(0x40, 0x80)\n      callvalue\n      dup1\n      iszero\n      tag_1\n      jumpi\n      revert(0x00, 0x00)\n    tag_1:\n      pop\n      jumpi(tag_2, lt(calldatasize, 0x04))\n      shr(0xe0, calldataload(0x00))\n      dup1\n      0x71e5ee5f\n      gt\n      tag_17\n      jumpi\n      dup1\n      0xbe1c766b\n      gt\n      tag_18\n      jumpi\n      dup1\n      0xbe1c766b\n      eq\n      tag_13\n      jumpi\n      dup1\n      0xd39fa233\n      eq\n      tag_14\n      jumpi\n      dup1\n      0xe9b61909\n      eq\n      tag_15\n      jumpi\n      dup1\n      0xee495002\n      eq\n      tag_16\n      jumpi\n      jump(tag_2)\n    tag_18:\n      dup1\n      0x71e5ee5f\n      eq\n      tag_10\n      jumpi\n      dup1\n      0x78321efb\n      eq\n      tag_11\n      jumpi\n      dup1\n      0x9a6fcbdd\n      eq\n      tag_12\n      jumpi\n      jump(tag_2)\n    tag_17:\n      dup1\n      0x2aab02d0\n      gt\n      tag_19\n      jumpi\n      dup1\n      0x2aab02d0\n      eq\n      tag_6\n      jumpi\n      dup1\n      0x3a7d22bc\n      eq\n      tag_7\n      jumpi\n      dup1\n      0x3f3108f7\n      eq\n      tag_8\n      jumpi\n      dup1\n      0x5298f36d\n      eq\n      tag_9\n      jumpi\n      jump(tag_2)\n    tag_19:\n      dup1\n      0x0317d5f3\n      eq\n      tag_3\n      jumpi\n      dup1\n      0x0add6ef2\n      eq\n      tag_4\n      jumpi\n      dup1\n      0x1f7b6d32\n      eq\n      tag_5\n      jumpi\n    tag_2:\n      revert(0x00, 0x00)\n        /* \"Arrays.sol\":2068:2129  function pushElement() public {... */\n    tag_3:\n      tag_20\n      tag_21\n      jump\t// in\n    tag_20:\n      stop\n        /* \"Arrays.sol\":1395:1411  bytes4 public b2 */\n    tag_4:\n      tag_22\n      tag_23\n      jump\t// in\n    tag_22:\n      mload(0x40)\n      tag_24\n      swap2\n      swap1\n      tag_25\n      jump\t// in\n    tag_24:\n      mload(0x40)\n      dup1\n      swap2\n      sub\n      swap1\n      return\n        /* \"Arrays.sol\":554:638  function length() public view returns (uint){... */\n    tag_5:\n      tag_26\n      tag_27\n      jump\t// in\n    tag_26:\n      mload(0x40)\n      tag_28\n      swap2\n      swap1\n      tag_29\n      jump\t// in\n    tag_28:\n      mload(0x40)\n      dup1\n      swap2\n      sub\n      swap1\n      return\n        /* \"Arrays.sol\":2296:2379  function getLength2() public view returns (uint){... */\n    tag_6:\n      tag_30\n      tag_31\n      jump\t// in\n    tag_30:\n      mload(0x40)\n      tag_32\n      swap2\n      swap1\n      tag_29\n      jump\t// in\n    tag_32:\n      mload(0x40)\n      dup1\n      swap2\n      sub\n      swap1\n      return\n        /* \"Arrays.sol\":2176:2263  function getElement(uint i) public view returns (bytes1){... */\n    tag_7:\n      tag_33\n      0x04\n      dup1\n      calldatasize\n      sub\n      dup2\n      add\n      swap1\n      tag_34\n      swap2\n      swap1\n      tag_35\n      jump\t// in\n    tag_34:\n      tag_36\n      jump\t// in\n    tag_33:\n      mload(0x40)\n      tag_37\n      swap2\n      swap1\n      tag_38\n      jump\t// in\n    tag_37:\n      mload(0x40)\n      dup1\n      swap2\n      sub\n      swap1\n      return\n        /* \"Arrays.sol\":1514:1885  function setter() public {... */\n    tag_8:\n      tag_39\n      tag_40\n      jump\t// in\n    tag_39:\n      stop\n        /* \"Arrays.sol\":420:507  function setter(uint index, uint value) public {... */\n    tag_9:\n      tag_41\n      0x04\n      dup1\n      calldatasize\n      sub\n      dup2\n      add\n      swap1\n      tag_42\n      swap2\n      swap1\n      tag_43\n      jump\t// in\n    tag_42:\n      tag_44\n      jump\t// in\n    tag_41:\n      stop\n        /* \"Arrays.sol\":677:694  uint[] public arr */\n    tag_10:\n      tag_45\n      0x04\n      dup1\n      calldatasize\n      sub\n      dup2\n      add\n      swap1\n      tag_46\n      swap2\n      swap1\n      tag_35\n      jump\t// in\n    tag_46:\n      tag_47\n      jump\t// in\n    tag_45:\n      mload(0x40)\n      tag_48\n      swap2\n      swap1\n      tag_29\n      jump\t// in\n    tag_48:\n      mload(0x40)\n      dup1\n      swap2\n      sub\n      swap1\n      return\n        /* \"Arrays.sol\":701:778  function pushElement(uint element) public{... */\n    tag_11:\n      tag_49\n      0x04\n      dup1\n      calldatasize\n      sub\n      dup2\n      add\n      swap1\n      tag_50\n      swap2\n      swap1\n      tag_35\n      jump\t// in\n    tag_50:\n      tag_51\n      jump\t// in\n    tag_49:\n      stop\n        /* \"Arrays.sol\":791:890  function popElement() public{  // removes the last element of the array... */\n    tag_12:\n      tag_52\n      tag_53\n      jump\t// in\n    tag_52:\n      stop\n        /* \"Arrays.sol\":898:982  function getLength() public view returns (uint) {... */\n    tag_13:\n      tag_54\n      tag_55\n      jump\t// in\n    tag_54:\n      mload(0x40)\n      tag_56\n      swap2\n      swap1\n      tag_29\n      jump\t// in\n    tag_56:\n      mload(0x40)\n      dup1\n      swap2\n      sub\n      swap1\n      return\n        /* \"Arrays.sol\":235:269  uint[4] public numbers = [1,2,3,4] */\n    tag_14:\n      tag_57\n      0x04\n      dup1\n      calldatasize\n      sub\n      dup2\n      add\n      swap1\n      tag_58\n      swap2\n      swap1\n      tag_35\n      jump\t// in\n    tag_58:\n      tag_59\n      jump\t// in\n    tag_57:\n      mload(0x40)\n      tag_60\n      swap2\n      swap1\n      tag_29\n      jump\t// in\n    tag_60:\n      mload(0x40)\n      dup1\n      swap2\n      sub\n      swap1\n      return\n        /* \"Arrays.sol\":2001:2024  bytes public b3 = 'abc' */\n    tag_15:\n      tag_61\n      tag_62\n      jump\t// in\n    tag_61:\n      mload(0x40)\n      tag_63\n      swap2\n      swap1\n      tag_64\n      jump\t// in\n    tag_63:\n      mload(0x40)\n      dup1\n      swap2\n      sub\n      swap1\n      return\n        /* \"Arrays.sol\":1278:1294  bytes3 public b1 */\n    tag_16:\n      tag_65\n      tag_66\n      jump\t// in\n    tag_65:\n      mload(0x40)\n      tag_67\n      swap2\n      swap1\n      tag_68\n      jump\t// in\n    tag_67:\n      mload(0x40)\n      dup1\n      swap2\n      sub\n      swap1\n      return\n        /* \"Arrays.sol\":2068:2129  function pushElement() public {... */\n    tag_21:\n        /* \"Arrays.sol\":2109:2111  b3 */\n      0x06\n        /* \"Arrays.sol\":2109:2121  b3.push('d') */\n      dup1\n      dup1\n      sload\n      dup1\n      tag_70\n      swap1\n      tag_71\n      jump\t// in\n    tag_70:\n      dup1\n      0x1f\n      dup2\n      sub\n      tag_72\n      jumpi\n      dup4\n      0x00\n      mstore\n      keccak256(0x00, 0x20)\n      not(0xff)\n      dup5\n      and\n      dup2\n      sstore\n      0x3f\n      swap4\n      pop\n      pop\n    tag_72:\n      pop\n      0x02\n      dup3\n      add\n      dup4\n      sstore\n      0x01\n      dup2\n      add\n      swap3\n      pop\n      pop\n      pop\n      0x01\n      swap1\n      sub\n      dup2\n      sload\n      0x01\n      and\n      iszero\n      tag_74\n      jumpi\n      swap1\n      0x00\n      mstore\n      keccak256(0x00, 0x20)\n      swap1\n      0x20\n      swap2\n      dup3\n      dup3\n      div\n      add\n      swap2\n      swap1\n      mod\n    tag_74:\n      0x6400000000000000000000000000000000000000000000000000000000000000\n      swap1\n      swap2\n      swap1\n      swap2\n      0x1f\n      sub\n      0x0100\n      exp\n      dup2\n      sload\n      dup2\n      0xff\n      mul\n      not\n      and\n      swap1\n      0x0100000000000000000000000000000000000000000000000000000000000000\n      dup5\n      div\n      mul\n      or\n      swap1\n      sstore\n      pop\n        /* \"Arrays.sol\":2068:2129  function pushElement() public {... */\n      jump\t// out\n        /* \"Arrays.sol\":1395:1411  bytes4 public b2 */\n    tag_23:\n      0x05\n      0x03\n      swap1\n      sload\n      swap1\n      0x0100\n      exp\n      swap1\n      div\n      0xe0\n      shl\n      dup2\n      jump\t// out\n        /* \"Arrays.sol\":554:638  function length() public view returns (uint){... */\n    tag_27:\n        /* \"Arrays.sol\":593:597  uint */\n      0x00\n        /* \"Arrays.sol\":616:630  numbers.length */\n      0x04\n        /* \"Arrays.sol\":609:630  return numbers.length */\n      swap1\n      pop\n        /* \"Arrays.sol\":554:638  function length() public view returns (uint){... */\n      swap1\n      jump\t// out\n        /* \"Arrays.sol\":2296:2379  function getLength2() public view returns (uint){... */\n    tag_31:\n        /* \"Arrays.sol\":2339:2343  uint */\n      0x00\n        /* \"Arrays.sol\":2362:2364  b3 */\n      0x06\n        /* \"Arrays.sol\":2362:2371  b3.length */\n      dup1\n      sload\n      tag_77\n      swap1\n      tag_71\n      jump\t// in\n    tag_77:\n      swap1\n      pop\n        /* \"Arrays.sol\":2355:2371  return b3.length */\n      swap1\n      pop\n        /* \"Arrays.sol\":2296:2379  function getLength2() public view returns (uint){... */\n      swap1\n      jump\t// out\n        /* \"Arrays.sol\":2176:2263  function getElement(uint i) public view returns (bytes1){... */\n    tag_36:\n        /* \"Arrays.sol\":2225:2231  bytes1 */\n      0x00\n        /* \"Arrays.sol\":2250:2252  b3 */\n      0x06\n        /* \"Arrays.sol\":2253:2254  i */\n      dup3\n        /* \"Arrays.sol\":2250:2255  b3[i] */\n      dup2\n      sload\n      tag_79\n      swap1\n      tag_71\n      jump\t// in\n    tag_79:\n      dup2\n      lt\n      tag_80\n      jumpi\n      tag_81\n      tag_82\n      jump\t// in\n    tag_81:\n    tag_80:\n      dup2\n      sload\n      0x01\n      and\n      iszero\n      tag_83\n      jumpi\n      swap1\n      0x00\n      mstore\n      keccak256(0x00, 0x20)\n      swap1\n      0x20\n      swap2\n      dup3\n      dup3\n      div\n      add\n      swap2\n      swap1\n      mod\n    tag_83:\n      swap1\n      sload\n      swap1\n      byte\n      0x0100000000000000000000000000000000000000000000000000000000000000\n      mul\n        /* \"Arrays.sol\":2243:2255  return b3[i] */\n      swap1\n      pop\n        /* \"Arrays.sol\":2176:2263  function getElement(uint i) public view returns (bytes1){... */\n      swap2\n      swap1\n      pop\n      jump\t// out\n        /* \"Arrays.sol\":1514:1885  function setter() public {... */\n    tag_40:\n        /* \"Arrays.sol\":1550:1560  b1 = 'abc' */\n      0x6162630000000000000000000000000000000000000000000000000000000000\n        /* \"Arrays.sol\":1550:1552  b1 */\n      0x05\n      0x00\n        /* \"Arrays.sol\":1550:1560  b1 = 'abc' */\n      0x0100\n      exp\n      dup2\n      sload\n      dup2\n      0xffffff\n      mul\n      not\n      and\n      swap1\n      dup4\n      0xe8\n      shr\n      mul\n      or\n      swap1\n      sstore\n      pop\n        /* \"Arrays.sol\":1660:1669  b2 = 'ab' */\n      0x6162000000000000000000000000000000000000000000000000000000000000\n        /* \"Arrays.sol\":1660:1662  b2 */\n      0x05\n      0x03\n        /* \"Arrays.sol\":1660:1669  b2 = 'ab' */\n      0x0100\n      exp\n      dup2\n      sload\n      dup2\n      0xffffffff\n      mul\n      not\n      and\n      swap1\n      dup4\n      0xe0\n      shr\n      mul\n      or\n      swap1\n      sstore\n      pop\n        /* \"Arrays.sol\":1514:1885  function setter() public {... */\n      jump\t// out\n        /* \"Arrays.sol\":420:507  function setter(uint index, uint value) public {... */\n    tag_44:\n        /* \"Arrays.sol\":494:499  value */\n      dup1\n        /* \"Arrays.sol\":477:484  numbers */\n      0x00\n        /* \"Arrays.sol\":485:490  index */\n      dup4\n        /* \"Arrays.sol\":477:491  numbers[index] */\n      0x04\n      dup2\n      lt\n      tag_86\n      jumpi\n      tag_87\n      tag_82\n      jump\t// in\n    tag_87:\n    tag_86:\n      add\n        /* \"Arrays.sol\":477:499  numbers[index] = value */\n      dup2\n      swap1\n      sstore\n      pop\n        /* \"Arrays.sol\":420:507  function setter(uint index, uint value) public {... */\n      pop\n      pop\n      jump\t// out\n        /* \"Arrays.sol\":677:694  uint[] public arr */\n    tag_47:\n      0x04\n      dup2\n      dup2\n      sload\n      dup2\n      lt\n      tag_89\n      jumpi\n      0x00\n      dup1\n      revert\n    tag_89:\n      swap1\n      0x00\n      mstore\n      keccak256(0x00, 0x20)\n      add\n      0x00\n      swap2\n      pop\n      swap1\n      pop\n      sload\n      dup2\n      jump\t// out\n        /* \"Arrays.sol\":701:778  function pushElement(uint element) public{... */\n    tag_51:\n        /* \"Arrays.sol\":753:756  arr */\n      0x04\n        /* \"Arrays.sol\":762:769  element */\n      dup2\n        /* \"Arrays.sol\":753:770  arr.push(element) */\n      swap1\n      dup1\n      0x01\n      dup2\n      sload\n      add\n      dup1\n      dup3\n      sstore\n      dup1\n      swap2\n      pop\n      pop\n      0x01\n      swap1\n      sub\n      swap1\n      0x00\n      mstore\n      keccak256(0x00, 0x20)\n      add\n      0x00\n      swap1\n      swap2\n      swap1\n      swap2\n      swap1\n      swap2\n      pop\n      sstore\n        /* \"Arrays.sol\":701:778  function pushElement(uint element) public{... */\n      pop\n      jump\t// out\n        /* \"Arrays.sol\":791:890  function popElement() public{  // removes the last element of the array... */\n    tag_53:\n        /* \"Arrays.sol\":871:874  arr */\n      0x04\n        /* \"Arrays.sol\":871:880  arr.pop() */\n      dup1\n      sload\n      dup1\n      tag_94\n      jumpi\n      tag_95\n      tag_96\n      jump\t// in\n    tag_95:\n    tag_94:\n      0x01\n      swap1\n      sub\n      dup2\n      dup2\n      swap1\n      0x00\n      mstore\n      keccak256(0x00, 0x20)\n      add\n      0x00\n      swap1\n      sstore\n      swap1\n      sstore\n        /* \"Arrays.sol\":791:890  function popElement() public{  // removes the last element of the array... */\n      jump\t// out\n        /* \"Arrays.sol\":898:982  function getLength() public view returns (uint) {... */\n    tag_55:\n        /* \"Arrays.sol\":940:944  uint */\n      0x00\n        /* \"Arrays.sol\":964:967  arr */\n      0x04\n        /* \"Arrays.sol\":964:974  arr.length */\n      dup1\n      sload\n      swap1\n      pop\n        /* \"Arrays.sol\":957:974  return arr.length */\n      swap1\n      pop\n        /* \"Arrays.sol\":898:982  function getLength() public view returns (uint) {... */\n      swap1\n      jump\t// out\n        /* \"Arrays.sol\":235:269  uint[4] public numbers = [1,2,3,4] */\n    tag_59:\n      0x00\n      dup2\n      0x04\n      dup2\n      lt\n      tag_99\n      jumpi\n      0x00\n      dup1\n      revert\n    tag_99:\n      add\n      0x00\n      swap2\n      pop\n      swap1\n      pop\n      sload\n      dup2\n      jump\t// out\n        /* \"Arrays.sol\":2001:2024  bytes public b3 = 'abc' */\n    tag_62:\n      0x06\n      dup1\n      sload\n      tag_101\n      swap1\n      tag_71\n      jump\t// in\n    tag_101:\n      dup1\n      0x1f\n      add\n      0x20\n      dup1\n      swap2\n      div\n      mul\n      0x20\n      add\n      mload(0x40)\n      swap1\n      dup2\n      add\n      0x40\n      mstore\n      dup1\n      swap3\n      swap2\n      swap1\n      dup2\n      dup2\n      mstore\n      0x20\n      add\n      dup3\n      dup1\n      sload\n      tag_102\n      swap1\n      tag_71\n      jump\t// in\n    tag_102:\n      dup1\n      iszero\n      tag_103\n      jumpi\n      dup1\n      0x1f\n      lt\n      tag_104\n      jumpi\n      0x0100\n      dup1\n      dup4\n      sload\n      div\n      mul\n      dup4\n      mstore\n      swap2\n      0x20\n      add\n      swap2\n      jump(tag_103)\n    tag_104:\n      dup3\n      add\n      swap2\n      swap1\n      0x00\n      mstore\n      keccak256(0x00, 0x20)\n      swap1\n    tag_105:\n      dup2\n      sload\n      dup2\n      mstore\n      swap1\n      0x01\n      add\n      swap1\n      0x20\n      add\n      dup1\n      dup4\n      gt\n      tag_105\n      jumpi\n      dup3\n      swap1\n      sub\n      0x1f\n      and\n      dup3\n      add\n      swap2\n    tag_103:\n      pop\n      pop\n      pop\n      pop\n      pop\n      dup2\n      jump\t// out\n        /* \"Arrays.sol\":1278:1294  bytes3 public b1 */\n    tag_66:\n      0x05\n      0x00\n      swap1\n      sload\n      swap1\n      0x0100\n      exp\n      swap1\n      div\n      0xe8\n      shl\n      dup2\n      jump\t// out\n        /* \"#utility.yul\":7:156   */\n    tag_106:\n        /* \"#utility.yul\":43:50   */\n      0x00\n        /* \"#utility.yul\":83:149   */\n      0xffffffff00000000000000000000000000000000000000000000000000000000\n        /* \"#utility.yul\":76:81   */\n      dup3\n        /* \"#utility.yul\":72:150   */\n      and\n        /* \"#utility.yul\":61:150   */\n      swap1\n      pop\n        /* \"#utility.yul\":7:156   */\n      swap2\n      swap1\n      pop\n      jump\t// out\n        /* \"#utility.yul\":162:277   */\n    tag_107:\n        /* \"#utility.yul\":247:270   */\n      tag_128\n        /* \"#utility.yul\":264:269   */\n      dup2\n        /* \"#utility.yul\":247:270   */\n      tag_106\n      jump\t// in\n    tag_128:\n        /* \"#utility.yul\":242:245   */\n      dup3\n        /* \"#utility.yul\":235:271   */\n      mstore\n        /* \"#utility.yul\":162:277   */\n      pop\n      pop\n      jump\t// out\n        /* \"#utility.yul\":283:501   */\n    tag_25:\n        /* \"#utility.yul\":374:378   */\n      0x00\n        /* \"#utility.yul\":412:414   */\n      0x20\n        /* \"#utility.yul\":401:410   */\n      dup3\n        /* \"#utility.yul\":397:415   */\n      add\n        /* \"#utility.yul\":389:415   */\n      swap1\n      pop\n        /* \"#utility.yul\":425:494   */\n      tag_130\n        /* \"#utility.yul\":491:492   */\n      0x00\n        /* \"#utility.yul\":480:489   */\n      dup4\n        /* \"#utility.yul\":476:493   */\n      add\n        /* \"#utility.yul\":467:473   */\n      dup5\n        /* \"#utility.yul\":425:494   */\n      tag_107\n      jump\t// in\n    tag_130:\n        /* \"#utility.yul\":283:501   */\n      swap3\n      swap2\n      pop\n      pop\n      jump\t// out\n        /* \"#utility.yul\":507:584   */\n    tag_108:\n        /* \"#utility.yul\":544:551   */\n      0x00\n        /* \"#utility.yul\":573:578   */\n      dup2\n        /* \"#utility.yul\":562:578   */\n      swap1\n      pop\n        /* \"#utility.yul\":507:584   */\n      swap2\n      swap1\n      pop\n      jump\t// out\n        /* \"#utility.yul\":590:708   */\n    tag_109:\n        /* \"#utility.yul\":677:701   */\n      tag_133\n        /* \"#utility.yul\":695:700   */\n      dup2\n        /* \"#utility.yul\":677:701   */\n      tag_108\n      jump\t// in\n    tag_133:\n        /* \"#utility.yul\":672:675   */\n      dup3\n        /* \"#utility.yul\":665:702   */\n      mstore\n        /* \"#utility.yul\":590:708   */\n      pop\n      pop\n      jump\t// out\n        /* \"#utility.yul\":714:936   */\n    tag_29:\n        /* \"#utility.yul\":807:811   */\n      0x00\n        /* \"#utility.yul\":845:847   */\n      0x20\n        /* \"#utility.yul\":834:843   */\n      dup3\n        /* \"#utility.yul\":830:848   */\n      add\n        /* \"#utility.yul\":822:848   */\n      swap1\n      pop\n        /* \"#utility.yul\":858:929   */\n      tag_135\n        /* \"#utility.yul\":926:927   */\n      0x00\n        /* \"#utility.yul\":915:924   */\n      dup4\n        /* \"#utility.yul\":911:928   */\n      add\n        /* \"#utility.yul\":902:908   */\n      dup5\n        /* \"#utility.yul\":858:929   */\n      tag_109\n      jump\t// in\n    tag_135:\n        /* \"#utility.yul\":714:936   */\n      swap3\n      swap2\n      pop\n      pop\n      jump\t// out\n        /* \"#utility.yul\":1023:1140   */\n    tag_111:\n        /* \"#utility.yul\":1132:1133   */\n      0x00\n        /* \"#utility.yul\":1129:1130   */\n      0x00\n        /* \"#utility.yul\":1122:1134   */\n      revert\n        /* \"#utility.yul\":1269:1391   */\n    tag_113:\n        /* \"#utility.yul\":1342:1366   */\n      tag_140\n        /* \"#utility.yul\":1360:1365   */\n      dup2\n        /* \"#utility.yul\":1342:1366   */\n      tag_108\n      jump\t// in\n    tag_140:\n        /* \"#utility.yul\":1335:1340   */\n      dup2\n        /* \"#utility.yul\":1332:1367   */\n      eq\n        /* \"#utility.yul\":1322:1385   */\n      tag_141\n      jumpi\n        /* \"#utility.yul\":1381:1382   */\n      0x00\n        /* \"#utility.yul\":1378:1379   */\n      0x00\n        /* \"#utility.yul\":1371:1383   */\n      revert\n        /* \"#utility.yul\":1322:1385   */\n    tag_141:\n        /* \"#utility.yul\":1269:1391   */\n      pop\n      jump\t// out\n        /* \"#utility.yul\":1397:1536   */\n    tag_114:\n        /* \"#utility.yul\":1443:1448   */\n      0x00\n        /* \"#utility.yul\":1481:1487   */\n      dup2\n        /* \"#utility.yul\":1468:1488   */\n      calldataload\n        /* \"#utility.yul\":1459:1488   */\n      swap1\n      pop\n        /* \"#utility.yul\":1497:1530   */\n      tag_143\n        /* \"#utility.yul\":1524:1529   */\n      dup2\n        /* \"#utility.yul\":1497:1530   */\n      tag_113\n      jump\t// in\n    tag_143:\n        /* \"#utility.yul\":1397:1536   */\n      swap3\n      swap2\n      pop\n      pop\n      jump\t// out\n        /* \"#utility.yul\":1542:1871   */\n    tag_35:\n        /* \"#utility.yul\":1601:1607   */\n      0x00\n        /* \"#utility.yul\":1650:1652   */\n      0x20\n        /* \"#utility.yul\":1638:1647   */\n      dup3\n        /* \"#utility.yul\":1629:1636   */\n      dup5\n        /* \"#utility.yul\":1625:1648   */\n      sub\n        /* \"#utility.yul\":1621:1653   */\n      slt\n        /* \"#utility.yul\":1618:1737   */\n      iszero\n      tag_145\n      jumpi\n        /* \"#utility.yul\":1656:1735   */\n      tag_146\n      tag_111\n      jump\t// in\n    tag_146:\n        /* \"#utility.yul\":1618:1737   */\n    tag_145:\n        /* \"#utility.yul\":1776:1777   */\n      0x00\n        /* \"#utility.yul\":1801:1854   */\n      tag_147\n        /* \"#utility.yul\":1846:1853   */\n      dup5\n        /* \"#utility.yul\":1837:1843   */\n      dup3\n        /* \"#utility.yul\":1826:1835   */\n      dup6\n        /* \"#utility.yul\":1822:1844   */\n      add\n        /* \"#utility.yul\":1801:1854   */\n      tag_114\n      jump\t// in\n    tag_147:\n        /* \"#utility.yul\":1791:1854   */\n      swap2\n      pop\n        /* \"#utility.yul\":1747:1864   */\n      pop\n        /* \"#utility.yul\":1542:1871   */\n      swap3\n      swap2\n      pop\n      pop\n      jump\t// out\n        /* \"#utility.yul\":1877:2026   */\n    tag_115:\n        /* \"#utility.yul\":1913:1920   */\n      0x00\n        /* \"#utility.yul\":1953:2019   */\n      0xff00000000000000000000000000000000000000000000000000000000000000\n        /* \"#utility.yul\":1946:1951   */\n      dup3\n        /* \"#utility.yul\":1942:2020   */\n      and\n        /* \"#utility.yul\":1931:2020   */\n      swap1\n      pop\n        /* \"#utility.yul\":1877:2026   */\n      swap2\n      swap1\n      pop\n      jump\t// out\n        /* \"#utility.yul\":2032:2147   */\n    tag_116:\n        /* \"#utility.yul\":2117:2140   */\n      tag_150\n        /* \"#utility.yul\":2134:2139   */\n      dup2\n        /* \"#utility.yul\":2117:2140   */\n      tag_115\n      jump\t// in\n    tag_150:\n        /* \"#utility.yul\":2112:2115   */\n      dup3\n        /* \"#utility.yul\":2105:2141   */\n      mstore\n        /* \"#utility.yul\":2032:2147   */\n      pop\n      pop\n      jump\t// out\n        /* \"#utility.yul\":2153:2371   */\n    tag_38:\n        /* \"#utility.yul\":2244:2248   */\n      0x00\n        /* \"#utility.yul\":2282:2284   */\n      0x20\n        /* \"#utility.yul\":2271:2280   */\n      dup3\n        /* \"#utility.yul\":2267:2285   */\n      add\n        /* \"#utility.yul\":2259:2285   */\n      swap1\n      pop\n        /* \"#utility.yul\":2295:2364   */\n      tag_152\n        /* \"#utility.yul\":2361:2362   */\n      0x00\n        /* \"#utility.yul\":2350:2359   */\n      dup4\n        /* \"#utility.yul\":2346:2363   */\n      add\n        /* \"#utility.yul\":2337:2343   */\n      dup5\n        /* \"#utility.yul\":2295:2364   */\n      tag_116\n      jump\t// in\n    tag_152:\n        /* \"#utility.yul\":2153:2371   */\n      swap3\n      swap2\n      pop\n      pop\n      jump\t// out\n        /* \"#utility.yul\":2377:2851   */\n    tag_43:\n        /* \"#utility.yul\":2445:2451   */\n      0x00\n        /* \"#utility.yul\":2453:2459   */\n      0x00\n        /* \"#utility.yul\":2502:2504   */\n      0x40\n        /* \"#utility.yul\":2490:2499   */\n      dup4\n        /* \"#utility.yul\":2481:2488   */\n      dup6\n        /* \"#utility.yul\":2477:2500   */\n      sub\n        /* \"#utility.yul\":2473:2505   */\n      slt\n        /* \"#utility.yul\":2470:2589   */\n      iszero\n      tag_154\n      jumpi\n        /* \"#utility.yul\":2508:2587   */\n      tag_155\n      tag_111\n      jump\t// in\n    tag_155:\n        /* \"#utility.yul\":2470:2589   */\n    tag_154:\n        /* \"#utility.yul\":2628:2629   */\n      0x00\n        /* \"#utility.yul\":2653:2706   */\n      tag_156\n        /* \"#utility.yul\":2698:2705   */\n      dup6\n        /* \"#utility.yul\":2689:2695   */\n      dup3\n        /* \"#utility.yul\":2678:2687   */\n      dup7\n        /* \"#utility.yul\":2674:2696   */\n      add\n        /* \"#utility.yul\":2653:2706   */\n      tag_114\n      jump\t// in\n    tag_156:\n        /* \"#utility.yul\":2643:2706   */\n      swap3\n      pop\n        /* \"#utility.yul\":2599:2716   */\n      pop\n        /* \"#utility.yul\":2755:2757   */\n      0x20\n        /* \"#utility.yul\":2781:2834   */\n      tag_157\n        /* \"#utility.yul\":2826:2833   */\n      dup6\n        /* \"#utility.yul\":2817:2823   */\n      dup3\n        /* \"#utility.yul\":2806:2815   */\n      dup7\n        /* \"#utility.yul\":2802:2824   */\n      add\n        /* \"#utility.yul\":2781:2834   */\n      tag_114\n      jump\t// in\n    tag_157:\n        /* \"#utility.yul\":2771:2834   */\n      swap2\n      pop\n        /* \"#utility.yul\":2726:2844   */\n      pop\n        /* \"#utility.yul\":2377:2851   */\n      swap3\n      pop\n      swap3\n      swap1\n      pop\n      jump\t// out\n        /* \"#utility.yul\":2857:2955   */\n    tag_117:\n        /* \"#utility.yul\":2908:2914   */\n      0x00\n        /* \"#utility.yul\":2942:2947   */\n      dup2\n        /* \"#utility.yul\":2936:2948   */\n      mload\n        /* \"#utility.yul\":2926:2948   */\n      swap1\n      pop\n        /* \"#utility.yul\":2857:2955   */\n      swap2\n      swap1\n      pop\n      jump\t// out\n        /* \"#utility.yul\":2961:3129   */\n    tag_118:\n        /* \"#utility.yul\":3044:3055   */\n      0x00\n        /* \"#utility.yul\":3078:3084   */\n      dup3\n        /* \"#utility.yul\":3073:3076   */\n      dup3\n        /* \"#utility.yul\":3066:3085   */\n      mstore\n        /* \"#utility.yul\":3118:3122   */\n      0x20\n        /* \"#utility.yul\":3113:3116   */\n      dup3\n        /* \"#utility.yul\":3109:3123   */\n      add\n        /* \"#utility.yul\":3094:3123   */\n      swap1\n      pop\n        /* \"#utility.yul\":2961:3129   */\n      swap3\n      swap2\n      pop\n      pop\n      jump\t// out\n        /* \"#utility.yul\":3135:3274   */\n    tag_119:\n        /* \"#utility.yul\":3224:3230   */\n      dup3\n        /* \"#utility.yul\":3219:3222   */\n      dup2\n        /* \"#utility.yul\":3214:3217   */\n      dup4\n        /* \"#utility.yul\":3208:3231   */\n      mcopy\n        /* \"#utility.yul\":3265:3266   */\n      0x00\n        /* \"#utility.yul\":3256:3262   */\n      dup4\n        /* \"#utility.yul\":3251:3254   */\n      dup4\n        /* \"#utility.yul\":3247:3263   */\n      add\n        /* \"#utility.yul\":3240:3267   */\n      mstore\n        /* \"#utility.yul\":3135:3274   */\n      pop\n      pop\n      pop\n      jump\t// out\n        /* \"#utility.yul\":3280:3382   */\n    tag_120:\n        /* \"#utility.yul\":3321:3327   */\n      0x00\n        /* \"#utility.yul\":3372:3374   */\n      0x1f\n        /* \"#utility.yul\":3368:3375   */\n      not\n        /* \"#utility.yul\":3363:3365   */\n      0x1f\n        /* \"#utility.yul\":3356:3361   */\n      dup4\n        /* \"#utility.yul\":3352:3366   */\n      add\n        /* \"#utility.yul\":3348:3376   */\n      and\n        /* \"#utility.yul\":3338:3376   */\n      swap1\n      pop\n        /* \"#utility.yul\":3280:3382   */\n      swap2\n      swap1\n      pop\n      jump\t// out\n        /* \"#utility.yul\":3388:3761   */\n    tag_121:\n        /* \"#utility.yul\":3474:3477   */\n      0x00\n        /* \"#utility.yul\":3502:3540   */\n      tag_163\n        /* \"#utility.yul\":3534:3539   */\n      dup3\n        /* \"#utility.yul\":3502:3540   */\n      tag_117\n      jump\t// in\n    tag_163:\n        /* \"#utility.yul\":3556:3626   */\n      tag_164\n        /* \"#utility.yul\":3619:3625   */\n      dup2\n        /* \"#utility.yul\":3614:3617   */\n      dup6\n        /* \"#utility.yul\":3556:3626   */\n      tag_118\n      jump\t// in\n    tag_164:\n        /* \"#utility.yul\":3549:3626   */\n      swap4\n      pop\n        /* \"#utility.yul\":3635:3700   */\n      tag_165\n        /* \"#utility.yul\":3693:3699   */\n      dup2\n        /* \"#utility.yul\":3688:3691   */\n      dup6\n        /* \"#utility.yul\":3681:3685   */\n      0x20\n        /* \"#utility.yul\":3674:3679   */\n      dup7\n        /* \"#utility.yul\":3670:3686   */\n      add\n        /* \"#utility.yul\":3635:3700   */\n      tag_119\n      jump\t// in\n    tag_165:\n        /* \"#utility.yul\":3725:3754   */\n      tag_166\n        /* \"#utility.yul\":3747:3753   */\n      dup2\n        /* \"#utility.yul\":3725:3754   */\n      tag_120\n      jump\t// in\n    tag_166:\n        /* \"#utility.yul\":3720:3723   */\n      dup5\n        /* \"#utility.yul\":3716:3755   */\n      add\n        /* \"#utility.yul\":3709:3755   */\n      swap2\n      pop\n        /* \"#utility.yul\":3478:3761   */\n      pop\n        /* \"#utility.yul\":3388:3761   */\n      swap3\n      swap2\n      pop\n      pop\n      jump\t// out\n        /* \"#utility.yul\":3767:4076   */\n    tag_64:\n        /* \"#utility.yul\":3878:3882   */\n      0x00\n        /* \"#utility.yul\":3916:3918   */\n      0x20\n        /* \"#utility.yul\":3905:3914   */\n      dup3\n        /* \"#utility.yul\":3901:3919   */\n      add\n        /* \"#utility.yul\":3893:3919   */\n      swap1\n      pop\n        /* \"#utility.yul\":3965:3974   */\n      dup2\n        /* \"#utility.yul\":3959:3963   */\n      dup2\n        /* \"#utility.yul\":3955:3975   */\n      sub\n        /* \"#utility.yul\":3951:3952   */\n      0x00\n        /* \"#utility.yul\":3940:3949   */\n      dup4\n        /* \"#utility.yul\":3936:3953   */\n      add\n        /* \"#utility.yul\":3929:3976   */\n      mstore\n        /* \"#utility.yul\":3993:4069   */\n      tag_168\n        /* \"#utility.yul\":4064:4068   */\n      dup2\n        /* \"#utility.yul\":4055:4061   */\n      dup5\n        /* \"#utility.yul\":3993:4069   */\n      tag_121\n      jump\t// in\n    tag_168:\n        /* \"#utility.yul\":3985:4069   */\n      swap1\n      pop\n        /* \"#utility.yul\":3767:4076   */\n      swap3\n      swap2\n      pop\n      pop\n      jump\t// out\n        /* \"#utility.yul\":4082:4231   */\n    tag_122:\n        /* \"#utility.yul\":4118:4125   */\n      0x00\n        /* \"#utility.yul\":4158:4224   */\n      0xffffff0000000000000000000000000000000000000000000000000000000000\n        /* \"#utility.yul\":4151:4156   */\n      dup3\n        /* \"#utility.yul\":4147:4225   */\n      and\n        /* \"#utility.yul\":4136:4225   */\n      swap1\n      pop\n        /* \"#utility.yul\":4082:4231   */\n      swap2\n      swap1\n      pop\n      jump\t// out\n        /* \"#utility.yul\":4237:4352   */\n    tag_123:\n        /* \"#utility.yul\":4322:4345   */\n      tag_171\n        /* \"#utility.yul\":4339:4344   */\n      dup2\n        /* \"#utility.yul\":4322:4345   */\n      tag_122\n      jump\t// in\n    tag_171:\n        /* \"#utility.yul\":4317:4320   */\n      dup3\n        /* \"#utility.yul\":4310:4346   */\n      mstore\n        /* \"#utility.yul\":4237:4352   */\n      pop\n      pop\n      jump\t// out\n        /* \"#utility.yul\":4358:4576   */\n    tag_68:\n        /* \"#utility.yul\":4449:4453   */\n      0x00\n        /* \"#utility.yul\":4487:4489   */\n      0x20\n        /* \"#utility.yul\":4476:4485   */\n      dup3\n        /* \"#utility.yul\":4472:4490   */\n      add\n        /* \"#utility.yul\":4464:4490   */\n      swap1\n      pop\n        /* \"#utility.yul\":4500:4569   */\n      tag_173\n        /* \"#utility.yul\":4566:4567   */\n      0x00\n        /* \"#utility.yul\":4555:4564   */\n      dup4\n        /* \"#utility.yul\":4551:4568   */\n      add\n        /* \"#utility.yul\":4542:4548   */\n      dup5\n        /* \"#utility.yul\":4500:4569   */\n      tag_123\n      jump\t// in\n    tag_173:\n        /* \"#utility.yul\":4358:4576   */\n      swap3\n      swap2\n      pop\n      pop\n      jump\t// out\n        /* \"#utility.yul\":4582:4762   */\n    tag_124:\n        /* \"#utility.yul\":4630:4707   */\n      0x4e487b7100000000000000000000000000000000000000000000000000000000\n        /* \"#utility.yul\":4627:4628   */\n      0x00\n        /* \"#utility.yul\":4620:4708   */\n      mstore\n        /* \"#utility.yul\":4727:4731   */\n      0x22\n        /* \"#utility.yul\":4724:4725   */\n      0x04\n        /* \"#utility.yul\":4717:4732   */\n      mstore\n        /* \"#utility.yul\":4751:4755   */\n      0x24\n        /* \"#utility.yul\":4748:4749   */\n      0x00\n        /* \"#utility.yul\":4741:4756   */\n      revert\n        /* \"#utility.yul\":4768:5088   */\n    tag_71:\n        /* \"#utility.yul\":4812:4818   */\n      0x00\n        /* \"#utility.yul\":4849:4850   */\n      0x02\n        /* \"#utility.yul\":4843:4847   */\n      dup3\n        /* \"#utility.yul\":4839:4851   */\n      div\n        /* \"#utility.yul\":4829:4851   */\n      swap1\n      pop\n        /* \"#utility.yul\":4896:4897   */\n      0x01\n        /* \"#utility.yul\":4890:4894   */\n      dup3\n        /* \"#utility.yul\":4886:4898   */\n      and\n        /* \"#utility.yul\":4917:4935   */\n      dup1\n        /* \"#utility.yul\":4907:4988   */\n      tag_176\n      jumpi\n        /* \"#utility.yul\":4973:4977   */\n      0x7f\n        /* \"#utility.yul\":4965:4971   */\n      dup3\n        /* \"#utility.yul\":4961:4978   */\n      and\n        /* \"#utility.yul\":4951:4978   */\n      swap2\n      pop\n        /* \"#utility.yul\":4907:4988   */\n    tag_176:\n        /* \"#utility.yul\":5035:5037   */\n      0x20\n        /* \"#utility.yul\":5027:5033   */\n      dup3\n        /* \"#utility.yul\":5024:5038   */\n      lt\n        /* \"#utility.yul\":5004:5022   */\n      dup2\n        /* \"#utility.yul\":5001:5039   */\n      sub\n        /* \"#utility.yul\":4998:5082   */\n      tag_177\n      jumpi\n        /* \"#utility.yul\":5054:5072   */\n      tag_178\n      tag_124\n      jump\t// in\n    tag_178:\n        /* \"#utility.yul\":4998:5082   */\n    tag_177:\n        /* \"#utility.yul\":4819:5088   */\n      pop\n        /* \"#utility.yul\":4768:5088   */\n      swap2\n      swap1\n      pop\n      jump\t// out\n        /* \"#utility.yul\":5094:5274   */\n    tag_82:\n        /* \"#utility.yul\":5142:5219   */\n      0x4e487b7100000000000000000000000000000000000000000000000000000000\n        /* \"#utility.yul\":5139:5140   */\n      0x00\n        /* \"#utility.yul\":5132:5220   */\n      mstore\n        /* \"#utility.yul\":5239:5243   */\n      0x32\n        /* \"#utility.yul\":5236:5237   */\n      0x04\n        /* \"#utility.yul\":5229:5244   */\n      mstore\n        /* \"#utility.yul\":5263:5267   */\n      0x24\n        /* \"#utility.yul\":5260:5261   */\n      0x00\n        /* \"#utility.yul\":5253:5268   */\n      revert\n        /* \"#utility.yul\":5280:5460   */\n    tag_96:\n        /* \"#utility.yul\":5328:5405   */\n      0x4e487b7100000000000000000000000000000000000000000000000000000000\n        /* \"#utility.yul\":5325:5326   */\n      0x00\n        /* \"#utility.yul\":5318:5406   */\n      mstore\n        /* \"#utility.yul\":5425:5429   */\n      0x31\n        /* \"#utility.yul\":5422:5423   */\n      0x04\n        /* \"#utility.yul\":5415:5430   */\n      mstore\n        /* \"#utility.yul\":5449:5453   */\n      0x24\n        /* \"#utility.yul\":5446:5447   */\n      0x00\n        /* \"#utility.yul\":5439:5454   */\n      revert\n\n    auxdata: 0xa2646970667358221220bda959136f91ff21bb2f6ee2fc2054a9a20e96135ca17c7794808c0a1435992064736f6c634300081e0033\n}\n",
				"bytecode": {
					"linkReferences": {},
					"object": "60806040526040518060800160405280600160ff168152602001600260ff168152602001600360ff168152602001600460ff168152505f90600461004492919061009b565b506040518060400160405280600381526020017f6162630000000000000000000000000000000000000000000000000000000000815250600690816100899190610338565b50348015610095575f5ffd5b50610407565b82600481019282156100cf579160200282015b828111156100ce578251829060ff169055916020019190600101906100ae565b5b5090506100dc91906100e0565b5090565b5b808211156100f7575f815f9055506001016100e1565b5090565b5f81519050919050565b7f4e487b71000000000000000000000000000000000000000000000000000000005f52604160045260245ffd5b7f4e487b71000000000000000000000000000000000000000000000000000000005f52602260045260245ffd5b5f600282049050600182168061017657607f821691505b60208210810361018957610188610132565b5b50919050565b5f819050815f5260205f209050919050565b5f6020601f8301049050919050565b5f82821b905092915050565b5f600883026101eb7fffffffffffffffffffffffffffffffffffffffffffffffffffffffffffffffff826101b0565b6101f586836101b0565b95508019841693508086168417925050509392505050565b5f819050919050565b5f819050919050565b5f61023961023461022f8461020d565b610216565b61020d565b9050919050565b5f819050919050565b6102528361021f565b61026661025e82610240565b8484546101bc565b825550505050565b5f5f905090565b61027d61026e565b610288818484610249565b505050565b5b818110156102ab576102a05f82610275565b60018101905061028e565b5050565b601f8211156102f0576102c18161018f565b6102ca846101a1565b810160208510156102d9578190505b6102ed6102e5856101a1565b83018261028d565b50505b505050565b5f82821c905092915050565b5f6103105f19846008026102f5565b1980831691505092915050565b5f6103288383610301565b9150826002028217905092915050565b610341826100fb565b67ffffffffffffffff81111561035a57610359610105565b5b610364825461015f565b61036f8282856102af565b5f60209050601f8311600181146103a0575f841561038e578287015190505b610398858261031d565b8655506103ff565b601f1984166103ae8661018f565b5f5b828110156103d5578489015182556001820191506020850194506020810190506103b0565b868310156103f257848901516103ee601f891682610301565b8355505b6001600288020188555050505b505050505050565b6108e2806104145f395ff3fe608060405234801561000f575f5ffd5b50600436106100e8575f3560e01c806371e5ee5f1161008a578063be1c766b11610064578063be1c766b146101fc578063d39fa2331461021a578063e9b619091461024a578063ee49500214610268576100e8565b806371e5ee5f146101a657806378321efb146101d65780639a6fcbdd146101f2576100e8565b80632aab02d0116100c65780632aab02d0146101325780633a7d22bc146101505780633f3108f7146101805780635298f36d1461018a576100e8565b80630317d5f3146100ec5780630add6ef2146100f65780631f7b6d3214610114575b5f5ffd5b6100f4610286565b005b6100fe610341565b60405161010b91906105de565b60405180910390f35b61011c610354565b604051610129919061060f565b60405180910390f35b61013a61035c565b604051610147919061060f565b60405180910390f35b61016a60048036038101906101659190610656565b610371565b60405161017791906106bb565b60405180910390f35b6101886103d9565b005b6101a4600480360381019061019f91906106d4565b610455565b005b6101c060048036038101906101bb9190610656565b610472565b6040516101cd919061060f565b60405180910390f35b6101f060048036038101906101eb9190610656565b610492565b005b6101fa6104bb565b005b6102046104e2565b604051610211919061060f565b60405180910390f35b610234600480360381019061022f9190610656565b6104ee565b604051610241919061060f565b60405180910390f35b610252610506565b60405161025f9190610782565b60405180910390f35b610270610592565b60405161027d91906107dc565b60405180910390f35b60068080548061029590610822565b80601f81036102b257835f5260205f2060ff1984168155603f9350505b506002820183556001810192505050600190038154600116156102e257905f5260205f2090602091828204019190065b7f640000000000000000000000000000000000000000000000000000000000000090919091601f036101000a81548160ff021916907f010000000000000000000000000000000000000000000000000000000000000084040217905550565b600560039054906101000a900460e01b81565b5f6004905090565b5f6006805461036a90610822565b9050905090565b5f600682815461038090610822565b811061038f5761038e610852565b5b8154600116156103ac57905f5260205f2090602091828204019190065b9054901a7f0100000000000000000000000000000000000000000000000000000000000000029050919050565b7f616263000000000000000000000000000000000000000000000000000000000060055f6101000a81548162ffffff021916908360e81c02179055507f6162000000000000000000000000000000000000000000000000000000000000600560036101000a81548163ffffffff021916908360e01c0217905550565b805f836004811061046957610468610852565b5b01819055505050565b60048181548110610481575f80fd5b905f5260205f20015f915090505481565b600481908060018154018082558091505060019003905f5260205f20015f909190919091505550565b60048054806104cd576104cc61087f565b5b600190038181905f5260205f20015f90559055565b5f600480549050905090565b5f81600481106104fc575f80fd5b015f915090505481565b6006805461051390610822565b80601f016020809104026020016040519081016040528092919081815260200182805461053f90610822565b801561058a5780601f106105615761010080835404028352916020019161058a565b820191905f5260205f20905b81548152906001019060200180831161056d57829003601f168201915b505050505081565b60055f9054906101000a900460e81b81565b5f7fffffffff0000000000000000000000000000000000000000000000000000000082169050919050565b6105d8816105a4565b82525050565b5f6020820190506105f15f8301846105cf565b92915050565b5f819050919050565b610609816105f7565b82525050565b5f6020820190506106225f830184610600565b92915050565b5f5ffd5b610635816105f7565b811461063f575f5ffd5b50565b5f813590506106508161062c565b92915050565b5f6020828403121561066b5761066a610628565b5b5f61067884828501610642565b91505092915050565b5f7fff0000000000000000000000000000000000000000000000000000000000000082169050919050565b6106b581610681565b82525050565b5f6020820190506106ce5f8301846106ac565b92915050565b5f5f604083850312156106ea576106e9610628565b5b5f6106f785828601610642565b925050602061070885828601610642565b9150509250929050565b5f81519050919050565b5f82825260208201905092915050565b8281835e5f83830152505050565b5f601f19601f8301169050919050565b5f61075482610712565b61075e818561071c565b935061076e81856020860161072c565b6107778161073a565b840191505092915050565b5f6020820190508181035f83015261079a818461074a565b905092915050565b5f7fffffff000000000000000000000000000000000000000000000000000000000082169050919050565b6107d6816107a2565b82525050565b5f6020820190506107ef5f8301846107cd565b92915050565b7f4e487b71000000000000000000000000000000000000000000000000000000005f52602260045260245ffd5b5f600282049050600182168061083957607f821691505b60208210810361084c5761084b6107f5565b5b50919050565b7f4e487b71000000000000000000000000000000000000000000000000000000005f52603260045260245ffd5b7f4e487b71000000000000000000000000000000000000000000000000000000005f52603160045260245ffdfea2646970667358221220bda959136f91ff21bb2f6ee2fc2054a9a20e96135ca17c7794808c0a1435992064736f6c634300081e0033",
					"opcodes": "PUSH1 0x80 PUSH1 0x40 MSTORE PUSH1 0x40 MLOAD DUP1 PUSH1 0x80 ADD PUSH1 0x40 MSTORE DUP1 PUSH1 0x1 PUSH1 0xFF AND DUP2 MSTORE PUSH1 0x20 ADD PUSH1 0x2 PUSH1 0xFF AND DUP2 MSTORE PUSH1 0x20 ADD PUSH1 0x3 PUSH1 0xFF AND DUP2 MSTORE PUSH1 0x20 ADD PUSH1 0x4 PUSH1 0xFF AND DUP2 MSTORE POP PUSH0 SWAP1 PUSH1 0x4 PUSH2 0x44 SWAP3 SWAP2 SWAP1 PUSH2 0x9B JUMP JUMPDEST POP PUSH1 0x40 MLOAD DUP1 PUSH1 0x40 ADD PUSH1 0x40 MSTORE DUP1 PUSH1 0x3 DUP2 MSTORE PUSH1 0x20 ADD PUSH32 0x6162630000000000000000000000000000000000000000000000000000000000 DUP2 MSTORE POP PUSH1 0x6 SWAP1 DUP2 PUSH2 0x89 SWAP2 SWAP1 PUSH2 0x338 JUMP JUMPDEST POP CALLVALUE DUP1 ISZERO PUSH2 0x95 JUMPI PUSH0 PUSH0 REVERT JUMPDEST POP PUSH2 0x407 JUMP JUMPDEST DUP3 PUSH1 0x4 DUP2 ADD SWAP3 DUP3 ISZERO PUSH2 0xCF JUMPI SWAP2 PUSH1 0x20 MUL DUP3 ADD JUMPDEST DUP3 DUP2 GT ISZERO PUSH2 0xCE JUMPI DUP3 MLOAD DUP3 SWAP1 PUSH1 0xFF AND SWAP1 SSTORE SWAP2 PUSH1 0x20 ADD SWAP2 SWAP1 PUSH1 0x1 ADD SWAP1 PUSH2 0xAE JUMP JUMPDEST JUMPDEST POP SWAP1 POP PUSH2 0xDC SWAP2 SWAP1 PUSH2 0xE0 JUMP JUMPDEST POP SWAP1 JUMP JUMPDEST JUMPDEST DUP1 DUP3 GT ISZERO PUSH2 0xF7 JUMPI PUSH0 DUP2 PUSH0 SWAP1 SSTORE POP PUSH1 0x1 ADD PUSH2 0xE1 JUMP JUMPDEST POP SWAP1 JUMP JUMPDEST PUSH0 DUP2 MLOAD SWAP1 POP SWAP2 SWAP1 POP JUMP JUMPDEST PUSH32 0x4E487B7100000000000000000000000000000000000000000000000000000000 PUSH0 MSTORE PUSH1 0x41 PUSH1 0x4 MSTORE PUSH1 0x24 PUSH0 REVERT JUMPDEST PUSH32 0x4E487B7100000000000000000000000000000000000000000000000000000000 PUSH0 MSTORE PUSH1 0x22 PUSH1 0x4 MSTORE PUSH1 0x24 PUSH0 REVERT JUMPDEST PUSH0 PUSH1 0x2 DUP3 DIV SWAP1 POP PUSH1 0x1 DUP3 AND DUP1 PUSH2 0x176 JUMPI PUSH1 0x7F DUP3 AND SWAP2 POP JUMPDEST PUSH1 0x20 DUP3 LT DUP2 SUB PUSH2 0x189 JUMPI PUSH2 0x188 PUSH2 0x132 JUMP JUMPDEST JUMPDEST POP SWAP2 SWAP1 POP JUMP JUMPDEST PUSH0 DUP2 SWAP1 POP DUP2 PUSH0 MSTORE PUSH1 0x20 PUSH0 KECCAK256 SWAP1 POP SWAP2 SWAP1 POP JUMP JUMPDEST PUSH0 PUSH1 0x20 PUSH1 0x1F DUP4 ADD DIV SWAP1 POP SWAP2 SWAP1 POP JUMP JUMPDEST PUSH0 DUP3 DUP3 SHL SWAP1 POP SWAP3 SWAP2 POP POP JUMP JUMPDEST PUSH0 PUSH1 0x8 DUP4 MUL PUSH2 0x1EB PUSH32 0xFFFFFFFFFFFFFFFFFFFFFFFFFFFFFFFFFFFFFFFFFFFFFFFFFFFFFFFFFFFFFFFF DUP3 PUSH2 0x1B0 JUMP JUMPDEST PUSH2 0x1F5 DUP7 DUP4 PUSH2 0x1B0 JUMP JUMPDEST SWAP6 POP DUP1 NOT DUP5 AND SWAP4 POP DUP1 DUP7 AND DUP5 OR SWAP3 POP POP POP SWAP4 SWAP3 POP POP POP JUMP JUMPDEST PUSH0 DUP2 SWAP1 POP SWAP2 SWAP1 POP JUMP JUMPDEST PUSH0 DUP2 SWAP1 POP SWAP2 SWAP1 POP JUMP JUMPDEST PUSH0 PUSH2 0x239 PUSH2 0x234 PUSH2 0x22F DUP5 PUSH2 0x20D JUMP JUMPDEST PUSH2 0x216 JUMP JUMPDEST PUSH2 0x20D JUMP JUMPDEST SWAP1 POP SWAP2 SWAP1 POP JUMP JUMPDEST PUSH0 DUP2 SWAP1 POP SWAP2 SWAP1 POP JUMP JUMPDEST PUSH2 0x252 DUP4 PUSH2 0x21F JUMP JUMPDEST PUSH2 0x266 PUSH2 0x25E DUP3 PUSH2 0x240 JUMP JUMPDEST DUP5 DUP5 SLOAD PUSH2 0x1BC JUMP JUMPDEST DUP3 SSTORE POP POP POP POP JUMP JUMPDEST PUSH0 PUSH0 SWAP1 POP SWAP1 JUMP JUMPDEST PUSH2 0x27D PUSH2 0x26E JUMP JUMPDEST PUSH2 0x288 DUP2 DUP5 DUP5 PUSH2 0x249 JUMP JUMPDEST POP POP POP JUMP JUMPDEST JUMPDEST DUP2 DUP2 LT ISZERO PUSH2 0x2AB JUMPI PUSH2 0x2A0 PUSH0 DUP3 PUSH2 0x275 JUMP JUMPDEST PUSH1 0x1 DUP2 ADD SWAP1 POP PUSH2 0x28E JUMP JUMPDEST POP POP JUMP JUMPDEST PUSH1 0x1F DUP3 GT ISZERO PUSH2 0x2F0 JUMPI PUSH2 0x2C1 DUP2 PUSH2 0x18F JUMP JUMPDEST PUSH2 0x2CA DUP5 PUSH2 0x1A1 JUMP JUMPDEST DUP2 ADD PUSH1 0x20 DUP6 LT ISZERO PUSH2 0x2D9 JUMPI DUP2 SWAP1 POP JUMPDEST PUSH2 0x2ED PUSH2 0x2E5 DUP6 PUSH2 0x1A1 JUMP JUMPDEST DUP4 ADD DUP3 PUSH2 0x28D JUMP JUMPDEST POP POP JUMPDEST POP POP POP JUMP JUMPDEST PUSH0 DUP3 DUP3 SHR SWAP1 POP SWAP3 SWAP2 POP POP JUMP JUMPDEST PUSH0 PUSH2 0x310 PUSH0 NOT DUP5 PUSH1 0x8 MUL PUSH2 0x2F5 JUMP JUMPDEST NOT DUP1 DUP4 AND SWAP2 POP POP SWAP3 SWAP2 POP POP JUMP JUMPDEST PUSH0 PUSH2 0x328 DUP4 DUP4 PUSH2 0x301 JUMP JUMPDEST SWAP2 POP DUP3 PUSH1 0x2 MUL DUP3 OR SWAP1 POP SWAP3 SWAP2 POP POP JUMP JUMPDEST PUSH2 0x341 DUP3 PUSH2 0xFB JUMP JUMPDEST PUSH8 0xFFFFFFFFFFFFFFFF DUP2 GT ISZERO PUSH2 0x35A JUMPI PUSH2 0x359 PUSH2 0x105 JUMP JUMPDEST JUMPDEST PUSH2 0x364 DUP3 SLOAD PUSH2 0x15F JUMP JUMPDEST PUSH2 0x36F DUP3 DUP3 DUP6 PUSH2 0x2AF JUMP JUMPDEST PUSH0 PUSH1 0x20 SWAP1 POP PUSH1 0x1F DUP4 GT PUSH1 0x1 DUP2 EQ PUSH2 0x3A0 JUMPI PUSH0 DUP5 ISZERO PUSH2 0x38E JUMPI DUP3 DUP8 ADD MLOAD SWAP1 POP JUMPDEST PUSH2 0x398 DUP6 DUP3 PUSH2 0x31D JUMP JUMPDEST DUP7 SSTORE POP PUSH2 0x3FF JUMP JUMPDEST PUSH1 0x1F NOT DUP5 AND PUSH2 0x3AE DUP7 PUSH2 0x18F JUMP JUMPDEST PUSH0 JUMPDEST DUP3 DUP2 LT ISZERO PUSH2 0x3D5 JUMPI DUP5 DUP10 ADD MLOAD DUP3 SSTORE PUSH1 0x1 DUP3 ADD SWAP2 POP PUSH1 0x20 DUP6 ADD SWAP5 POP PUSH1 0x20 DUP2 ADD SWAP1 POP PUSH2 0x3B0 JUMP JUMPDEST DUP7 DUP4 LT ISZERO PUSH2 0x3F2 JUMPI DUP5 DUP10 ADD MLOAD PUSH2 0x3EE PUSH1 0x1F DUP10 AND DUP3 PUSH2 0x301 JUMP JUMPDEST DUP4 SSTORE POP JUMPDEST PUSH1 0x1 PUSH1 0x2 DUP9 MUL ADD DUP9 SSTORE POP POP POP JUMPDEST POP POP POP POP POP POP JUMP JUMPDEST PUSH2 0x8E2 DUP1 PUSH2 0x414 PUSH0 CODECOPY PUSH0 RETURN INVALID PUSH1 0x80 PUSH1 0x40 MSTORE CALLVALUE DUP1 ISZERO PUSH2 0xF JUMPI PUSH0 PUSH0 REVERT JUMPDEST POP PUSH1 0x4 CALLDATASIZE LT PUSH2 0xE8 JUMPI PUSH0 CALLDATALOAD PUSH1 0xE0 SHR DUP1 PUSH4 0x71E5EE5F GT PUSH2 0x8A JUMPI DUP1 PUSH4 0xBE1C766B GT PUSH2 0x64 JUMPI DUP1 PUSH4 0xBE1C766B EQ PUSH2 0x1FC JUMPI DUP1 PUSH4 0xD39FA233 EQ PUSH2 0x21A JUMPI DUP1 PUSH4 0xE9B61909 EQ PUSH2 0x24A JUMPI DUP1 PUSH4 0xEE495002 EQ PUSH2 0x268 JUMPI PUSH2 0xE8 JUMP JUMPDEST DUP1 PUSH4 0x71E5EE5F EQ PUSH2 0x1A6 JUMPI DUP1 PUSH4 0x78321EFB EQ PUSH2 0x1D6 JUMPI DUP1 PUSH4 0x9A6FCBDD EQ PUSH2 0x1F2 JUMPI PUSH2 0xE8 JUMP JUMPDEST DUP1 PUSH4 0x2AAB02D0 GT PUSH2 0xC6 JUMPI DUP1 PUSH4 0x2AAB02D0 EQ PUSH2 0x132 JUMPI DUP1 PUSH4 0x3A7D22BC EQ PUSH2 0x150 JUMPI DUP1 PUSH4 0x3F3108F7 EQ PUSH2 0x180 JUMPI DUP1 PUSH4 0x5298F36D EQ PUSH2 0x18A JUMPI PUSH2 0xE8 JUMP JUMPDEST DUP1 PUSH4 0x317D5F3 EQ PUSH2 0xEC JUMPI DUP1 PUSH4 0xADD6EF2 EQ PUSH2 0xF6 JUMPI DUP1 PUSH4 0x1F7B6D32 EQ PUSH2 0x114 JUMPI JUMPDEST PUSH0 PUSH0 REVERT JUMPDEST PUSH2 0xF4 PUSH2 0x286 JUMP JUMPDEST STOP JUMPDEST PUSH2 0xFE PUSH2 0x341 JUMP JUMPDEST PUSH1 0x40 MLOAD PUSH2 0x10B SWAP2 SWAP1 PUSH2 0x5DE JUMP JUMPDEST PUSH1 0x40 MLOAD DUP1 SWAP2 SUB SWAP1 RETURN JUMPDEST PUSH2 0x11C PUSH2 0x354 JUMP JUMPDEST PUSH1 0x40 MLOAD PUSH2 0x129 SWAP2 SWAP1 PUSH2 0x60F JUMP JUMPDEST PUSH1 0x40 MLOAD DUP1 SWAP2 SUB SWAP1 RETURN JUMPDEST PUSH2 0x13A PUSH2 0x35C JUMP JUMPDEST PUSH1 0x40 MLOAD PUSH2 0x147 SWAP2 SWAP1 PUSH2 0x60F JUMP JUMPDEST PUSH1 0x40 MLOAD DUP1 SWAP2 SUB SWAP1 RETURN JUMPDEST PUSH2 0x16A PUSH1 0x4 DUP1 CALLDATASIZE SUB DUP2 ADD SWAP1 PUSH2 0x165 SWAP2 SWAP1 PUSH2 0x656 JUMP JUMPDEST PUSH2 0x371 JUMP JUMPDEST PUSH1 0x40 MLOAD PUSH2 0x177 SWAP2 SWAP1 PUSH2 0x6BB JUMP JUMPDEST PUSH1 0x40 MLOAD DUP1 SWAP2 SUB SWAP1 RETURN JUMPDEST PUSH2 0x188 PUSH2 0x3D9 JUMP JUMPDEST STOP JUMPDEST PUSH2 0x1A4 PUSH1 0x4 DUP1 CALLDATASIZE SUB DUP2 ADD SWAP1 PUSH2 0x19F SWAP2 SWAP1 PUSH2 0x6D4 JUMP JUMPDEST PUSH2 0x455 JUMP JUMPDEST STOP JUMPDEST PUSH2 0x1C0 PUSH1 0x4 DUP1 CALLDATASIZE SUB DUP2 ADD SWAP1 PUSH2 0x1BB SWAP2 SWAP1 PUSH2 0x656 JUMP JUMPDEST PUSH2 0x472 JUMP JUMPDEST PUSH1 0x40 MLOAD PUSH2 0x1CD SWAP2 SWAP1 PUSH2 0x60F JUMP JUMPDEST PUSH1 0x40 MLOAD DUP1 SWAP2 SUB SWAP1 RETURN JUMPDEST PUSH2 0x1F0 PUSH1 0x4 DUP1 CALLDATASIZE SUB DUP2 ADD SWAP1 PUSH2 0x1EB SWAP2 SWAP1 PUSH2 0x656 JUMP JUMPDEST PUSH2 0x492 JUMP JUMPDEST STOP JUMPDEST PUSH2 0x1FA PUSH2 0x4BB JUMP JUMPDEST STOP JUMPDEST PUSH2 0x204 PUSH2 0x4E2 JUMP JUMPDEST PUSH1 0x40 MLOAD PUSH2 0x211 SWAP2 SWAP1 PUSH2 0x60F JUMP JUMPDEST PUSH1 0x40 MLOAD DUP1 SWAP2 SUB SWAP1 RETURN JUMPDEST PUSH2 0x234 PUSH1 0x4 DUP1 CALLDATASIZE SUB DUP2 ADD SWAP1 PUSH2 0x22F SWAP2 SWAP1 PUSH2 0x656 JUMP JUMPDEST PUSH2 0x4EE JUMP JUMPDEST PUSH1 0x40 MLOAD PUSH2 0x241 SWAP2 SWAP1 PUSH2 0x60F JUMP JUMPDEST PUSH1 0x40 MLOAD DUP1 SWAP2 SUB SWAP1 RETURN JUMPDEST PUSH2 0x252 PUSH2 0x506 JUMP JUMPDEST PUSH1 0x40 MLOAD PUSH2 0x25F SWAP2 SWAP1 PUSH2 0x782 JUMP JUMPDEST PUSH1 0x40 MLOAD DUP1 SWAP2 SUB SWAP1 RETURN JUMPDEST PUSH2 0x270 PUSH2 0x592 JUMP JUMPDEST PUSH1 0x40 MLOAD PUSH2 0x27D SWAP2 SWAP1 PUSH2 0x7DC JUMP JUMPDEST PUSH1 0x40 MLOAD DUP1 SWAP2 SUB SWAP1 RETURN JUMPDEST PUSH1 0x6 DUP1 DUP1 SLOAD DUP1 PUSH2 0x295 SWAP1 PUSH2 0x822 JUMP JUMPDEST DUP1 PUSH1 0x1F DUP2 SUB PUSH2 0x2B2 JUMPI DUP4 PUSH0 MSTORE PUSH1 0x20 PUSH0 KECCAK256 PUSH1 0xFF NOT DUP5 AND DUP2 SSTORE PUSH1 0x3F SWAP4 POP POP JUMPDEST POP PUSH1 0x2 DUP3 ADD DUP4 SSTORE PUSH1 0x1 DUP2 ADD SWAP3 POP POP POP PUSH1 0x1 SWAP1 SUB DUP2 SLOAD PUSH1 0x1 AND ISZERO PUSH2 0x2E2 JUMPI SWAP1 PUSH0 MSTORE PUSH1 0x20 PUSH0 KECCAK256 SWAP1 PUSH1 0x20 SWAP2 DUP3 DUP3 DIV ADD SWAP2 SWAP1 MOD JUMPDEST PUSH32 0x6400000000000000000000000000000000000000000000000000000000000000 SWAP1 SWAP2 SWAP1 SWAP2 PUSH1 0x1F SUB PUSH2 0x100 EXP DUP2 SLOAD DUP2 PUSH1 0xFF MUL NOT AND SWAP1 PUSH32 0x100000000000000000000000000000000000000000000000000000000000000 DUP5 DIV MUL OR SWAP1 SSTORE POP JUMP JUMPDEST PUSH1 0x5 PUSH1 0x3 SWAP1 SLOAD SWAP1 PUSH2 0x100 EXP SWAP1 DIV PUSH1 0xE0 SHL DUP2 JUMP JUMPDEST PUSH0 PUSH1 0x4 SWAP1 POP SWAP1 JUMP JUMPDEST PUSH0 PUSH1 0x6 DUP1 SLOAD PUSH2 0x36A SWAP1 PUSH2 0x822 JUMP JUMPDEST SWAP1 POP SWAP1 POP SWAP1 JUMP JUMPDEST PUSH0 PUSH1 0x6 DUP3 DUP2 SLOAD PUSH2 0x380 SWAP1 PUSH2 0x822 JUMP JUMPDEST DUP2 LT PUSH2 0x38F JUMPI PUSH2 0x38E PUSH2 0x852 JUMP JUMPDEST JUMPDEST DUP2 SLOAD PUSH1 0x1 AND ISZERO PUSH2 0x3AC JUMPI SWAP1 PUSH0 MSTORE PUSH1 0x20 PUSH0 KECCAK256 SWAP1 PUSH1 0x20 SWAP2 DUP3 DUP3 DIV ADD SWAP2 SWAP1 MOD JUMPDEST SWAP1 SLOAD SWAP1 BYTE PUSH32 0x100000000000000000000000000000000000000000000000000000000000000 MUL SWAP1 POP SWAP2 SWAP1 POP JUMP JUMPDEST PUSH32 0x6162630000000000000000000000000000000000000000000000000000000000 PUSH1 0x5 PUSH0 PUSH2 0x100 EXP DUP2 SLOAD DUP2 PUSH3 0xFFFFFF MUL NOT AND SWAP1 DUP4 PUSH1 0xE8 SHR MUL OR SWAP1 SSTORE POP PUSH32 0x6162000000000000000000000000000000000000000000000000000000000000 PUSH1 0x5 PUSH1 0x3 PUSH2 0x100 EXP DUP2 SLOAD DUP2 PUSH4 0xFFFFFFFF MUL NOT AND SWAP1 DUP4 PUSH1 0xE0 SHR MUL OR SWAP1 SSTORE POP JUMP JUMPDEST DUP1 PUSH0 DUP4 PUSH1 0x4 DUP2 LT PUSH2 0x469 JUMPI PUSH2 0x468 PUSH2 0x852 JUMP JUMPDEST JUMPDEST ADD DUP2 SWAP1 SSTORE POP POP POP JUMP JUMPDEST PUSH1 0x4 DUP2 DUP2 SLOAD DUP2 LT PUSH2 0x481 JUMPI PUSH0 DUP1 REVERT JUMPDEST SWAP1 PUSH0 MSTORE PUSH1 0x20 PUSH0 KECCAK256 ADD PUSH0 SWAP2 POP SWAP1 POP SLOAD DUP2 JUMP JUMPDEST PUSH1 0x4 DUP2 SWAP1 DUP1 PUSH1 0x1 DUP2 SLOAD ADD DUP1 DUP3 SSTORE DUP1 SWAP2 POP POP PUSH1 0x1 SWAP1 SUB SWAP1 PUSH0 MSTORE PUSH1 0x20 PUSH0 KECCAK256 ADD PUSH0 SWAP1 SWAP2 SWAP1 SWAP2 SWAP1 SWAP2 POP SSTORE POP JUMP JUMPDEST PUSH1 0x4 DUP1 SLOAD DUP1 PUSH2 0x4CD JUMPI PUSH2 0x4CC PUSH2 0x87F JUMP JUMPDEST JUMPDEST PUSH1 0x1 SWAP1 SUB DUP2 DUP2 SWAP1 PUSH0 MSTORE PUSH1 0x20 PUSH0 KECCAK256 ADD PUSH0 SWAP1 SSTORE SWAP1 SSTORE JUMP JUMPDEST PUSH0 PUSH1 0x4 DUP1 SLOAD SWAP1 POP SWAP1 POP SWAP1 JUMP JUMPDEST PUSH0 DUP2 PUSH1 0x4 DUP2 LT PUSH2 0x4FC JUMPI PUSH0 DUP1 REVERT JUMPDEST ADD PUSH0 SWAP2 POP SWAP1 POP SLOAD DUP2 JUMP JUMPDEST PUSH1 0x6 DUP1 SLOAD PUSH2 0x513 SWAP1 PUSH2 0x822 JUMP JUMPDEST DUP1 PUSH1 0x1F ADD PUSH1 0x20 DUP1 SWAP2 DIV MUL PUSH1 0x20 ADD PUSH1 0x40 MLOAD SWAP1 DUP2 ADD PUSH1 0x40 MSTORE DUP1 SWAP3 SWAP2 SWAP1 DUP2 DUP2 MSTORE PUSH1 0x20 ADD DUP3 DUP1 SLOAD PUSH2 0x53F SWAP1 PUSH2 0x822 JUMP JUMPDEST DUP1 ISZERO PUSH2 0x58A JUMPI DUP1 PUSH1 0x1F LT PUSH2 0x561 JUMPI PUSH2 0x100 DUP1 DUP4 SLOAD DIV MUL DUP4 MSTORE SWAP2 PUSH1 0x20 ADD SWAP2 PUSH2 0x58A JUMP JUMPDEST DUP3 ADD SWAP2 SWAP1 PUSH0 MSTORE PUSH1 0x20 PUSH0 KECCAK256 SWAP1 JUMPDEST DUP2 SLOAD DUP2 MSTORE SWAP1 PUSH1 0x1 ADD SWAP1 PUSH1 0x20 ADD DUP1 DUP4 GT PUSH2 0x56D JUMPI DUP3 SWAP1 SUB PUSH1 0x1F AND DUP3 ADD SWAP2 JUMPDEST POP POP POP POP POP DUP2 JUMP JUMPDEST PUSH1 0x5 PUSH0 SWAP1 SLOAD SWAP1 PUSH2 0x100 EXP SWAP1 DIV PUSH1 0xE8 SHL DUP2 JUMP JUMPDEST PUSH0 PUSH32 0xFFFFFFFF00000000000000000000000000000000000000000000000000000000 DUP3 AND SWAP1 POP SWAP2 SWAP1 POP JUMP JUMPDEST PUSH2 0x5D8 DUP2 PUSH2 0x5A4 JUMP JUMPDEST DUP3 MSTORE POP POP JUMP JUMPDEST PUSH0 PUSH1 0x20 DUP3 ADD SWAP1 POP PUSH2 0x5F1 PUSH0 DUP4 ADD DUP5 PUSH2 0x5CF JUMP JUMPDEST SWAP3 SWAP2 POP POP JUMP JUMPDEST PUSH0 DUP2 SWAP1 POP SWAP2 SWAP1 POP JUMP JUMPDEST PUSH2 0x609 DUP2 PUSH2 0x5F7 JUMP JUMPDEST DUP3 MSTORE POP POP JUMP JUMPDEST PUSH0 PUSH1 0x20 DUP3 ADD SWAP1 POP PUSH2 0x622 PUSH0 DUP4 ADD DUP5 PUSH2 0x600 JUMP JUMPDEST SWAP3 SWAP2 POP POP JUMP JUMPDEST PUSH0 PUSH0 REVERT JUMPDEST PUSH2 0x635 DUP2 PUSH2 0x5F7 JUMP JUMPDEST DUP2 EQ PUSH2 0x63F JUMPI PUSH0 PUSH0 REVERT JUMPDEST POP JUMP JUMPDEST PUSH0 DUP2 CALLDATALOAD SWAP1 POP PUSH2 0x650 DUP2 PUSH2 0x62C JUMP JUMPDEST SWAP3 SWAP2 POP POP JUMP JUMPDEST PUSH0 PUSH1 0x20 DUP3 DUP5 SUB SLT ISZERO PUSH2 0x66B JUMPI PUSH2 0x66A PUSH2 0x628 JUMP JUMPDEST JUMPDEST PUSH0 PUSH2 0x678 DUP5 DUP3 DUP6 ADD PUSH2 0x642 JUMP JUMPDEST SWAP2 POP POP SWAP3 SWAP2 POP POP JUMP JUMPDEST PUSH0 PUSH32 0xFF00000000000000000000000000000000000000000000000000000000000000 DUP3 AND SWAP1 POP SWAP2 SWAP1 POP JUMP JUMPDEST PUSH2 0x6B5 DUP2 PUSH2 0x681 JUMP JUMPDEST DUP3 MSTORE POP POP JUMP JUMPDEST PUSH0 PUSH1 0x20 DUP3 ADD SWAP1 POP PUSH2 0x6CE PUSH0 DUP4 ADD DUP5 PUSH2 0x6AC JUMP JUMPDEST SWAP3 SWAP2 POP POP JUMP JUMPDEST PUSH0 PUSH0 PUSH1 0x40 DUP4 DUP6 SUB SLT ISZERO PUSH2 0x6EA JUMPI PUSH2 0x6E9 PUSH2 0x628 JUMP JUMPDEST JUMPDEST PUSH0 PUSH2 0x6F7 DUP6 DUP3 DUP7 ADD PUSH2 0x642 JUMP JUMPDEST SWAP3 POP POP PUSH1 0x20 PUSH2 0x708 DUP6 DUP3 DUP7 ADD PUSH2 0x642 JUMP JUMPDEST SWAP2 POP POP SWAP3 POP SWAP3 SWAP1 POP JUMP JUMPDEST PUSH0 DUP2 MLOAD SWAP1 POP SWAP2 SWAP1 POP JUMP JUMPDEST PUSH0 DUP3 DUP3 MSTORE PUSH1 0x20 DUP3 ADD SWAP1 POP SWAP3 SWAP2 POP POP JUMP JUMPDEST DUP3 DUP2 DUP4 MCOPY PUSH0 DUP4 DUP4 ADD MSTORE POP POP POP JUMP JUMPDEST PUSH0 PUSH1 0x1F NOT PUSH1 0x1F DUP4 ADD AND SWAP1 POP SWAP2 SWAP1 POP JUMP JUMPDEST PUSH0 PUSH2 0x754 DUP3 PUSH2 0x712 JUMP JUMPDEST PUSH2 0x75E DUP2 DUP6 PUSH2 0x71C JUMP JUMPDEST SWAP4 POP PUSH2 0x76E DUP2 DUP6 PUSH1 0x20 DUP7 ADD PUSH2 0x72C JUMP JUMPDEST PUSH2 0x777 DUP2 PUSH2 0x73A JUMP JUMPDEST DUP5 ADD SWAP2 POP POP SWAP3 SWAP2 POP POP JUMP JUMPDEST PUSH0 PUSH1 0x20 DUP3 ADD SWAP1 POP DUP2 DUP2 SUB PUSH0 DUP4 ADD MSTORE PUSH2 0x79A DUP2 DUP5 PUSH2 0x74A JUMP JUMPDEST SWAP1 POP SWAP3 SWAP2 POP POP JUMP JUMPDEST PUSH0 PUSH32 0xFFFFFF0000000000000000000000000000000000000000000000000000000000 DUP3 AND SWAP1 POP SWAP2 SWAP1 POP JUMP JUMPDEST PUSH2 0x7D6 DUP2 PUSH2 0x7A2 JUMP JUMPDEST DUP3 MSTORE POP POP JUMP JUMPDEST PUSH0 PUSH1 0x20 DUP3 ADD SWAP1 POP PUSH2 0x7EF PUSH0 DUP4 ADD DUP5 PUSH2 0x7CD JUMP JUMPDEST SWAP3 SWAP2 POP POP JUMP JUMPDEST PUSH32 0x4E487B7100000000000000000000000000000000000000000000000000000000 PUSH0 MSTORE PUSH1 0x22 PUSH1 0x4 MSTORE PUSH1 0x24 PUSH0 REVERT JUMPDEST PUSH0 PUSH1 0x2 DUP3 DIV SWAP1 POP PUSH1 0x1 DUP3 AND DUP1 PUSH2 0x839 JUMPI PUSH1 0x7F DUP3 AND SWAP2 POP JUMPDEST PUSH1 0x20 DUP3 LT DUP2 SUB PUSH2 0x84C JUMPI PUSH2 0x84B PUSH2 0x7F5 JUMP JUMPDEST JUMPDEST POP SWAP2 SWAP1 POP JUMP JUMPDEST PUSH32 0x4E487B7100000000000000000000000000000000000000000000000000000000 PUSH0 MSTORE PUSH1 0x32 PUSH1 0x4 MSTORE PUSH1 0x24 PUSH0 REVERT JUMPDEST PUSH32 0x4E487B7100000000000000000000000000000000000000000000000000000000 PUSH0 MSTORE PUSH1 0x31 PUSH1 0x4 MSTORE PUSH1 0x24 PUSH0 REVERT INVALID LOG2 PUSH5 0x6970667358 0x22 SLT KECCAK256 0xBD 0xA9 MSIZE SGT PUSH16 0x91FF21BB2F6EE2FC2054A9A20E96135C LOG1 PUSH29 0x7794808C0A1435992064736F6C634300081E0033000000000000000000 "
				},
				"gasEstimates": {
					"creation": {
						"codeDepositCost": "454800",
						"executionCost": "infinite",
						"totalCost": "infinite"
					},
					"external": {
						"arr(uint256)": "infinite",
						"b1()": "2554",
						"b2()": "2563",
						"b3()": "infinite",
						"getElement(uint256)": "7220",
						"getLength()": "2462",
						"getLength2()": "2587",
						"length()": "400",
						"numbers(uint256)": "infinite",
						"popElement()": "29508",
						"pushElement()": "74834",
						"pushElement(uint256)": "46866",
						"setter()": "48793",
						"setter(uint256,uint256)": "infinite"
					}
				},
				"methodIdentifiers": {
					"arr(uint256)": "71e5ee5f",
					"b1()": "ee495002",
					"b2()": "0add6ef2",
					"b3()": "e9b61909",
					"getElement(uint256)": "3a7d22bc",
					"getLength()": "be1c766b",
					"getLength2()": "2aab02d0",
					"length()": "1f7b6d32",
					"numbers(uint256)": "d39fa233",
					"popElement()": "9a6fcbdd",
					"pushElement()": "0317d5f3",
					"pushElement(uint256)": "78321efb",
					"setter()": "3f3108f7",
					"setter(uint256,uint256)": "5298f36d"
				}
			},
			"storageLayout": {
				"storage": [
					{
						"astId": 10,
						"contract": "Arrays.sol:Arrays",
						"label": "numbers",
						"offset": 0,
						"slot": "0",
						"type": "t_array(t_uint256)4_storage"
					},
					{
						"astId": 36,
						"contract": "Arrays.sol:Arrays",
						"label": "arr",
						"offset": 0,
						"slot": "4",
						"type": "t_array(t_uint256)dyn_storage"
					},
					{
						"astId": 68,
						"contract": "Arrays.sol:Arrays",
						"label": "b1",
						"offset": 0,
						"slot": "5",
						"type": "t_bytes3"
					},
					{
						"astId": 70,
						"contract": "Arrays.sol:Arrays",
						"label": "b2",
						"offset": 3,
						"slot": "5",
						"type": "t_bytes4"
					},
					{
						"astId": 85,
						"contract": "Arrays.sol:Arrays",
						"label": "b3",
						"offset": 0,
						"slot": "6",
						"type": "t_bytes_storage"
					}
				],
				"types": {
					"t_array(t_uint256)4_storage": {
						"base": "t_uint256",
						"encoding": "inplace",
						"label": "uint256[4]",
						"numberOfBytes": "128"
					},
					"t_array(t_uint256)dyn_storage": {
						"base": "t_uint256",
						"encoding": "dynamic_array",
						"label": "uint256[]",
						"numberOfBytes": "32"
					},
					"t_bytes3": {
						"encoding": "inplace",
						"label": "bytes3",
						"numberOfBytes": "3"
					},
					"t_bytes4": {
						"encoding": "inplace",
						"label": "bytes4",
						"numberOfBytes": "4"
					},
					"t_bytes_storage": {
						"encoding": "bytes",
						"label": "bytes",
						"numberOfBytes": "32"
					},
					"t_uint256": {
						"encoding": "inplace",
						"label": "uint256",
						"numberOfBytes": "32"
					}
				}
			},
			"userdoc": {
				"kind": "user",
				"methods": {},
				"version": 1
			}
		}
	}
}