{
	"data": {
		"bytecode": {
			"linkReferences": {},
			"object": "60806040525f60025f6101000a81548160ff021916908360028111156100285761002761007b565b5b0217905550348015610038575f5ffd5b506040516110ff3803806110ff833981810160405281019061005a9190610228565b815f5f01908161006a9190610489565b50805f600101819055505050610558565b7f4e487b71000000000000000000000000000000000000000000000000000000005f52602160045260245ffd5b5f604051905090565b5f5ffd5b5f5ffd5b5f5ffd5b5f5ffd5b5f601f19601f8301169050919050565b7f4e487b71000000000000000000000000000000000000000000000000000000005f52604160045260245ffd5b610107826100c1565b810181811067ffffffffffffffff82111715610126576101256100d1565b5b80604052505050565b5f6101386100a8565b905061014482826100fe565b919050565b5f67ffffffffffffffff821115610163576101626100d1565b5b61016c826100c1565b9050602081019050919050565b8281835e5f83830152505050565b5f61019961019484610149565b61012f565b9050828152602081018484840111156101b5576101b46100bd565b5b6101c0848285610179565b509392505050565b5f82601f8301126101dc576101db6100b9565b5b81516101ec848260208601610187565b91505092915050565b5f819050919050565b610207816101f5565b8114610211575f5ffd5b50565b5f81519050610222816101fe565b92915050565b5f5f6040838503121561023e5761023d6100b1565b5b5f83015167ffffffffffffffff81111561025b5761025a6100b5565b5b610267858286016101c8565b925050602061027885828601610214565b9150509250929050565b5f81519050919050565b7f4e487b71000000000000000000000000000000000000000000000000000000005f52602260045260245ffd5b5f60028204905060018216806102d057607f821691505b6020821081036102e3576102e261028c565b5b50919050565b5f819050815f5260205f209050919050565b5f6020601f8301049050919050565b5f82821b905092915050565b5f600883026103457fffffffffffffffffffffffffffffffffffffffffffffffffffffffffffffffff8261030a565b61034f868361030a565b95508019841693508086168417925050509392505050565b5f819050919050565b5f61038a610385610380846101f5565b610367565b6101f5565b9050919050565b5f819050919050565b6103a383610370565b6103b76103af82610391565b848454610316565b825550505050565b5f5f905090565b6103ce6103bf565b6103d981848461039a565b505050565b5b818110156103fc576103f15f826103c6565b6001810190506103df565b5050565b601f82111561044157610412816102e9565b61041b846102fb565b8101602085101561042a578190505b61043e610436856102fb565b8301826103de565b50505b505050565b5f82821c905092915050565b5f6104615f1984600802610446565b1980831691505092915050565b5f6104798383610452565b9150826002028217905092915050565b61049282610282565b67ffffffffffffffff8111156104ab576104aa6100d1565b5b6104b582546102b9565b6104c0828285610400565b5f60209050601f8311600181146104f1575f84156104df578287015190505b6104e9858261046e565b865550610550565b601f1984166104ff866102e9565b5f5b8281101561052657848901518255600182019150602085019450602081019050610501565b86831015610543578489015161053f601f891682610452565b8355505b6001600288020188555050505b505050505050565b610b9a806105655f395ff3fe608060405234801561000f575f5ffd5b5060043610610086575f3560e01c80639a8c9b35116100595780639a8c9b3514610126578063b3cbbc2414610142578063c33fb8771461015e578063e589d5821461016857610086565b806306ead22e1461008a57806318562dae146100bb57806334f0eb1a146100d75780635f57697c14610107575b5f5ffd5b6100a4600480360381019061009f91906104c8565b610186565b6040516100b2929190610572565b60405180910390f35b6100d560048036038101906100d091906106cc565b61022c565b005b6100f160048036038101906100ec91906104c8565b61024f565b6040516100fe9190610726565b60405180910390f35b61010f6102ea565b60405161011d929190610572565b60405180910390f35b610140600480360381019061013b9190610746565b610380565b005b61015c600480360381019061015791906107b2565b6103cc565b005b61016661040c565b005b610170610472565b60405161017d919061087f565b60405180910390f35b6004602052805f5260405f205f91509050805f0180546101a5906108c5565b80601f01602080910402602001604051908101604052809291908181526020018280546101d1906108c5565b801561021c5780601f106101f35761010080835404028352916020019161021c565b820191905f5260205f20905b8154815290600101906020018083116101ff57829003601f168201915b5050505050908060010154905082565b8060035f8481526020019081526020015f20908161024a9190610a95565b505050565b6003602052805f5260405f205f91509050805461026b906108c5565b80601f0160208091040260200160405190810160405280929190818152602001828054610297906108c5565b80156102e25780601f106102b9576101008083540402835291602001916102e2565b820191905f5260205f20905b8154815290600101906020018083116102c557829003601f168201915b505050505081565b5f805f0180546102f9906108c5565b80601f0160208091040260200160405190810160405280929190818152602001828054610325906108c5565b80156103705780601f1061034757610100808354040283529160200191610370565b820191905f5260205f20905b81548152906001019060200180831161035357829003601f168201915b5050505050908060010154905082565b60405180604001604052808381526020018281525060045f8581526020019081526020015f205f820151815f0190816103b99190610a95565b5060208201518160010155905050505050565b5f6040518060400160405280848152602001838152509050805f5f820151815f0190816103f99190610a95565b5060208201518160010155905050505050565b5f600281111561041f5761041e61080c565b5b60025f9054906101000a900460ff1660028111156104405761043f61080c565b5b0361047057600160025f6101000a81548160ff0219169083600281111561046a5761046961080c565b5b02179055505b565b60025f9054906101000a900460ff1681565b5f604051905090565b5f5ffd5b5f5ffd5b5f819050919050565b6104a781610495565b81146104b1575f5ffd5b50565b5f813590506104c28161049e565b92915050565b5f602082840312156104dd576104dc61048d565b5b5f6104ea848285016104b4565b91505092915050565b5f81519050919050565b5f82825260208201905092915050565b8281835e5f83830152505050565b5f601f19601f8301169050919050565b5f610535826104f3565b61053f81856104fd565b935061054f81856020860161050d565b6105588161051b565b840191505092915050565b61056c81610495565b82525050565b5f6040820190508181035f83015261058a818561052b565b90506105996020830184610563565b9392505050565b5f5ffd5b5f5ffd5b7f4e487b71000000000000000000000000000000000000000000000000000000005f52604160045260245ffd5b6105de8261051b565b810181811067ffffffffffffffff821117156105fd576105fc6105a8565b5b80604052505050565b5f61060f610484565b905061061b82826105d5565b919050565b5f67ffffffffffffffff82111561063a576106396105a8565b5b6106438261051b565b9050602081019050919050565b828183375f83830152505050565b5f61067061066b84610620565b610606565b90508281526020810184848401111561068c5761068b6105a4565b5b610697848285610650565b509392505050565b5f82601f8301126106b3576106b26105a0565b5b81356106c384826020860161065e565b91505092915050565b5f5f604083850312156106e2576106e161048d565b5b5f6106ef858286016104b4565b925050602083013567ffffffffffffffff8111156107105761070f610491565b5b61071c8582860161069f565b9150509250929050565b5f6020820190508181035f83015261073e818461052b565b905092915050565b5f5f5f6060848603121561075d5761075c61048d565b5b5f61076a868287016104b4565b935050602084013567ffffffffffffffff81111561078b5761078a610491565b5b6107978682870161069f565b92505060406107a8868287016104b4565b9150509250925092565b5f5f604083850312156107c8576107c761048d565b5b5f83013567ffffffffffffffff8111156107e5576107e4610491565b5b6107f18582860161069f565b9250506020610802858286016104b4565b9150509250929050565b7f4e487b71000000000000000000000000000000000000000000000000000000005f52602160045260245ffd5b6003811061084a5761084961080c565b5b50565b5f81905061085a82610839565b919050565b5f6108698261084d565b9050919050565b6108798161085f565b82525050565b5f6020820190506108925f830184610870565b92915050565b7f4e487b71000000000000000000000000000000000000000000000000000000005f52602260045260245ffd5b5f60028204905060018216806108dc57607f821691505b6020821081036108ef576108ee610898565b5b50919050565b5f819050815f5260205f209050919050565b5f6020601f8301049050919050565b5f82821b905092915050565b5f600883026109517fffffffffffffffffffffffffffffffffffffffffffffffffffffffffffffffff82610916565b61095b8683610916565b95508019841693508086168417925050509392505050565b5f819050919050565b5f61099661099161098c84610495565b610973565b610495565b9050919050565b5f819050919050565b6109af8361097c565b6109c36109bb8261099d565b848454610922565b825550505050565b5f5f905090565b6109da6109cb565b6109e58184846109a6565b505050565b5b81811015610a08576109fd5f826109d2565b6001810190506109eb565b5050565b601f821115610a4d57610a1e816108f5565b610a2784610907565b81016020851015610a36578190505b610a4a610a4285610907565b8301826109ea565b50505b505050565b5f82821c905092915050565b5f610a6d5f1984600802610a52565b1980831691505092915050565b5f610a858383610a5e565b9150826002028217905092915050565b610a9e826104f3565b67ffffffffffffffff811115610ab757610ab66105a8565b5b610ac182546108c5565b610acc828285610a0c565b5f60209050601f831160018114610afd575f8415610aeb578287015190505b610af58582610a7a565b865550610b5c565b601f198416610b0b866108f5565b5f5b82811015610b3257848901518255600182019150602085019450602081019050610b0d565b86831015610b4f5784890151610b4b601f891682610a5e565b8355505b6001600288020188555050505b50505050505056fea26469706673582212200ae6c494792b42d462156ff8a4140ec59f52196e9ecf3214b3c6db78f4bd405064736f6c634300081e0033",
			"opcodes": "PUSH1 0x80 PUSH1 0x40 MSTORE PUSH0 PUSH1 0x2 PUSH0 PUSH2 0x100 EXP DUP2 SLOAD DUP2 PUSH1 0xFF MUL NOT AND SWAP1 DUP4 PUSH1 0x2 DUP2 GT ISZERO PUSH2 0x28 JUMPI PUSH2 0x27 PUSH2 0x7B JUMP JUMPDEST JUMPDEST MUL OR SWAP1 SSTORE POP CALLVALUE DUP1 ISZERO PUSH2 0x38 JUMPI PUSH0 PUSH0 REVERT JUMPDEST POP PUSH1 0x40 MLOAD PUSH2 0x10FF CODESIZE SUB DUP1 PUSH2 0x10FF DUP4 CODECOPY DUP2 DUP2 ADD PUSH1 0x40 MSTORE DUP2 ADD SWAP1 PUSH2 0x5A SWAP2 SWAP1 PUSH2 0x228 JUMP JUMPDEST DUP2 PUSH0 PUSH0 ADD SWAP1 DUP2 PUSH2 0x6A SWAP2 SWAP1 PUSH2 0x489 JUMP JUMPDEST POP DUP1 PUSH0 PUSH1 0x1 ADD DUP2 SWAP1 SSTORE POP POP POP PUSH2 0x558 JUMP JUMPDEST PUSH32 0x4E487B7100000000000000000000000000000000000000000000000000000000 PUSH0 MSTORE PUSH1 0x21 PUSH1 0x4 MSTORE PUSH1 0x24 PUSH0 REVERT JUMPDEST PUSH0 PUSH1 0x40 MLOAD SWAP1 POP SWAP1 JUMP JUMPDEST PUSH0 PUSH0 REVERT JUMPDEST PUSH0 PUSH0 REVERT JUMPDEST PUSH0 PUSH0 REVERT JUMPDEST PUSH0 PUSH0 REVERT JUMPDEST PUSH0 PUSH1 0x1F NOT PUSH1 0x1F DUP4 ADD AND SWAP1 POP SWAP2 SWAP1 POP JUMP JUMPDEST PUSH32 0x4E487B7100000000000000000000000000000000000000000000000000000000 PUSH0 MSTORE PUSH1 0x41 PUSH1 0x4 MSTORE PUSH1 0x24 PUSH0 REVERT JUMPDEST PUSH2 0x107 DUP3 PUSH2 0xC1 JUMP JUMPDEST DUP2 ADD DUP2 DUP2 LT PUSH8 0xFFFFFFFFFFFFFFFF DUP3 GT OR ISZERO PUSH2 0x126 JUMPI PUSH2 0x125 PUSH2 0xD1 JUMP JUMPDEST JUMPDEST DUP1 PUSH1 0x40 MSTORE POP POP POP JUMP JUMPDEST PUSH0 PUSH2 0x138 PUSH2 0xA8 JUMP JUMPDEST SWAP1 POP PUSH2 0x144 DUP3 DUP3 PUSH2 0xFE JUMP JUMPDEST SWAP2 SWAP1 POP JUMP JUMPDEST PUSH0 PUSH8 0xFFFFFFFFFFFFFFFF DUP3 GT ISZERO PUSH2 0x163 JUMPI PUSH2 0x162 PUSH2 0xD1 JUMP JUMPDEST JUMPDEST PUSH2 0x16C DUP3 PUSH2 0xC1 JUMP JUMPDEST SWAP1 POP PUSH1 0x20 DUP2 ADD SWAP1 POP SWAP2 SWAP1 POP JUMP JUMPDEST DUP3 DUP2 DUP4 MCOPY PUSH0 DUP4 DUP4 ADD MSTORE POP POP POP JUMP JUMPDEST PUSH0 PUSH2 0x199 PUSH2 0x194 DUP5 PUSH2 0x149 JUMP JUMPDEST PUSH2 0x12F JUMP JUMPDEST SWAP1 POP DUP3 DUP2 MSTORE PUSH1 0x20 DUP2 ADD DUP5 DUP5 DUP5 ADD GT ISZERO PUSH2 0x1B5 JUMPI PUSH2 0x1B4 PUSH2 0xBD JUMP JUMPDEST JUMPDEST PUSH2 0x1C0 DUP5 DUP3 DUP6 PUSH2 0x179 JUMP JUMPDEST POP SWAP4 SWAP3 POP POP POP JUMP JUMPDEST PUSH0 DUP3 PUSH1 0x1F DUP4 ADD SLT PUSH2 0x1DC JUMPI PUSH2 0x1DB PUSH2 0xB9 JUMP JUMPDEST JUMPDEST DUP2 MLOAD PUSH2 0x1EC DUP5 DUP3 PUSH1 0x20 DUP7 ADD PUSH2 0x187 JUMP JUMPDEST SWAP2 POP POP SWAP3 SWAP2 POP POP JUMP JUMPDEST PUSH0 DUP2 SWAP1 POP SWAP2 SWAP1 POP JUMP JUMPDEST PUSH2 0x207 DUP2 PUSH2 0x1F5 JUMP JUMPDEST DUP2 EQ PUSH2 0x211 JUMPI PUSH0 PUSH0 REVERT JUMPDEST POP JUMP JUMPDEST PUSH0 DUP2 MLOAD SWAP1 POP PUSH2 0x222 DUP2 PUSH2 0x1FE JUMP JUMPDEST SWAP3 SWAP2 POP POP JUMP JUMPDEST PUSH0 PUSH0 PUSH1 0x40 DUP4 DUP6 SUB SLT ISZERO PUSH2 0x23E JUMPI PUSH2 0x23D PUSH2 0xB1 JUMP JUMPDEST JUMPDEST PUSH0 DUP4 ADD MLOAD PUSH8 0xFFFFFFFFFFFFFFFF DUP2 GT ISZERO PUSH2 0x25B JUMPI PUSH2 0x25A PUSH2 0xB5 JUMP JUMPDEST JUMPDEST PUSH2 0x267 DUP6 DUP3 DUP7 ADD PUSH2 0x1C8 JUMP JUMPDEST SWAP3 POP POP PUSH1 0x20 PUSH2 0x278 DUP6 DUP3 DUP7 ADD PUSH2 0x214 JUMP JUMPDEST SWAP2 POP POP SWAP3 POP SWAP3 SWAP1 POP JUMP JUMPDEST PUSH0 DUP2 MLOAD SWAP1 POP SWAP2 SWAP1 POP JUMP JUMPDEST PUSH32 0x4E487B7100000000000000000000000000000000000000000000000000000000 PUSH0 MSTORE PUSH1 0x22 PUSH1 0x4 MSTORE PUSH1 0x24 PUSH0 REVERT JUMPDEST PUSH0 PUSH1 0x2 DUP3 DIV SWAP1 POP PUSH1 0x1 DUP3 AND DUP1 PUSH2 0x2D0 JUMPI PUSH1 0x7F DUP3 AND SWAP2 POP JUMPDEST PUSH1 0x20 DUP3 LT DUP2 SUB PUSH2 0x2E3 JUMPI PUSH2 0x2E2 PUSH2 0x28C JUMP JUMPDEST JUMPDEST POP SWAP2 SWAP1 POP JUMP JUMPDEST PUSH0 DUP2 SWAP1 POP DUP2 PUSH0 MSTORE PUSH1 0x20 PUSH0 KECCAK256 SWAP1 POP SWAP2 SWAP1 POP JUMP JUMPDEST PUSH0 PUSH1 0x20 PUSH1 0x1F DUP4 ADD DIV SWAP1 POP SWAP2 SWAP1 POP JUMP JUMPDEST PUSH0 DUP3 DUP3 SHL SWAP1 POP SWAP3 SWAP2 POP POP JUMP JUMPDEST PUSH0 PUSH1 0x8 DUP4 MUL PUSH2 0x345 PUSH32 0xFFFFFFFFFFFFFFFFFFFFFFFFFFFFFFFFFFFFFFFFFFFFFFFFFFFFFFFFFFFFFFFF DUP3 PUSH2 0x30A JUMP JUMPDEST PUSH2 0x34F DUP7 DUP4 PUSH2 0x30A JUMP JUMPDEST SWAP6 POP DUP1 NOT DUP5 AND SWAP4 POP DUP1 DUP7 AND DUP5 OR SWAP3 POP POP POP SWAP4 SWAP3 POP POP POP JUMP JUMPDEST PUSH0 DUP2 SWAP1 POP SWAP2 SWAP1 POP JUMP JUMPDEST PUSH0 PUSH2 0x38A PUSH2 0x385 PUSH2 0x380 DUP5 PUSH2 0x1F5 JUMP JUMPDEST PUSH2 0x367 JUMP JUMPDEST PUSH2 0x1F5 JUMP JUMPDEST SWAP1 POP SWAP2 SWAP1 POP JUMP JUMPDEST PUSH0 DUP2 SWAP1 POP SWAP2 SWAP1 POP JUMP JUMPDEST PUSH2 0x3A3 DUP4 PUSH2 0x370 JUMP JUMPDEST PUSH2 0x3B7 PUSH2 0x3AF DUP3 PUSH2 0x391 JUMP JUMPDEST DUP5 DUP5 SLOAD PUSH2 0x316 JUMP JUMPDEST DUP3 SSTORE POP POP POP POP JUMP JUMPDEST PUSH0 PUSH0 SWAP1 POP SWAP1 JUMP JUMPDEST PUSH2 0x3CE PUSH2 0x3BF JUMP JUMPDEST PUSH2 0x3D9 DUP2 DUP5 DUP5 PUSH2 0x39A JUMP JUMPDEST POP POP POP JUMP JUMPDEST JUMPDEST DUP2 DUP2 LT ISZERO PUSH2 0x3FC JUMPI PUSH2 0x3F1 PUSH0 DUP3 PUSH2 0x3C6 JUMP JUMPDEST PUSH1 0x1 DUP2 ADD SWAP1 POP PUSH2 0x3DF JUMP JUMPDEST POP POP JUMP JUMPDEST PUSH1 0x1F DUP3 GT ISZERO PUSH2 0x441 JUMPI PUSH2 0x412 DUP2 PUSH2 0x2E9 JUMP JUMPDEST PUSH2 0x41B DUP5 PUSH2 0x2FB JUMP JUMPDEST DUP2 ADD PUSH1 0x20 DUP6 LT ISZERO PUSH2 0x42A JUMPI DUP2 SWAP1 POP JUMPDEST PUSH2 0x43E PUSH2 0x436 DUP6 PUSH2 0x2FB JUMP JUMPDEST DUP4 ADD DUP3 PUSH2 0x3DE JUMP JUMPDEST POP POP JUMPDEST POP POP POP JUMP JUMPDEST PUSH0 DUP3 DUP3 SHR SWAP1 POP SWAP3 SWAP2 POP POP JUMP JUMPDEST PUSH0 PUSH2 0x461 PUSH0 NOT DUP5 PUSH1 0x8 MUL PUSH2 0x446 JUMP JUMPDEST NOT DUP1 DUP4 AND SWAP2 POP POP SWAP3 SWAP2 POP POP JUMP JUMPDEST PUSH0 PUSH2 0x479 DUP4 DUP4 PUSH2 0x452 JUMP JUMPDEST SWAP2 POP DUP3 PUSH1 0x2 MUL DUP3 OR SWAP1 POP SWAP3 SWAP2 POP POP JUMP JUMPDEST PUSH2 0x492 DUP3 PUSH2 0x282 JUMP JUMPDEST PUSH8 0xFFFFFFFFFFFFFFFF DUP2 GT ISZERO PUSH2 0x4AB JUMPI PUSH2 0x4AA PUSH2 0xD1 JUMP JUMPDEST JUMPDEST PUSH2 0x4B5 DUP3 SLOAD PUSH2 0x2B9 JUMP JUMPDEST PUSH2 0x4C0 DUP3 DUP3 DUP6 PUSH2 0x400 JUMP JUMPDEST PUSH0 PUSH1 0x20 SWAP1 POP PUSH1 0x1F DUP4 GT PUSH1 0x1 DUP2 EQ PUSH2 0x4F1 JUMPI PUSH0 DUP5 ISZERO PUSH2 0x4DF JUMPI DUP3 DUP8 ADD MLOAD SWAP1 POP JUMPDEST PUSH2 0x4E9 DUP6 DUP3 PUSH2 0x46E JUMP JUMPDEST DUP7 SSTORE POP PUSH2 0x550 JUMP JUMPDEST PUSH1 0x1F NOT DUP5 AND PUSH2 0x4FF DUP7 PUSH2 0x2E9 JUMP JUMPDEST PUSH0 JUMPDEST DUP3 DUP2 LT ISZERO PUSH2 0x526 JUMPI DUP5 DUP10 ADD MLOAD DUP3 SSTORE PUSH1 0x1 DUP3 ADD SWAP2 POP PUSH1 0x20 DUP6 ADD SWAP5 POP PUSH1 0x20 DUP2 ADD SWAP1 POP PUSH2 0x501 JUMP JUMPDEST DUP7 DUP4 LT ISZERO PUSH2 0x543 JUMPI DUP5 DUP10 ADD MLOAD PUSH2 0x53F PUSH1 0x1F DUP10 AND DUP3 PUSH2 0x452 JUMP JUMPDEST DUP4 SSTORE POP JUMPDEST PUSH1 0x1 PUSH1 0x2 DUP9 MUL ADD DUP9 SSTORE POP POP POP JUMPDEST POP POP POP POP POP POP JUMP JUMPDEST PUSH2 0xB9A DUP1 PUSH2 0x565 PUSH0 CODECOPY PUSH0 RETURN INVALID PUSH1 0x80 PUSH1 0x40 MSTORE CALLVALUE DUP1 ISZERO PUSH2 0xF JUMPI PUSH0 PUSH0 REVERT JUMPDEST POP PUSH1 0x4 CALLDATASIZE LT PUSH2 0x86 JUMPI PUSH0 CALLDATALOAD PUSH1 0xE0 SHR DUP1 PUSH4 0x9A8C9B35 GT PUSH2 0x59 JUMPI DUP1 PUSH4 0x9A8C9B35 EQ PUSH2 0x126 JUMPI DUP1 PUSH4 0xB3CBBC24 EQ PUSH2 0x142 JUMPI DUP1 PUSH4 0xC33FB877 EQ PUSH2 0x15E JUMPI DUP1 PUSH4 0xE589D582 EQ PUSH2 0x168 JUMPI PUSH2 0x86 JUMP JUMPDEST DUP1 PUSH4 0x6EAD22E EQ PUSH2 0x8A JUMPI DUP1 PUSH4 0x18562DAE EQ PUSH2 0xBB JUMPI DUP1 PUSH4 0x34F0EB1A EQ PUSH2 0xD7 JUMPI DUP1 PUSH4 0x5F57697C EQ PUSH2 0x107 JUMPI JUMPDEST PUSH0 PUSH0 REVERT JUMPDEST PUSH2 0xA4 PUSH1 0x4 DUP1 CALLDATASIZE SUB DUP2 ADD SWAP1 PUSH2 0x9F SWAP2 SWAP1 PUSH2 0x4C8 JUMP JUMPDEST PUSH2 0x186 JUMP JUMPDEST PUSH1 0x40 MLOAD PUSH2 0xB2 SWAP3 SWAP2 SWAP1 PUSH2 0x572 JUMP JUMPDEST PUSH1 0x40 MLOAD DUP1 SWAP2 SUB SWAP1 RETURN JUMPDEST PUSH2 0xD5 PUSH1 0x4 DUP1 CALLDATASIZE SUB DUP2 ADD SWAP1 PUSH2 0xD0 SWAP2 SWAP1 PUSH2 0x6CC JUMP JUMPDEST PUSH2 0x22C JUMP JUMPDEST STOP JUMPDEST PUSH2 0xF1 PUSH1 0x4 DUP1 CALLDATASIZE SUB DUP2 ADD SWAP1 PUSH2 0xEC SWAP2 SWAP1 PUSH2 0x4C8 JUMP JUMPDEST PUSH2 0x24F JUMP JUMPDEST PUSH1 0x40 MLOAD PUSH2 0xFE SWAP2 SWAP1 PUSH2 0x726 JUMP JUMPDEST PUSH1 0x40 MLOAD DUP1 SWAP2 SUB SWAP1 RETURN JUMPDEST PUSH2 0x10F PUSH2 0x2EA JUMP JUMPDEST PUSH1 0x40 MLOAD PUSH2 0x11D SWAP3 SWAP2 SWAP1 PUSH2 0x572 JUMP JUMPDEST PUSH1 0x40 MLOAD DUP1 SWAP2 SUB SWAP1 RETURN JUMPDEST PUSH2 0x140 PUSH1 0x4 DUP1 CALLDATASIZE SUB DUP2 ADD SWAP1 PUSH2 0x13B SWAP2 SWAP1 PUSH2 0x746 JUMP JUMPDEST PUSH2 0x380 JUMP JUMPDEST STOP JUMPDEST PUSH2 0x15C PUSH1 0x4 DUP1 CALLDATASIZE SUB DUP2 ADD SWAP1 PUSH2 0x157 SWAP2 SWAP1 PUSH2 0x7B2 JUMP JUMPDEST PUSH2 0x3CC JUMP JUMPDEST STOP JUMPDEST PUSH2 0x166 PUSH2 0x40C JUMP JUMPDEST STOP JUMPDEST PUSH2 0x170 PUSH2 0x472 JUMP JUMPDEST PUSH1 0x40 MLOAD PUSH2 0x17D SWAP2 SWAP1 PUSH2 0x87F JUMP JUMPDEST PUSH1 0x40 MLOAD DUP1 SWAP2 SUB SWAP1 RETURN JUMPDEST PUSH1 0x4 PUSH1 0x20 MSTORE DUP1 PUSH0 MSTORE PUSH1 0x40 PUSH0 KECCAK256 PUSH0 SWAP2 POP SWAP1 POP DUP1 PUSH0 ADD DUP1 SLOAD PUSH2 0x1A5 SWAP1 PUSH2 0x8C5 JUMP JUMPDEST DUP1 PUSH1 0x1F ADD PUSH1 0x20 DUP1 SWAP2 DIV MUL PUSH1 0x20 ADD PUSH1 0x40 MLOAD SWAP1 DUP2 ADD PUSH1 0x40 MSTORE DUP1 SWAP3 SWAP2 SWAP1 DUP2 DUP2 MSTORE PUSH1 0x20 ADD DUP3 DUP1 SLOAD PUSH2 0x1D1 SWAP1 PUSH2 0x8C5 JUMP JUMPDEST DUP1 ISZERO PUSH2 0x21C JUMPI DUP1 PUSH1 0x1F LT PUSH2 0x1F3 JUMPI PUSH2 0x100 DUP1 DUP4 SLOAD DIV MUL DUP4 MSTORE SWAP2 PUSH1 0x20 ADD SWAP2 PUSH2 0x21C JUMP JUMPDEST DUP3 ADD SWAP2 SWAP1 PUSH0 MSTORE PUSH1 0x20 PUSH0 KECCAK256 SWAP1 JUMPDEST DUP2 SLOAD DUP2 MSTORE SWAP1 PUSH1 0x1 ADD SWAP1 PUSH1 0x20 ADD DUP1 DUP4 GT PUSH2 0x1FF JUMPI DUP3 SWAP1 SUB PUSH1 0x1F AND DUP3 ADD SWAP2 JUMPDEST POP POP POP POP POP SWAP1 DUP1 PUSH1 0x1 ADD SLOAD SWAP1 POP DUP3 JUMP JUMPDEST DUP1 PUSH1 0x3 PUSH0 DUP5 DUP2 MSTORE PUSH1 0x20 ADD SWAP1 DUP2 MSTORE PUSH1 0x20 ADD PUSH0 KECCAK256 SWAP1 DUP2 PUSH2 0x24A SWAP2 SWAP1 PUSH2 0xA95 JUMP JUMPDEST POP POP POP JUMP JUMPDEST PUSH1 0x3 PUSH1 0x20 MSTORE DUP1 PUSH0 MSTORE PUSH1 0x40 PUSH0 KECCAK256 PUSH0 SWAP2 POP SWAP1 POP DUP1 SLOAD PUSH2 0x26B SWAP1 PUSH2 0x8C5 JUMP JUMPDEST DUP1 PUSH1 0x1F ADD PUSH1 0x20 DUP1 SWAP2 DIV MUL PUSH1 0x20 ADD PUSH1 0x40 MLOAD SWAP1 DUP2 ADD PUSH1 0x40 MSTORE DUP1 SWAP3 SWAP2 SWAP1 DUP2 DUP2 MSTORE PUSH1 0x20 ADD DUP3 DUP1 SLOAD PUSH2 0x297 SWAP1 PUSH2 0x8C5 JUMP JUMPDEST DUP1 ISZERO PUSH2 0x2E2 JUMPI DUP1 PUSH1 0x1F LT PUSH2 0x2B9 JUMPI PUSH2 0x100 DUP1 DUP4 SLOAD DIV MUL DUP4 MSTORE SWAP2 PUSH1 0x20 ADD SWAP2 PUSH2 0x2E2 JUMP JUMPDEST DUP3 ADD SWAP2 SWAP1 PUSH0 MSTORE PUSH1 0x20 PUSH0 KECCAK256 SWAP1 JUMPDEST DUP2 SLOAD DUP2 MSTORE SWAP1 PUSH1 0x1 ADD SWAP1 PUSH1 0x20 ADD DUP1 DUP4 GT PUSH2 0x2C5 JUMPI DUP3 SWAP1 SUB PUSH1 0x1F AND DUP3 ADD SWAP2 JUMPDEST POP POP POP POP POP DUP2 JUMP JUMPDEST PUSH0 DUP1 PUSH0 ADD DUP1 SLOAD PUSH2 0x2F9 SWAP1 PUSH2 0x8C5 JUMP JUMPDEST DUP1 PUSH1 0x1F ADD PUSH1 0x20 DUP1 SWAP2 DIV MUL PUSH1 0x20 ADD PUSH1 0x40 MLOAD SWAP1 DUP2 ADD PUSH1 0x40 MSTORE DUP1 SWAP3 SWAP2 SWAP1 DUP2 DUP2 MSTORE PUSH1 0x20 ADD DUP3 DUP1 SLOAD PUSH2 0x325 SWAP1 PUSH2 0x8C5 JUMP JUMPDEST DUP1 ISZERO PUSH2 0x370 JUMPI DUP1 PUSH1 0x1F LT PUSH2 0x347 JUMPI PUSH2 0x100 DUP1 DUP4 SLOAD DIV MUL DUP4 MSTORE SWAP2 PUSH1 0x20 ADD SWAP2 PUSH2 0x370 JUMP JUMPDEST DUP3 ADD SWAP2 SWAP1 PUSH0 MSTORE PUSH1 0x20 PUSH0 KECCAK256 SWAP1 JUMPDEST DUP2 SLOAD DUP2 MSTORE SWAP1 PUSH1 0x1 ADD SWAP1 PUSH1 0x20 ADD DUP1 DUP4 GT PUSH2 0x353 JUMPI DUP3 SWAP1 SUB PUSH1 0x1F AND DUP3 ADD SWAP2 JUMPDEST POP POP POP POP POP SWAP1 DUP1 PUSH1 0x1 ADD SLOAD SWAP1 POP DUP3 JUMP JUMPDEST PUSH1 0x40 MLOAD DUP1 PUSH1 0x40 ADD PUSH1 0x40 MSTORE DUP1 DUP4 DUP2 MSTORE PUSH1 0x20 ADD DUP3 DUP2 MSTORE POP PUSH1 0x4 PUSH0 DUP6 DUP2 MSTORE PUSH1 0x20 ADD SWAP1 DUP2 MSTORE PUSH1 0x20 ADD PUSH0 KECCAK256 PUSH0 DUP3 ADD MLOAD DUP2 PUSH0 ADD SWAP1 DUP2 PUSH2 0x3B9 SWAP2 SWAP1 PUSH2 0xA95 JUMP JUMPDEST POP PUSH1 0x20 DUP3 ADD MLOAD DUP2 PUSH1 0x1 ADD SSTORE SWAP1 POP POP POP POP POP JUMP JUMPDEST PUSH0 PUSH1 0x40 MLOAD DUP1 PUSH1 0x40 ADD PUSH1 0x40 MSTORE DUP1 DUP5 DUP2 MSTORE PUSH1 0x20 ADD DUP4 DUP2 MSTORE POP SWAP1 POP DUP1 PUSH0 PUSH0 DUP3 ADD MLOAD DUP2 PUSH0 ADD SWAP1 DUP2 PUSH2 0x3F9 SWAP2 SWAP1 PUSH2 0xA95 JUMP JUMPDEST POP PUSH1 0x20 DUP3 ADD MLOAD DUP2 PUSH1 0x1 ADD SSTORE SWAP1 POP POP POP POP POP JUMP JUMPDEST PUSH0 PUSH1 0x2 DUP2 GT ISZERO PUSH2 0x41F JUMPI PUSH2 0x41E PUSH2 0x80C JUMP JUMPDEST JUMPDEST PUSH1 0x2 PUSH0 SWAP1 SLOAD SWAP1 PUSH2 0x100 EXP SWAP1 DIV PUSH1 0xFF AND PUSH1 0x2 DUP2 GT ISZERO PUSH2 0x440 JUMPI PUSH2 0x43F PUSH2 0x80C JUMP JUMPDEST JUMPDEST SUB PUSH2 0x470 JUMPI PUSH1 0x1 PUSH1 0x2 PUSH0 PUSH2 0x100 EXP DUP2 SLOAD DUP2 PUSH1 0xFF MUL NOT AND SWAP1 DUP4 PUSH1 0x2 DUP2 GT ISZERO PUSH2 0x46A JUMPI PUSH2 0x469 PUSH2 0x80C JUMP JUMPDEST JUMPDEST MUL OR SWAP1 SSTORE POP JUMPDEST JUMP JUMPDEST PUSH1 0x2 PUSH0 SWAP1 SLOAD SWAP1 PUSH2 0x100 EXP SWAP1 DIV PUSH1 0xFF AND DUP2 JUMP JUMPDEST PUSH0 PUSH1 0x40 MLOAD SWAP1 POP SWAP1 JUMP JUMPDEST PUSH0 PUSH0 REVERT JUMPDEST PUSH0 PUSH0 REVERT JUMPDEST PUSH0 DUP2 SWAP1 POP SWAP2 SWAP1 POP JUMP JUMPDEST PUSH2 0x4A7 DUP2 PUSH2 0x495 JUMP JUMPDEST DUP2 EQ PUSH2 0x4B1 JUMPI PUSH0 PUSH0 REVERT JUMPDEST POP JUMP JUMPDEST PUSH0 DUP2 CALLDATALOAD SWAP1 POP PUSH2 0x4C2 DUP2 PUSH2 0x49E JUMP JUMPDEST SWAP3 SWAP2 POP POP JUMP JUMPDEST PUSH0 PUSH1 0x20 DUP3 DUP5 SUB SLT ISZERO PUSH2 0x4DD JUMPI PUSH2 0x4DC PUSH2 0x48D JUMP JUMPDEST JUMPDEST PUSH0 PUSH2 0x4EA DUP5 DUP3 DUP6 ADD PUSH2 0x4B4 JUMP JUMPDEST SWAP2 POP POP SWAP3 SWAP2 POP POP JUMP JUMPDEST PUSH0 DUP2 MLOAD SWAP1 POP SWAP2 SWAP1 POP JUMP JUMPDEST PUSH0 DUP3 DUP3 MSTORE PUSH1 0x20 DUP3 ADD SWAP1 POP SWAP3 SWAP2 POP POP JUMP JUMPDEST DUP3 DUP2 DUP4 MCOPY PUSH0 DUP4 DUP4 ADD MSTORE POP POP POP JUMP JUMPDEST PUSH0 PUSH1 0x1F NOT PUSH1 0x1F DUP4 ADD AND SWAP1 POP SWAP2 SWAP1 POP JUMP JUMPDEST PUSH0 PUSH2 0x535 DUP3 PUSH2 0x4F3 JUMP JUMPDEST PUSH2 0x53F DUP2 DUP6 PUSH2 0x4FD JUMP JUMPDEST SWAP4 POP PUSH2 0x54F DUP2 DUP6 PUSH1 0x20 DUP7 ADD PUSH2 0x50D JUMP JUMPDEST PUSH2 0x558 DUP2 PUSH2 0x51B JUMP JUMPDEST DUP5 ADD SWAP2 POP POP SWAP3 SWAP2 POP POP JUMP JUMPDEST PUSH2 0x56C DUP2 PUSH2 0x495 JUMP JUMPDEST DUP3 MSTORE POP POP JUMP JUMPDEST PUSH0 PUSH1 0x40 DUP3 ADD SWAP1 POP DUP2 DUP2 SUB PUSH0 DUP4 ADD MSTORE PUSH2 0x58A DUP2 DUP6 PUSH2 0x52B JUMP JUMPDEST SWAP1 POP PUSH2 0x599 PUSH1 0x20 DUP4 ADD DUP5 PUSH2 0x563 JUMP JUMPDEST SWAP4 SWAP3 POP POP POP JUMP JUMPDEST PUSH0 PUSH0 REVERT JUMPDEST PUSH0 PUSH0 REVERT JUMPDEST PUSH32 0x4E487B7100000000000000000000000000000000000000000000000000000000 PUSH0 MSTORE PUSH1 0x41 PUSH1 0x4 MSTORE PUSH1 0x24 PUSH0 REVERT JUMPDEST PUSH2 0x5DE DUP3 PUSH2 0x51B JUMP JUMPDEST DUP2 ADD DUP2 DUP2 LT PUSH8 0xFFFFFFFFFFFFFFFF DUP3 GT OR ISZERO PUSH2 0x5FD JUMPI PUSH2 0x5FC PUSH2 0x5A8 JUMP JUMPDEST JUMPDEST DUP1 PUSH1 0x40 MSTORE POP POP POP JUMP JUMPDEST PUSH0 PUSH2 0x60F PUSH2 0x484 JUMP JUMPDEST SWAP1 POP PUSH2 0x61B DUP3 DUP3 PUSH2 0x5D5 JUMP JUMPDEST SWAP2 SWAP1 POP JUMP JUMPDEST PUSH0 PUSH8 0xFFFFFFFFFFFFFFFF DUP3 GT ISZERO PUSH2 0x63A JUMPI PUSH2 0x639 PUSH2 0x5A8 JUMP JUMPDEST JUMPDEST PUSH2 0x643 DUP3 PUSH2 0x51B JUMP JUMPDEST SWAP1 POP PUSH1 0x20 DUP2 ADD SWAP1 POP SWAP2 SWAP1 POP JUMP JUMPDEST DUP3 DUP2 DUP4 CALLDATACOPY PUSH0 DUP4 DUP4 ADD MSTORE POP POP POP JUMP JUMPDEST PUSH0 PUSH2 0x670 PUSH2 0x66B DUP5 PUSH2 0x620 JUMP JUMPDEST PUSH2 0x606 JUMP JUMPDEST SWAP1 POP DUP3 DUP2 MSTORE PUSH1 0x20 DUP2 ADD DUP5 DUP5 DUP5 ADD GT ISZERO PUSH2 0x68C JUMPI PUSH2 0x68B PUSH2 0x5A4 JUMP JUMPDEST JUMPDEST PUSH2 0x697 DUP5 DUP3 DUP6 PUSH2 0x650 JUMP JUMPDEST POP SWAP4 SWAP3 POP POP POP JUMP JUMPDEST PUSH0 DUP3 PUSH1 0x1F DUP4 ADD SLT PUSH2 0x6B3 JUMPI PUSH2 0x6B2 PUSH2 0x5A0 JUMP JUMPDEST JUMPDEST DUP2 CALLDATALOAD PUSH2 0x6C3 DUP5 DUP3 PUSH1 0x20 DUP7 ADD PUSH2 0x65E JUMP JUMPDEST SWAP2 POP POP SWAP3 SWAP2 POP POP JUMP JUMPDEST PUSH0 PUSH0 PUSH1 0x40 DUP4 DUP6 SUB SLT ISZERO PUSH2 0x6E2 JUMPI PUSH2 0x6E1 PUSH2 0x48D JUMP JUMPDEST JUMPDEST PUSH0 PUSH2 0x6EF DUP6 DUP3 DUP7 ADD PUSH2 0x4B4 JUMP JUMPDEST SWAP3 POP POP PUSH1 0x20 DUP4 ADD CALLDATALOAD PUSH8 0xFFFFFFFFFFFFFFFF DUP2 GT ISZERO PUSH2 0x710 JUMPI PUSH2 0x70F PUSH2 0x491 JUMP JUMPDEST JUMPDEST PUSH2 0x71C DUP6 DUP3 DUP7 ADD PUSH2 0x69F JUMP JUMPDEST SWAP2 POP POP SWAP3 POP SWAP3 SWAP1 POP JUMP JUMPDEST PUSH0 PUSH1 0x20 DUP3 ADD SWAP1 POP DUP2 DUP2 SUB PUSH0 DUP4 ADD MSTORE PUSH2 0x73E DUP2 DUP5 PUSH2 0x52B JUMP JUMPDEST SWAP1 POP SWAP3 SWAP2 POP POP JUMP JUMPDEST PUSH0 PUSH0 PUSH0 PUSH1 0x60 DUP5 DUP7 SUB SLT ISZERO PUSH2 0x75D JUMPI PUSH2 0x75C PUSH2 0x48D JUMP JUMPDEST JUMPDEST PUSH0 PUSH2 0x76A DUP7 DUP3 DUP8 ADD PUSH2 0x4B4 JUMP JUMPDEST SWAP4 POP POP PUSH1 0x20 DUP5 ADD CALLDATALOAD PUSH8 0xFFFFFFFFFFFFFFFF DUP2 GT ISZERO PUSH2 0x78B JUMPI PUSH2 0x78A PUSH2 0x491 JUMP JUMPDEST JUMPDEST PUSH2 0x797 DUP7 DUP3 DUP8 ADD PUSH2 0x69F JUMP JUMPDEST SWAP3 POP POP PUSH1 0x40 PUSH2 0x7A8 DUP7 DUP3 DUP8 ADD PUSH2 0x4B4 JUMP JUMPDEST SWAP2 POP POP SWAP3 POP SWAP3 POP SWAP3 JUMP JUMPDEST PUSH0 PUSH0 PUSH1 0x40 DUP4 DUP6 SUB SLT ISZERO PUSH2 0x7C8 JUMPI PUSH2 0x7C7 PUSH2 0x48D JUMP JUMPDEST JUMPDEST PUSH0 DUP4 ADD CALLDATALOAD PUSH8 0xFFFFFFFFFFFFFFFF DUP2 GT ISZERO PUSH2 0x7E5 JUMPI PUSH2 0x7E4 PUSH2 0x491 JUMP JUMPDEST JUMPDEST PUSH2 0x7F1 DUP6 DUP3 DUP7 ADD PUSH2 0x69F JUMP JUMPDEST SWAP3 POP POP PUSH1 0x20 PUSH2 0x802 DUP6 DUP3 DUP7 ADD PUSH2 0x4B4 JUMP JUMPDEST SWAP2 POP POP SWAP3 POP SWAP3 SWAP1 POP JUMP JUMPDEST PUSH32 0x4E487B7100000000000000000000000000000000000000000000000000000000 PUSH0 MSTORE PUSH1 0x21 PUSH1 0x4 MSTORE PUSH1 0x24 PUSH0 REVERT JUMPDEST PUSH1 0x3 DUP2 LT PUSH2 0x84A JUMPI PUSH2 0x849 PUSH2 0x80C JUMP JUMPDEST JUMPDEST POP JUMP JUMPDEST PUSH0 DUP2 SWAP1 POP PUSH2 0x85A DUP3 PUSH2 0x839 JUMP JUMPDEST SWAP2 SWAP1 POP JUMP JUMPDEST PUSH0 PUSH2 0x869 DUP3 PUSH2 0x84D JUMP JUMPDEST SWAP1 POP SWAP2 SWAP1 POP JUMP JUMPDEST PUSH2 0x879 DUP2 PUSH2 0x85F JUMP JUMPDEST DUP3 MSTORE POP POP JUMP JUMPDEST PUSH0 PUSH1 0x20 DUP3 ADD SWAP1 POP PUSH2 0x892 PUSH0 DUP4 ADD DUP5 PUSH2 0x870 JUMP JUMPDEST SWAP3 SWAP2 POP POP JUMP JUMPDEST PUSH32 0x4E487B7100000000000000000000000000000000000000000000000000000000 PUSH0 MSTORE PUSH1 0x22 PUSH1 0x4 MSTORE PUSH1 0x24 PUSH0 REVERT JUMPDEST PUSH0 PUSH1 0x2 DUP3 DIV SWAP1 POP PUSH1 0x1 DUP3 AND DUP1 PUSH2 0x8DC JUMPI PUSH1 0x7F DUP3 AND SWAP2 POP JUMPDEST PUSH1 0x20 DUP3 LT DUP2 SUB PUSH2 0x8EF JUMPI PUSH2 0x8EE PUSH2 0x898 JUMP JUMPDEST JUMPDEST POP SWAP2 SWAP1 POP JUMP JUMPDEST PUSH0 DUP2 SWAP1 POP DUP2 PUSH0 MSTORE PUSH1 0x20 PUSH0 KECCAK256 SWAP1 POP SWAP2 SWAP1 POP JUMP JUMPDEST PUSH0 PUSH1 0x20 PUSH1 0x1F DUP4 ADD DIV SWAP1 POP SWAP2 SWAP1 POP JUMP JUMPDEST PUSH0 DUP3 DUP3 SHL SWAP1 POP SWAP3 SWAP2 POP POP JUMP JUMPDEST PUSH0 PUSH1 0x8 DUP4 MUL PUSH2 0x951 PUSH32 0xFFFFFFFFFFFFFFFFFFFFFFFFFFFFFFFFFFFFFFFFFFFFFFFFFFFFFFFFFFFFFFFF DUP3 PUSH2 0x916 JUMP JUMPDEST PUSH2 0x95B DUP7 DUP4 PUSH2 0x916 JUMP JUMPDEST SWAP6 POP DUP1 NOT DUP5 AND SWAP4 POP DUP1 DUP7 AND DUP5 OR SWAP3 POP POP POP SWAP4 SWAP3 POP POP POP JUMP JUMPDEST PUSH0 DUP2 SWAP1 POP SWAP2 SWAP1 POP JUMP JUMPDEST PUSH0 PUSH2 0x996 PUSH2 0x991 PUSH2 0x98C DUP5 PUSH2 0x495 JUMP JUMPDEST PUSH2 0x973 JUMP JUMPDEST PUSH2 0x495 JUMP JUMPDEST SWAP1 POP SWAP2 SWAP1 POP JUMP JUMPDEST PUSH0 DUP2 SWAP1 POP SWAP2 SWAP1 POP JUMP JUMPDEST PUSH2 0x9AF DUP4 PUSH2 0x97C JUMP JUMPDEST PUSH2 0x9C3 PUSH2 0x9BB DUP3 PUSH2 0x99D JUMP JUMPDEST DUP5 DUP5 SLOAD PUSH2 0x922 JUMP JUMPDEST DUP3 SSTORE POP POP POP POP JUMP JUMPDEST PUSH0 PUSH0 SWAP1 POP SWAP1 JUMP JUMPDEST PUSH2 0x9DA PUSH2 0x9CB JUMP JUMPDEST PUSH2 0x9E5 DUP2 DUP5 DUP5 PUSH2 0x9A6 JUMP JUMPDEST POP POP POP JUMP JUMPDEST JUMPDEST DUP2 DUP2 LT ISZERO PUSH2 0xA08 JUMPI PUSH2 0x9FD PUSH0 DUP3 PUSH2 0x9D2 JUMP JUMPDEST PUSH1 0x1 DUP2 ADD SWAP1 POP PUSH2 0x9EB JUMP JUMPDEST POP POP JUMP JUMPDEST PUSH1 0x1F DUP3 GT ISZERO PUSH2 0xA4D JUMPI PUSH2 0xA1E DUP2 PUSH2 0x8F5 JUMP JUMPDEST PUSH2 0xA27 DUP5 PUSH2 0x907 JUMP JUMPDEST DUP2 ADD PUSH1 0x20 DUP6 LT ISZERO PUSH2 0xA36 JUMPI DUP2 SWAP1 POP JUMPDEST PUSH2 0xA4A PUSH2 0xA42 DUP6 PUSH2 0x907 JUMP JUMPDEST DUP4 ADD DUP3 PUSH2 0x9EA JUMP JUMPDEST POP POP JUMPDEST POP POP POP JUMP JUMPDEST PUSH0 DUP3 DUP3 SHR SWAP1 POP SWAP3 SWAP2 POP POP JUMP JUMPDEST PUSH0 PUSH2 0xA6D PUSH0 NOT DUP5 PUSH1 0x8 MUL PUSH2 0xA52 JUMP JUMPDEST NOT DUP1 DUP4 AND SWAP2 POP POP SWAP3 SWAP2 POP POP JUMP JUMPDEST PUSH0 PUSH2 0xA85 DUP4 DUP4 PUSH2 0xA5E JUMP JUMPDEST SWAP2 POP DUP3 PUSH1 0x2 MUL DUP3 OR SWAP1 POP SWAP3 SWAP2 POP POP JUMP JUMPDEST PUSH2 0xA9E DUP3 PUSH2 0x4F3 JUMP JUMPDEST PUSH8 0xFFFFFFFFFFFFFFFF DUP2 GT ISZERO PUSH2 0xAB7 JUMPI PUSH2 0xAB6 PUSH2 0x5A8 JUMP JUMPDEST JUMPDEST PUSH2 0xAC1 DUP3 SLOAD PUSH2 0x8C5 JUMP JUMPDEST PUSH2 0xACC DUP3 DUP3 DUP6 PUSH2 0xA0C JUMP JUMPDEST PUSH0 PUSH1 0x20 SWAP1 POP PUSH1 0x1F DUP4 GT PUSH1 0x1 DUP2 EQ PUSH2 0xAFD JUMPI PUSH0 DUP5 ISZERO PUSH2 0xAEB JUMPI DUP3 DUP8 ADD MLOAD SWAP1 POP JUMPDEST PUSH2 0xAF5 DUP6 DUP3 PUSH2 0xA7A JUMP JUMPDEST DUP7 SSTORE POP PUSH2 0xB5C JUMP JUMPDEST PUSH1 0x1F NOT DUP5 AND PUSH2 0xB0B DUP7 PUSH2 0x8F5 JUMP JUMPDEST PUSH0 JUMPDEST DUP3 DUP2 LT ISZERO PUSH2 0xB32 JUMPI DUP5 DUP10 ADD MLOAD DUP3 SSTORE PUSH1 0x1 DUP3 ADD SWAP2 POP PUSH1 0x20 DUP6 ADD SWAP5 POP PUSH1 0x20 DUP2 ADD SWAP1 POP PUSH2 0xB0D JUMP JUMPDEST DUP7 DUP4 LT ISZERO PUSH2 0xB4F JUMPI DUP5 DUP10 ADD MLOAD PUSH2 0xB4B PUSH1 0x1F DUP10 AND DUP3 PUSH2 0xA5E JUMP JUMPDEST DUP4 SSTORE POP JUMPDEST PUSH1 0x1 PUSH1 0x2 DUP9 MUL ADD DUP9 SSTORE POP POP POP JUMPDEST POP POP POP POP POP POP JUMP INVALID LOG2 PUSH5 0x6970667358 0x22 SLT KECCAK256 EXP DUPN 0xC4 SWAP5 PUSH26 0x2B42D462156FF8A4140EC59F52196E9ECF3214B3C6DB78F4BD40 POP PUSH5 0x736F6C6343 STOP ADDMOD 0x1E STOP CALLER "
		},
		"gasEstimates": {
			"creation": {
				"codeDepositCost": "594000",
				"executionCost": "infinite",
				"totalCost": "infinite"
			},
			"external": {
				"c1()": "infinite",
				"check(string,uint256)": "infinite",
				"getStudentData(uint256,string,uint256)": "infinite",
				"process()": "26682",
				"setData(uint256,string)": "infinite",
				"status1()": "2620",
				"studentData(uint256)": "infinite",
				"students(uint256)": "infinite"
			}
		},
		"methodIdentifiers": {
			"c1()": "5f57697c",
			"check(string,uint256)": "b3cbbc24",
			"getStudentData(uint256,string,uint256)": "9a8c9b35",
			"process()": "c33fb877",
			"setData(uint256,string)": "18562dae",
			"status1()": "e589d582",
			"studentData(uint256)": "34f0eb1a",
			"students(uint256)": "06ead22e"
		}
	},
	"abi": [
		{
			"inputs": [
				{
					"internalType": "string",
					"name": "name_",
					"type": "string"
				},
				{
					"internalType": "uint256",
					"name": "price_",
					"type": "uint256"
				}
			],
			"stateMutability": "nonpayable",
			"type": "constructor"
		},
		{
			"inputs": [],
			"name": "c1",
			"outputs": [
				{
					"internalType": "string",
					"name": "name",
					"type": "string"
				},
				{
					"internalType": "uint256",
					"name": "price",
					"type": "uint256"
				}
			],
			"stateMutability": "view",
			"type": "function"
		},
		{
			"inputs": [
				{
					"internalType": "string",
					"name": "newname",
					"type": "string"
				},
				{
					"internalType": "uint256",
					"name": "newprice",
					"type": "uint256"
				}
			],
			"name": "check",
			"outputs": [],
			"stateMutability": "nonpayable",
			"type": "function"
		},
		{
			"inputs": [
				{
					"internalType": "uint256",
					"name": "roll_",
					"type": "uint256"
				},
				{
					"internalType": "string",
					"name": "name_",
					"type": "string"
				},
				{
					"internalType": "uint256",
					"name": "age_",
					"type": "uint256"
				}
			],
			"name": "getStudentData",
			"outputs": [],
			"stateMutability": "nonpayable",
			"type": "function"
		},
		{
			"inputs": [],
			"name": "process",
			"outputs": [],
			"stateMutability": "nonpayable",
			"type": "function"
		},
		{
			"inputs": [
				{
					"internalType": "uint256",
					"name": "roll",
					"type": "uint256"
				},
				{
					"internalType": "string",
					"name": "name",
					"type": "string"
				}
			],
			"name": "setData",
			"outputs": [],
			"stateMutability": "nonpayable",
			"type": "function"
		},
		{
			"inputs": [],
			"name": "status1",
			"outputs": [
				{
					"internalType": "enum Structure.PizzaStatus",
					"name": "",
					"type": "uint8"
				}
			],
			"stateMutability": "view",
			"type": "function"
		},
		{
			"inputs": [
				{
					"internalType": "uint256",
					"name": "",
					"type": "uint256"
				}
			],
			"name": "studentData",
			"outputs": [
				{
					"internalType": "string",
					"name": "",
					"type": "string"
				}
			],
			"stateMutability": "view",
			"type": "function"
		},
		{
			"inputs": [
				{
					"internalType": "uint256",
					"name": "",
					"type": "uint256"
				}
			],
			"name": "students",
			"outputs": [
				{
					"internalType": "string",
					"name": "name",
					"type": "string"
				},
				{
					"internalType": "uint256",
					"name": "age",
					"type": "uint256"
				}
			],
			"stateMutability": "view",
			"type": "function"
		}
	]
}